{
  "_format": "hh-sol-artifact-1",
  "contractName": "BCKETH",
  "sourceName": "contracts/BCKETH.sol",
  "abi": [
    {
      "inputs": [
        {
          "internalType": "address payable",
          "name": "_reserveAddress",
          "type": "address"
        }
      ],
      "stateMutability": "nonpayable",
      "type": "constructor"
    },
    {
      "anonymous": false,
      "inputs": [
        {
          "indexed": true,
          "internalType": "address",
          "name": "owner",
          "type": "address"
        },
        {
          "indexed": true,
          "internalType": "address",
          "name": "spender",
          "type": "address"
        },
        {
          "indexed": false,
          "internalType": "uint256",
          "name": "value",
          "type": "uint256"
        }
      ],
      "name": "Approval",
      "type": "event"
    },
    {
      "anonymous": false,
      "inputs": [
        {
          "indexed": false,
          "internalType": "uint256",
          "name": "newBurnDelay",
          "type": "uint256"
        }
      ],
      "name": "BurnDelayUpdate",
      "type": "event"
    },
    {
      "anonymous": false,
      "inputs": [
        {
          "indexed": true,
          "internalType": "address",
          "name": "account",
          "type": "address"
        },
        {
          "indexed": false,
          "internalType": "uint256",
          "name": "amount",
          "type": "uint256"
        }
      ],
      "name": "Deposit",
      "type": "event"
    },
    {
      "anonymous": false,
      "inputs": [
        {
          "indexed": true,
          "internalType": "address",
          "name": "from",
          "type": "address"
        },
        {
          "indexed": true,
          "internalType": "address",
          "name": "to",
          "type": "address"
        },
        {
          "indexed": false,
          "internalType": "uint256",
          "name": "value",
          "type": "uint256"
        }
      ],
      "name": "Transfer",
      "type": "event"
    },
    {
      "anonymous": false,
      "inputs": [
        {
          "indexed": true,
          "internalType": "address",
          "name": "account",
          "type": "address"
        },
        {
          "indexed": false,
          "internalType": "uint256",
          "name": "amount",
          "type": "uint256"
        }
      ],
      "name": "Withdraw",
      "type": "event"
    },
    {
      "inputs": [
        {
          "internalType": "address",
          "name": "owner",
          "type": "address"
        },
        {
          "internalType": "address",
          "name": "spender",
          "type": "address"
        }
      ],
      "name": "allowance",
      "outputs": [
        {
          "internalType": "uint256",
          "name": "",
          "type": "uint256"
        }
      ],
      "stateMutability": "view",
      "type": "function"
    },
    {
      "inputs": [
        {
          "internalType": "address",
          "name": "spender",
          "type": "address"
        },
        {
          "internalType": "uint256",
          "name": "amount",
          "type": "uint256"
        }
      ],
      "name": "approve",
      "outputs": [
        {
          "internalType": "bool",
          "name": "",
          "type": "bool"
        }
      ],
      "stateMutability": "nonpayable",
      "type": "function"
    },
    {
      "inputs": [
        {
          "internalType": "address",
          "name": "account",
          "type": "address"
        }
      ],
      "name": "balanceOf",
      "outputs": [
        {
          "internalType": "uint256",
          "name": "",
          "type": "uint256"
        }
      ],
      "stateMutability": "view",
      "type": "function"
    },
    {
      "inputs": [],
      "name": "burnDelay",
      "outputs": [
        {
          "internalType": "uint256",
          "name": "",
          "type": "uint256"
        }
      ],
      "stateMutability": "view",
      "type": "function"
    },
    {
      "inputs": [],
      "name": "decimals",
      "outputs": [
        {
          "internalType": "uint8",
          "name": "",
          "type": "uint8"
        }
      ],
      "stateMutability": "view",
      "type": "function"
    },
    {
      "inputs": [
        {
          "internalType": "address",
          "name": "spender",
          "type": "address"
        },
        {
          "internalType": "uint256",
          "name": "subtractedValue",
          "type": "uint256"
        }
      ],
      "name": "decreaseAllowance",
      "outputs": [
        {
          "internalType": "bool",
          "name": "",
          "type": "bool"
        }
      ],
      "stateMutability": "nonpayable",
      "type": "function"
    },
    {
      "inputs": [],
      "name": "executeWithdrawal",
      "outputs": [],
      "stateMutability": "nonpayable",
      "type": "function"
    },
    {
      "inputs": [
        {
          "internalType": "address",
          "name": "spender",
          "type": "address"
        },
        {
          "internalType": "uint256",
          "name": "addedValue",
          "type": "uint256"
        }
      ],
      "name": "increaseAllowance",
      "outputs": [
        {
          "internalType": "bool",
          "name": "",
          "type": "bool"
        }
      ],
      "stateMutability": "nonpayable",
      "type": "function"
    },
    {
      "inputs": [
        {
          "internalType": "address",
          "name": "",
          "type": "address"
        }
      ],
      "name": "lastMintTimestamp",
      "outputs": [
        {
          "internalType": "uint256",
          "name": "",
          "type": "uint256"
        }
      ],
      "stateMutability": "view",
      "type": "function"
    },
    {
      "inputs": [],
      "name": "lido",
      "outputs": [
        {
          "internalType": "contract LidoWithdrawal",
          "name": "",
          "type": "address"
        }
      ],
      "stateMutability": "view",
      "type": "function"
    },
    {
      "inputs": [],
      "name": "mint",
      "outputs": [],
      "stateMutability": "payable",
      "type": "function"
    },
    {
      "inputs": [],
      "name": "name",
      "outputs": [
        {
          "internalType": "string",
          "name": "",
          "type": "string"
        }
      ],
      "stateMutability": "view",
      "type": "function"
    },
    {
      "inputs": [
        {
          "internalType": "uint256",
          "name": "_amount",
          "type": "uint256"
        }
      ],
      "name": "requestWithdrawal",
      "outputs": [],
      "stateMutability": "nonpayable",
      "type": "function"
    },
    {
      "inputs": [
        {
          "internalType": "uint256",
          "name": "_amount",
          "type": "uint256"
        }
      ],
      "name": "sendToReserve",
      "outputs": [],
      "stateMutability": "payable",
      "type": "function"
    },
    {
      "inputs": [
        {
          "internalType": "uint256",
          "name": "_burnDelay",
          "type": "uint256"
        }
      ],
      "name": "setBurnDelay",
      "outputs": [],
      "stateMutability": "nonpayable",
      "type": "function"
    },
    {
      "inputs": [
        {
          "internalType": "address",
          "name": "_address",
          "type": "address"
        }
      ],
      "name": "setLidoWithdrawal",
      "outputs": [],
      "stateMutability": "nonpayable",
      "type": "function"
    },
    {
      "inputs": [],
      "name": "symbol",
      "outputs": [
        {
          "internalType": "string",
          "name": "",
          "type": "string"
        }
      ],
      "stateMutability": "view",
      "type": "function"
    },
    {
      "inputs": [],
      "name": "target",
      "outputs": [
        {
          "internalType": "contract Reserve",
          "name": "",
          "type": "address"
        }
      ],
      "stateMutability": "view",
      "type": "function"
    },
    {
      "inputs": [],
      "name": "timeTillBurn",
      "outputs": [
        {
          "internalType": "uint256",
          "name": "",
          "type": "uint256"
        }
      ],
      "stateMutability": "view",
      "type": "function"
    },
    {
      "inputs": [],
      "name": "totalDeposits",
      "outputs": [
        {
          "internalType": "uint256",
          "name": "",
          "type": "uint256"
        }
      ],
      "stateMutability": "view",
      "type": "function"
    },
    {
      "inputs": [],
      "name": "totalSupply",
      "outputs": [
        {
          "internalType": "uint256",
          "name": "",
          "type": "uint256"
        }
      ],
      "stateMutability": "view",
      "type": "function"
    },
    {
      "inputs": [],
      "name": "totalWithdrawalRequested",
      "outputs": [
        {
          "internalType": "uint256",
          "name": "",
          "type": "uint256"
        }
      ],
      "stateMutability": "view",
      "type": "function"
    },
    {
      "inputs": [
        {
          "internalType": "address",
          "name": "to",
          "type": "address"
        },
        {
          "internalType": "uint256",
          "name": "amount",
          "type": "uint256"
        }
      ],
      "name": "transfer",
      "outputs": [
        {
          "internalType": "bool",
          "name": "",
          "type": "bool"
        }
      ],
      "stateMutability": "nonpayable",
      "type": "function"
    },
    {
      "inputs": [
        {
          "internalType": "address",
          "name": "from",
          "type": "address"
        },
        {
          "internalType": "address",
          "name": "to",
          "type": "address"
        },
        {
          "internalType": "uint256",
          "name": "amount",
          "type": "uint256"
        }
      ],
      "name": "transferFrom",
      "outputs": [
        {
          "internalType": "bool",
          "name": "",
          "type": "bool"
        }
      ],
      "stateMutability": "nonpayable",
      "type": "function"
    },
    {
      "inputs": [
        {
          "internalType": "uint256",
          "name": "_amount",
          "type": "uint256"
        }
      ],
      "name": "withdrawFromReserve",
      "outputs": [],
      "stateMutability": "payable",
      "type": "function"
    },
    {
      "inputs": [
        {
          "internalType": "address",
          "name": "",
          "type": "address"
        }
      ],
      "name": "withdrawalRequests",
      "outputs": [
        {
          "internalType": "uint256",
          "name": "amount",
          "type": "uint256"
        },
        {
          "internalType": "bool",
          "name": "completed",
          "type": "bool"
        }
      ],
      "stateMutability": "view",
      "type": "function"
    },
    {
      "stateMutability": "payable",
      "type": "receive"
    }
  ],
  "bytecode": "0x608060405260786009553480156200001657600080fd5b50604051620033a1380380620033a183398181016040528101906200003c9190620001c1565b6040518060400160405280600781526020017f4261636b455448000000000000000000000000000000000000000000000000008152506040518060400160405280600681526020017f42434b45544800000000000000000000000000000000000000000000000000008152508160039081620000b991906200046d565b508060049081620000cb91906200046d565b50505080600660006101000a81548173ffffffffffffffffffffffffffffffffffffffff021916908373ffffffffffffffffffffffffffffffffffffffff16021790555033600760006101000a81548173ffffffffffffffffffffffffffffffffffffffff021916908373ffffffffffffffffffffffffffffffffffffffff1602179055505062000554565b600080fd5b600073ffffffffffffffffffffffffffffffffffffffff82169050919050565b600062000189826200015c565b9050919050565b6200019b816200017c565b8114620001a757600080fd5b50565b600081519050620001bb8162000190565b92915050565b600060208284031215620001da57620001d962000157565b5b6000620001ea84828501620001aa565b91505092915050565b600081519050919050565b7f4e487b7100000000000000000000000000000000000000000000000000000000600052604160045260246000fd5b7f4e487b7100000000000000000000000000000000000000000000000000000000600052602260045260246000fd5b600060028204905060018216806200027557607f821691505b6020821081036200028b576200028a6200022d565b5b50919050565b60008190508160005260206000209050919050565b60006020601f8301049050919050565b600082821b905092915050565b600060088302620002f57fffffffffffffffffffffffffffffffffffffffffffffffffffffffffffffffff82620002b6565b620003018683620002b6565b95508019841693508086168417925050509392505050565b6000819050919050565b6000819050919050565b60006200034e62000348620003428462000319565b62000323565b62000319565b9050919050565b6000819050919050565b6200036a836200032d565b62000382620003798262000355565b848454620002c3565b825550505050565b600090565b620003996200038a565b620003a68184846200035f565b505050565b5b81811015620003ce57620003c26000826200038f565b600181019050620003ac565b5050565b601f8211156200041d57620003e78162000291565b620003f284620002a6565b8101602085101562000402578190505b6200041a6200041185620002a6565b830182620003ab565b50505b505050565b600082821c905092915050565b6000620004426000198460080262000422565b1980831691505092915050565b60006200045d83836200042f565b9150826002028217905092915050565b6200047882620001f3565b67ffffffffffffffff811115620004945762000493620001fe565b5b620004a082546200025c565b620004ad828285620003d2565b600060209050601f831160018114620004e55760008415620004d0578287015190505b620004dc85826200044f565b8655506200054c565b601f198416620004f58662000291565b60005b828110156200051f57848901518255600182019150602085019450602081019050620004f8565b868310156200053f57848901516200053b601f8916826200042f565b8355505b6001600288020188555050505b505050505050565b612e3d80620005646000396000f3fe6080604052600436106101855760003560e01c8063786bbde8116100d1578063aaaa0c4b1161008a578063d4b8399211610064578063d4b839921461058f578063dd62ed3e146105ba578063e91983c9146105f7578063fa45aa00146106225761018c565b8063aaaa0c4b146104fe578063be13197b14610529578063c668553c146105665761018c565b8063786bbde8146103da5780637d8820971461040557806395d89b41146104305780639ee679e81461045b578063a457c2d714610484578063a9059cbb146104c15761018c565b80631bbc04e21161013e57806327b380f31161011857806327b380f3146102f7578063313ce56714610335578063395093511461036057806370a082311461039d5761018c565b80631bbc04e21461027357806323509a2d1461028f57806323b872dd146102ba5761018c565b806306fdde0314610191578063095ea7b3146101bc5780630a8bcdb9146101f95780631249c58b1461021557806318160ddd1461021f578063192468cf1461024a5761018c565b3661018c57005b600080fd5b34801561019d57600080fd5b506101a6610639565b6040516101b39190612010565b60405180910390f35b3480156101c857600080fd5b506101e360048036038101906101de91906120cb565b6106cb565b6040516101f09190612126565b60405180910390f35b610213600480360381019061020e9190612141565b6106ee565b005b61021d61085c565b005b34801561022b57600080fd5b506102346109ca565b604051610241919061217d565b60405180910390f35b34801561025657600080fd5b50610271600480360381019061026c9190612141565b6109d4565b005b61028d60048036038101906102889190612141565b610aa5565b005b34801561029b57600080fd5b506102a4610bde565b6040516102b191906121f7565b60405180910390f35b3480156102c657600080fd5b506102e160048036038101906102dc9190612212565b610c04565b6040516102ee9190612126565b60405180910390f35b34801561030357600080fd5b5061031e60048036038101906103199190612265565b610c33565b60405161032c929190612292565b60405180910390f35b34801561034157600080fd5b5061034a610c64565b60405161035791906122d7565b60405180910390f35b34801561036c57600080fd5b50610387600480360381019061038291906120cb565b610c6d565b6040516103949190612126565b60405180910390f35b3480156103a957600080fd5b506103c460048036038101906103bf9190612265565b610ca4565b6040516103d1919061217d565b60405180910390f35b3480156103e657600080fd5b506103ef610cec565b6040516103fc919061217d565b60405180910390f35b34801561041157600080fd5b5061041a610d50565b604051610427919061217d565b60405180910390f35b34801561043c57600080fd5b50610445610d56565b6040516104529190612010565b60405180910390f35b34801561046757600080fd5b50610482600480360381019061047d9190612141565b610de8565b005b34801561049057600080fd5b506104ab60048036038101906104a691906120cb565b610f85565b6040516104b89190612126565b60405180910390f35b3480156104cd57600080fd5b506104e860048036038101906104e391906120cb565b610ffc565b6040516104f59190612126565b60405180910390f35b34801561050a57600080fd5b5061051361101f565b604051610520919061217d565b60405180910390f35b34801561053557600080fd5b50610550600480360381019061054b9190612265565b611025565b60405161055d919061217d565b60405180910390f35b34801561057257600080fd5b5061058d60048036038101906105889190612265565b61103d565b005b34801561059b57600080fd5b506105a4611111565b6040516105b19190612325565b60405180910390f35b3480156105c657600080fd5b506105e160048036038101906105dc9190612340565b611137565b6040516105ee919061217d565b60405180910390f35b34801561060357600080fd5b5061060c6111be565b604051610619919061217d565b60405180910390f35b34801561062e57600080fd5b506106376111c4565b005b606060038054610648906123af565b80601f0160208091040260200160405190810160405280929190818152602001828054610674906123af565b80156106c15780601f10610696576101008083540402835291602001916106c1565b820191906000526020600020905b8154815290600101906020018083116106a457829003601f168201915b5050505050905090565b6000806106d6611780565b90506106e3818585611788565b600191505092915050565b600760009054906101000a900473ffffffffffffffffffffffffffffffffffffffff1673ffffffffffffffffffffffffffffffffffffffff163373ffffffffffffffffffffffffffffffffffffffff161461077e576040517f08c379a000000000000000000000000000000000000000000000000000000000815260040161077590612452565b60405180910390fd5b80600660009054906101000a900473ffffffffffffffffffffffffffffffffffffffff1673ffffffffffffffffffffffffffffffffffffffff163110156107c457600080fd5b6000309050600660009054906101000a900473ffffffffffffffffffffffffffffffffffffffff1673ffffffffffffffffffffffffffffffffffffffff16631c58ce1482846040518363ffffffff1660e01b8152600401610826929190612493565b600060405180830381600087803b15801561084057600080fd5b505af1158015610854573d6000803e3d6000fd5b505050505050565b346005600082825461086e91906124eb565b9250508190555042600a60003373ffffffffffffffffffffffffffffffffffffffff1673ffffffffffffffffffffffffffffffffffffffff168152602001908152602001600020819055506108c33334611951565b3373ffffffffffffffffffffffffffffffffffffffff167fe1fffcc4923d04b559f4d29a8bfc6cda04eb5b0d3c460751c2402c5c5cc9109c34604051610909919061217d565b60405180910390a260006064606334610922919061251f565b61092c9190612590565b90506000600660009054906101000a900473ffffffffffffffffffffffffffffffffffffffff1673ffffffffffffffffffffffffffffffffffffffff1682604051610976906125f2565b60006040518083038185875af1925050503d80600081146109b3576040519150601f19603f3d011682016040523d82523d6000602084013e6109b8565b606091505b50509050806109c657600080fd5b5050565b6000600254905090565b600760009054906101000a900473ffffffffffffffffffffffffffffffffffffffff1673ffffffffffffffffffffffffffffffffffffffff163373ffffffffffffffffffffffffffffffffffffffff1614610a64576040517f08c379a0000000000000000000000000000000000000000000000000000000008152600401610a5b90612452565b60405180910390fd5b806009819055507f70d24c8829db52c075fcdc3bc834bea2990df6441af7511b4ff2baafb637ea3181604051610a9a919061217d565b60405180910390a150565b600760009054906101000a900473ffffffffffffffffffffffffffffffffffffffff1673ffffffffffffffffffffffffffffffffffffffff163373ffffffffffffffffffffffffffffffffffffffff1614610b35576040517f08c379a0000000000000000000000000000000000000000000000000000000008152600401610b2c90612452565b60405180910390fd5b80471015610b4257600080fd5b6000600660009054906101000a900473ffffffffffffffffffffffffffffffffffffffff1673ffffffffffffffffffffffffffffffffffffffff1682604051610b8a906125f2565b60006040518083038185875af1925050503d8060008114610bc7576040519150601f19603f3d011682016040523d82523d6000602084013e610bcc565b606091505b5050905080610bda57600080fd5b5050565b600860009054906101000a900473ffffffffffffffffffffffffffffffffffffffff1681565b600080610c0f611780565b9050610c1c858285611aa7565b610c27858585611b33565b60019150509392505050565b600b6020528060005260406000206000915090508060000154908060010160009054906101000a900460ff16905082565b60006012905090565b600080610c78611780565b9050610c99818585610c8a8589611137565b610c9491906124eb565b611788565b600191505092915050565b60008060008373ffffffffffffffffffffffffffffffffffffffff1673ffffffffffffffffffffffffffffffffffffffff168152602001908152602001600020549050919050565b60008042600a60003373ffffffffffffffffffffffffffffffffffffffff1673ffffffffffffffffffffffffffffffffffffffff16815260200190815260200160002054600954610d3d91906124eb565b610d479190612607565b90508091505090565b60055481565b606060048054610d65906123af565b80601f0160208091040260200160405190810160405280929190818152602001828054610d91906123af565b8015610dde5780601f10610db357610100808354040283529160200191610dde565b820191906000526020600020905b815481529060010190602001808311610dc157829003601f168201915b5050505050905090565b80610df233610ca4565b1015610e33576040517f08c379a0000000000000000000000000000000000000000000000000000000008152600401610e2a90612687565b60405180910390fd5b600954600a60003373ffffffffffffffffffffffffffffffffffffffff1673ffffffffffffffffffffffffffffffffffffffff16815260200190815260200160002054610e8091906124eb565b421015610ec2576040517f08c379a0000000000000000000000000000000000000000000000000000000008152600401610eb990612719565b60405180910390fd5b610ecc3382611da9565b8060056000828254610ede9190612607565b92505081905550604051806040016040528082815260200160001515815250600b60003373ffffffffffffffffffffffffffffffffffffffff1673ffffffffffffffffffffffffffffffffffffffff1681526020019081526020016000206000820151816000015560208201518160010160006101000a81548160ff02191690831515021790555090505080600c6000828254610f7b91906124eb565b9250508190555050565b600080610f90611780565b90506000610f9e8286611137565b905083811015610fe3576040517f08c379a0000000000000000000000000000000000000000000000000000000008152600401610fda906127ab565b60405180910390fd5b610ff08286868403611788565b60019250505092915050565b600080611007611780565b9050611014818585611b33565b600191505092915050565b600c5481565b600a6020528060005260406000206000915090505481565b600760009054906101000a900473ffffffffffffffffffffffffffffffffffffffff1673ffffffffffffffffffffffffffffffffffffffff163373ffffffffffffffffffffffffffffffffffffffff16146110cd576040517f08c379a00000000000000000000000000000000000000000000000000000000081526004016110c490612452565b60405180910390fd5b80600860006101000a81548173ffffffffffffffffffffffffffffffffffffffff021916908373ffffffffffffffffffffffffffffffffffffffff16021790555050565b600660009054906101000a900473ffffffffffffffffffffffffffffffffffffffff1681565b6000600160008473ffffffffffffffffffffffffffffffffffffffff1673ffffffffffffffffffffffffffffffffffffffff16815260200190815260200160002060008373ffffffffffffffffffffffffffffffffffffffff1673ffffffffffffffffffffffffffffffffffffffff16815260200190815260200160002054905092915050565b60095481565b600b60003373ffffffffffffffffffffffffffffffffffffffff1673ffffffffffffffffffffffffffffffffffffffff16815260200190815260200160002060010160009054906101000a900460ff1615611254576040517f08c379a000000000000000000000000000000000000000000000000000000000815260040161124b9061283d565b60405180910390fd5b600b60003373ffffffffffffffffffffffffffffffffffffffff1673ffffffffffffffffffffffffffffffffffffffff168152602001908152602001600020600001544710156112d9576040517f08c379a00000000000000000000000000000000000000000000000000000000081526004016112d0906128cf565b60405180910390fd5b6000600860009054906101000a900473ffffffffffffffffffffffffffffffffffffffff1673ffffffffffffffffffffffffffffffffffffffff16636d5bdb6a6040518163ffffffff1660e01b8152600401602060405180830381865afa158015611348573d6000803e3d6000fd5b505050506040513d601f19601f8201168201806040525081019061136c9190612904565b90506000600b60003373ffffffffffffffffffffffffffffffffffffffff1673ffffffffffffffffffffffffffffffffffffffff16815260200190815260200160002060000154905080600c60008282546113c79190612607565b925050819055506000600860009054906101000a900473ffffffffffffffffffffffffffffffffffffffff1673ffffffffffffffffffffffffffffffffffffffff16636d5bdb6a6040518163ffffffff1660e01b8152600401602060405180830381865afa15801561143d573d6000803e3d6000fd5b505050506040513d601f19601f820116820180604052508101906114619190612904565b1180156114fe575080600860009054906101000a900473ffffffffffffffffffffffffffffffffffffffff1673ffffffffffffffffffffffffffffffffffffffff16636d5bdb6a6040518163ffffffff1660e01b8152600401602060405180830381865afa1580156114d7573d6000803e3d6000fd5b505050506040513d601f19601f820116820180604052508101906114fb9190612904565b10155b1561159157600860009054906101000a900473ffffffffffffffffffffffffffffffffffffffff1673ffffffffffffffffffffffffffffffffffffffff1663af243535826040518263ffffffff1660e01b815260040161155e919061217d565b600060405180830381600087803b15801561157857600080fd5b505af115801561158c573d6000803e3d6000fd5b505050505b6001600b60003373ffffffffffffffffffffffffffffffffffffffff1673ffffffffffffffffffffffffffffffffffffffff16815260200190815260200160002060010160006101000a81548160ff02191690831515021790555060003373ffffffffffffffffffffffffffffffffffffffff1682604051611612906125f2565b60006040518083038185875af1925050503d806000811461164f576040519150601f19603f3d011682016040523d82523d6000602084013e611654565b606091505b505090508061166257600080fd5b3373ffffffffffffffffffffffffffffffffffffffff167f884edad9ce6fa2440d8a54cc123490eb96d2768479d49ff9c7366125a9424364836040516116a8919061217d565b60405180910390a26005546064476116c0919061251f565b101561177b5760004760646005546116d89190612590565b6116e29190612607565b90506000309050600660009054906101000a900473ffffffffffffffffffffffffffffffffffffffff1673ffffffffffffffffffffffffffffffffffffffff16631c58ce1482846040518363ffffffff1660e01b8152600401611746929190612493565b600060405180830381600087803b15801561176057600080fd5b505af1158015611774573d6000803e3d6000fd5b5050505050505b505050565b600033905090565b600073ffffffffffffffffffffffffffffffffffffffff168373ffffffffffffffffffffffffffffffffffffffff16036117f7576040517f08c379a00000000000000000000000000000000000000000000000000000000081526004016117ee906129a3565b60405180910390fd5b600073ffffffffffffffffffffffffffffffffffffffff168273ffffffffffffffffffffffffffffffffffffffff1603611866576040517f08c379a000000000000000000000000000000000000000000000000000000000815260040161185d90612a35565b60405180910390fd5b80600160008573ffffffffffffffffffffffffffffffffffffffff1673ffffffffffffffffffffffffffffffffffffffff16815260200190815260200160002060008473ffffffffffffffffffffffffffffffffffffffff1673ffffffffffffffffffffffffffffffffffffffff168152602001908152602001600020819055508173ffffffffffffffffffffffffffffffffffffffff168373ffffffffffffffffffffffffffffffffffffffff167f8c5be1e5ebec7d5bd14f71427d1e84f3dd0314c0f7b2291e5b200ac8c7c3b92583604051611944919061217d565b60405180910390a3505050565b600073ffffffffffffffffffffffffffffffffffffffff168273ffffffffffffffffffffffffffffffffffffffff16036119c0576040517f08c379a00000000000000000000000000000000000000000000000000000000081526004016119b790612aa1565b60405180910390fd5b6119cc60008383611f76565b80600260008282546119de91906124eb565b92505081905550806000808473ffffffffffffffffffffffffffffffffffffffff1673ffffffffffffffffffffffffffffffffffffffff168152602001908152602001600020600082825401925050819055508173ffffffffffffffffffffffffffffffffffffffff16600073ffffffffffffffffffffffffffffffffffffffff167fddf252ad1be2c89b69c2b068fc378daa952ba7f163c4a11628f55a4df523b3ef83604051611a8f919061217d565b60405180910390a3611aa360008383611f7b565b5050565b6000611ab38484611137565b90507fffffffffffffffffffffffffffffffffffffffffffffffffffffffffffffffff8114611b2d5781811015611b1f576040517f08c379a0000000000000000000000000000000000000000000000000000000008152600401611b1690612b0d565b60405180910390fd5b611b2c8484848403611788565b5b50505050565b600073ffffffffffffffffffffffffffffffffffffffff168373ffffffffffffffffffffffffffffffffffffffff1603611ba2576040517f08c379a0000000000000000000000000000000000000000000000000000000008152600401611b9990612b9f565b60405180910390fd5b600073ffffffffffffffffffffffffffffffffffffffff168273ffffffffffffffffffffffffffffffffffffffff1603611c11576040517f08c379a0000000000000000000000000000000000000000000000000000000008152600401611c0890612c31565b60405180910390fd5b611c1c838383611f76565b60008060008573ffffffffffffffffffffffffffffffffffffffff1673ffffffffffffffffffffffffffffffffffffffff16815260200190815260200160002054905081811015611ca2576040517f08c379a0000000000000000000000000000000000000000000000000000000008152600401611c9990612cc3565b60405180910390fd5b8181036000808673ffffffffffffffffffffffffffffffffffffffff1673ffffffffffffffffffffffffffffffffffffffff16815260200190815260200160002081905550816000808573ffffffffffffffffffffffffffffffffffffffff1673ffffffffffffffffffffffffffffffffffffffff168152602001908152602001600020600082825401925050819055508273ffffffffffffffffffffffffffffffffffffffff168473ffffffffffffffffffffffffffffffffffffffff167fddf252ad1be2c89b69c2b068fc378daa952ba7f163c4a11628f55a4df523b3ef84604051611d90919061217d565b60405180910390a3611da3848484611f7b565b50505050565b600073ffffffffffffffffffffffffffffffffffffffff168273ffffffffffffffffffffffffffffffffffffffff1603611e18576040517f08c379a0000000000000000000000000000000000000000000000000000000008152600401611e0f90612d55565b60405180910390fd5b611e2482600083611f76565b60008060008473ffffffffffffffffffffffffffffffffffffffff1673ffffffffffffffffffffffffffffffffffffffff16815260200190815260200160002054905081811015611eaa576040517f08c379a0000000000000000000000000000000000000000000000000000000008152600401611ea190612de7565b60405180910390fd5b8181036000808573ffffffffffffffffffffffffffffffffffffffff1673ffffffffffffffffffffffffffffffffffffffff1681526020019081526020016000208190555081600260008282540392505081905550600073ffffffffffffffffffffffffffffffffffffffff168373ffffffffffffffffffffffffffffffffffffffff167fddf252ad1be2c89b69c2b068fc378daa952ba7f163c4a11628f55a4df523b3ef84604051611f5d919061217d565b60405180910390a3611f7183600084611f7b565b505050565b505050565b505050565b600081519050919050565b600082825260208201905092915050565b60005b83811015611fba578082015181840152602081019050611f9f565b60008484015250505050565b6000601f19601f8301169050919050565b6000611fe282611f80565b611fec8185611f8b565b9350611ffc818560208601611f9c565b61200581611fc6565b840191505092915050565b6000602082019050818103600083015261202a8184611fd7565b905092915050565b600080fd5b600073ffffffffffffffffffffffffffffffffffffffff82169050919050565b600061206282612037565b9050919050565b61207281612057565b811461207d57600080fd5b50565b60008135905061208f81612069565b92915050565b6000819050919050565b6120a881612095565b81146120b357600080fd5b50565b6000813590506120c58161209f565b92915050565b600080604083850312156120e2576120e1612032565b5b60006120f085828601612080565b9250506020612101858286016120b6565b9150509250929050565b60008115159050919050565b6121208161210b565b82525050565b600060208201905061213b6000830184612117565b92915050565b60006020828403121561215757612156612032565b5b6000612165848285016120b6565b91505092915050565b61217781612095565b82525050565b6000602082019050612192600083018461216e565b92915050565b6000819050919050565b60006121bd6121b86121b384612037565b612198565b612037565b9050919050565b60006121cf826121a2565b9050919050565b60006121e1826121c4565b9050919050565b6121f1816121d6565b82525050565b600060208201905061220c60008301846121e8565b92915050565b60008060006060848603121561222b5761222a612032565b5b600061223986828701612080565b935050602061224a86828701612080565b925050604061225b868287016120b6565b9150509250925092565b60006020828403121561227b5761227a612032565b5b600061228984828501612080565b91505092915050565b60006040820190506122a7600083018561216e565b6122b46020830184612117565b9392505050565b600060ff82169050919050565b6122d1816122bb565b82525050565b60006020820190506122ec60008301846122c8565b92915050565b60006122fd826121a2565b9050919050565b600061230f826122f2565b9050919050565b61231f81612304565b82525050565b600060208201905061233a6000830184612316565b92915050565b6000806040838503121561235757612356612032565b5b600061236585828601612080565b925050602061237685828601612080565b9150509250929050565b7f4e487b7100000000000000000000000000000000000000000000000000000000600052602260045260246000fd5b600060028204905060018216806123c757607f821691505b6020821081036123da576123d9612380565b5b50919050565b7f4f6e6c7920746865206f776e65722063616e2063616c6c20746869732066756e60008201527f6374696f6e2e0000000000000000000000000000000000000000000000000000602082015250565b600061243c602683611f8b565b9150612447826123e0565b604082019050919050565b6000602082019050818103600083015261246b8161242f565b9050919050565b600061247d82612037565b9050919050565b61248d81612472565b82525050565b60006040820190506124a86000830185612484565b6124b5602083018461216e565b9392505050565b7f4e487b7100000000000000000000000000000000000000000000000000000000600052601160045260246000fd5b60006124f682612095565b915061250183612095565b9250828201905080821115612519576125186124bc565b5b92915050565b600061252a82612095565b915061253583612095565b925082820261254381612095565b9150828204841483151761255a576125596124bc565b5b5092915050565b7f4e487b7100000000000000000000000000000000000000000000000000000000600052601260045260246000fd5b600061259b82612095565b91506125a683612095565b9250826125b6576125b5612561565b5b828204905092915050565b600081905092915050565b50565b60006125dc6000836125c1565b91506125e7826125cc565b600082019050919050565b60006125fd826125cf565b9150819050919050565b600061261282612095565b915061261d83612095565b9250828203905081811115612635576126346124bc565b5b92915050565b7f496e73756666696369656e7420746f6b656e7300000000000000000000000000600082015250565b6000612671601383611f8b565b915061267c8261263b565b602082019050919050565b600060208201905081810360008301526126a081612664565b9050919050565b7f43616e206f6e6c79206275726e20746f6b656e732061667465722032206d696e60008201527f75746573206f66206d696e74696e670000000000000000000000000000000000602082015250565b6000612703602f83611f8b565b915061270e826126a7565b604082019050919050565b60006020820190508181036000830152612732816126f6565b9050919050565b7f45524332303a2064656372656173656420616c6c6f77616e63652062656c6f7760008201527f207a65726f000000000000000000000000000000000000000000000000000000602082015250565b6000612795602583611f8b565b91506127a082612739565b604082019050919050565b600060208201905081810360008301526127c481612788565b9050919050565b7f4e6f2070656e64696e67207769746864726177616c2072657175657374206f7260008201527f207265717565737420616c726561647920636f6d706c65746564000000000000602082015250565b6000612827603a83611f8b565b9150612832826127cb565b604082019050919050565b600060208201905081810360008301526128568161281a565b9050919050565b7f496e73756666696369656e742045544820696e20636f6e74726163742c20706c60008201527f6561736520776169740000000000000000000000000000000000000000000000602082015250565b60006128b9602983611f8b565b91506128c48261285d565b604082019050919050565b600060208201905081810360008301526128e8816128ac565b9050919050565b6000815190506128fe8161209f565b92915050565b60006020828403121561291a57612919612032565b5b6000612928848285016128ef565b91505092915050565b7f45524332303a20617070726f76652066726f6d20746865207a65726f2061646460008201527f7265737300000000000000000000000000000000000000000000000000000000602082015250565b600061298d602483611f8b565b915061299882612931565b604082019050919050565b600060208201905081810360008301526129bc81612980565b9050919050565b7f45524332303a20617070726f766520746f20746865207a65726f20616464726560008201527f7373000000000000000000000000000000000000000000000000000000000000602082015250565b6000612a1f602283611f8b565b9150612a2a826129c3565b604082019050919050565b60006020820190508181036000830152612a4e81612a12565b9050919050565b7f45524332303a206d696e7420746f20746865207a65726f206164647265737300600082015250565b6000612a8b601f83611f8b565b9150612a9682612a55565b602082019050919050565b60006020820190508181036000830152612aba81612a7e565b9050919050565b7f45524332303a20696e73756666696369656e7420616c6c6f77616e6365000000600082015250565b6000612af7601d83611f8b565b9150612b0282612ac1565b602082019050919050565b60006020820190508181036000830152612b2681612aea565b9050919050565b7f45524332303a207472616e736665722066726f6d20746865207a65726f20616460008201527f6472657373000000000000000000000000000000000000000000000000000000602082015250565b6000612b89602583611f8b565b9150612b9482612b2d565b604082019050919050565b60006020820190508181036000830152612bb881612b7c565b9050919050565b7f45524332303a207472616e7366657220746f20746865207a65726f206164647260008201527f6573730000000000000000000000000000000000000000000000000000000000602082015250565b6000612c1b602383611f8b565b9150612c2682612bbf565b604082019050919050565b60006020820190508181036000830152612c4a81612c0e565b9050919050565b7f45524332303a207472616e7366657220616d6f756e742065786365656473206260008201527f616c616e63650000000000000000000000000000000000000000000000000000602082015250565b6000612cad602683611f8b565b9150612cb882612c51565b604082019050919050565b60006020820190508181036000830152612cdc81612ca0565b9050919050565b7f45524332303a206275726e2066726f6d20746865207a65726f2061646472657360008201527f7300000000000000000000000000000000000000000000000000000000000000602082015250565b6000612d3f602183611f8b565b9150612d4a82612ce3565b604082019050919050565b60006020820190508181036000830152612d6e81612d32565b9050919050565b7f45524332303a206275726e20616d6f756e7420657863656564732062616c616e60008201527f6365000000000000000000000000000000000000000000000000000000000000602082015250565b6000612dd1602283611f8b565b9150612ddc82612d75565b604082019050919050565b60006020820190508181036000830152612e0081612dc4565b905091905056fea264697066735822122070f070e8ff81ee22ae57cecf7555b87ffdd579d104987377cfff031024d6c68164736f6c63430008130033",
  "linkReferences": {},
  "deployedLinkReferences": {}
}