{
    "_format": "hh-sol-artifact-1",
    "contractName": "LidoWithdrawal",
    "sourceName": "contracts/LidoWithdrawal.sol",
    "abi": [
        {
            "inputs": [
                {
                    "internalType": "address",
                    "name": "_lidoVault",
                    "type": "address"
                },
                {
                    "internalType": "address",
                    "name": "_bckEthToken",
                    "type": "address"
                },
                {
                    "internalType": "address",
                    "name": "_reserve",
                    "type": "address"
                }
            ],
            "stateMutability": "nonpayable",
            "type": "constructor"
        },
        {
            "inputs": [],
            "name": "AmounttoWithdraw",
            "outputs": [
                {
                    "internalType": "uint256",
                    "name": "",
                    "type": "uint256"
                }
            ],
            "stateMutability": "view",
            "type": "function"
        },
        {
            "inputs": [],
            "name": "bckEthToken",
            "outputs": [
                {
                    "internalType": "contract BCKETH",
                    "name": "",
                    "type": "address"
                }
            ],
            "stateMutability": "view",
            "type": "function"
        },
        {
            "inputs": [],
            "name": "executeWithdraw",
            "outputs": [],
            "stateMutability": "nonpayable",
            "type": "function"
        },
        {
            "inputs": [],
            "name": "lastWithdrawAmount",
            "outputs": [
                {
                    "internalType": "uint256",
                    "name": "",
                    "type": "uint256"
                }
            ],
            "stateMutability": "view",
            "type": "function"
        },
        {
            "inputs": [],
            "name": "lidoVault",
            "outputs": [
                {
                    "internalType": "contract ILidoVault",
                    "name": "",
                    "type": "address"
                }
            ],
            "stateMutability": "view",
            "type": "function"
        },
        {
            "inputs": [],
            "name": "reserve",
            "outputs": [
                {
                    "internalType": "contract Reserve",
                    "name": "",
                    "type": "address"
                }
            ],
            "stateMutability": "view",
            "type": "function"
        },
        {
            "inputs": [
                {
                    "internalType": "uint256",
                    "name": "_amount",
                    "type": "uint256"
                }
            ],
            "name": "updateAmountToWithdraw",
            "outputs": [],
            "stateMutability": "nonpayable",
            "type": "function"
        }
    ],
    "bytecode": "0x60806040523480156200001157600080fd5b50604051620013ca380380620013ca83398181016040528101906200003791906200016c565b82600160006101000a81548173ffffffffffffffffffffffffffffffffffffffff021916908373ffffffffffffffffffffffffffffffffffffffff16021790555081600260006101000a81548173ffffffffffffffffffffffffffffffffffffffff021916908373ffffffffffffffffffffffffffffffffffffffff160217905550806000806101000a81548173ffffffffffffffffffffffffffffffffffffffff021916908373ffffffffffffffffffffffffffffffffffffffff160217905550505050620001c8565b600080fd5b600073ffffffffffffffffffffffffffffffffffffffff82169050919050565b6000620001348262000107565b9050919050565b620001468162000127565b81146200015257600080fd5b50565b60008151905062000166816200013b565b92915050565b60008060006060848603121562000188576200018762000102565b5b6000620001988682870162000155565b9350506020620001ab8682870162000155565b9250506040620001be8682870162000155565b9150509250925092565b6111f280620001d86000396000f3fe608060405234801561001057600080fd5b506004361061007d5760003560e01c8063b831461e1161005b578063b831461e146100da578063cd3293de146100f8578063dfccbd9114610116578063f8fd9795146101345761007d565b80634c9a6cf4146100825780636d5bdb6a146100a0578063af243535146100be575b600080fd5b61008a61013e565b60405161009791906108d6565b60405180910390f35b6100a8610164565b6040516100b5919061090a565b60405180910390f35b6100d860048036038101906100d39190610965565b61016a565b005b6100e261025f565b6040516100ef919061090a565b60405180910390f35b610100610265565b60405161010d91906109b3565b60405180910390f35b61011e610289565b60405161012b91906109ef565b60405180910390f35b61013c6102af565b005b600160009054906101000a900473ffffffffffffffffffffffffffffffffffffffff1681565b60035481565b600260009054906101000a900473ffffffffffffffffffffffffffffffffffffffff1673ffffffffffffffffffffffffffffffffffffffff163373ffffffffffffffffffffffffffffffffffffffff16146101fa576040517f08c379a00000000000000000000000000000000000000000000000000000000081526004016101f190610a8d565b60405180910390fd5b60035481116102215780600360008282546102159190610adc565b9250508190555061025c565b6040517f08c379a000000000000000000000000000000000000000000000000000000000815260040161025390610b82565b60405180910390fd5b50565b60045481565b60008054906101000a900473ffffffffffffffffffffffffffffffffffffffff1681565b600260009054906101000a900473ffffffffffffffffffffffffffffffffffffffff1681565b6000600260009054906101000a900473ffffffffffffffffffffffffffffffffffffffff1673ffffffffffffffffffffffffffffffffffffffff1631905060008060009054906101000a900473ffffffffffffffffffffffffffffffffffffffff1673ffffffffffffffffffffffffffffffffffffffff163190506000600260009054906101000a900473ffffffffffffffffffffffffffffffffffffffff1673ffffffffffffffffffffffffffffffffffffffff1663aaaa0c4b6040518163ffffffff1660e01b8152600401602060405180830381865afa158015610399573d6000803e3d6000fd5b505050506040513d601f19601f820116820180604052508101906103bd9190610bb7565b905060008111610402576040517f08c379a00000000000000000000000000000000000000000000000000000000081526004016103f990610c30565b60405180910390fd5b818361040e9190610c50565b811161044f576040517f08c379a000000000000000000000000000000000000000000000000000000000815260040161044690610d1c565b60405180910390fd5b600082848361045e9190610adc565b6104689190610adc565b90506000600354036106395780600160009054906101000a900473ffffffffffffffffffffffffffffffffffffffff1673ffffffffffffffffffffffffffffffffffffffff16638aeb8707600160009054906101000a900473ffffffffffffffffffffffffffffffffffffffff166040518263ffffffff1660e01b81526004016104f29190610d5d565b602060405180830381865afa15801561050f573d6000803e3d6000fd5b505050506040513d601f19601f820116820180604052508101906105339190610bb7565b1015610574576040517f08c379a000000000000000000000000000000000000000000000000000000000815260040161056b90610e10565b60405180910390fd5b80600360008282546105869190610c50565b92505081905550600160009054906101000a900473ffffffffffffffffffffffffffffffffffffffff1673ffffffffffffffffffffffffffffffffffffffff1663eba18fe88260016040518363ffffffff1660e01b81526004016105eb929190610ea7565b6000604051808303816000875af115801561060a573d6000803e3d6000fd5b505050506040513d6000823e3d601f19601f820116820180604052508101906106339190611029565b50610851565b600354811161067d576040517f08c379a0000000000000000000000000000000000000000000000000000000008152600401610674906110e4565b60405180910390fd5b60006003548261068d9190610adc565b905080600160009054906101000a900473ffffffffffffffffffffffffffffffffffffffff1673ffffffffffffffffffffffffffffffffffffffff16638aeb8707600160009054906101000a900473ffffffffffffffffffffffffffffffffffffffff166040518263ffffffff1660e01b815260040161070d9190610d5d565b602060405180830381865afa15801561072a573d6000803e3d6000fd5b505050506040513d601f19601f8201168201806040525081019061074e9190610bb7565b101561078f576040517f08c379a00000000000000000000000000000000000000000000000000000000081526004016107869061119c565b60405180910390fd5b81600360008282546107a19190610c50565b92505081905550600160009054906101000a900473ffffffffffffffffffffffffffffffffffffffff1673ffffffffffffffffffffffffffffffffffffffff1663eba18fe88260016040518363ffffffff1660e01b8152600401610806929190610ea7565b6000604051808303816000875af1158015610825573d6000803e3d6000fd5b505050506040513d6000823e3d601f19601f8201168201806040525081019061084e9190611029565b50505b50505050565b600073ffffffffffffffffffffffffffffffffffffffff82169050919050565b6000819050919050565b600061089c61089761089284610857565b610877565b610857565b9050919050565b60006108ae82610881565b9050919050565b60006108c0826108a3565b9050919050565b6108d0816108b5565b82525050565b60006020820190506108eb60008301846108c7565b92915050565b6000819050919050565b610904816108f1565b82525050565b600060208201905061091f60008301846108fb565b92915050565b6000604051905090565b600080fd5b600080fd5b610942816108f1565b811461094d57600080fd5b50565b60008135905061095f81610939565b92915050565b60006020828403121561097b5761097a61092f565b5b600061098984828501610950565b91505092915050565b600061099d826108a3565b9050919050565b6109ad81610992565b82525050565b60006020820190506109c860008301846109a4565b92915050565b60006109d9826108a3565b9050919050565b6109e9816109ce565b82525050565b6000602082019050610a0460008301846109e0565b92915050565b600082825260208201905092915050565b7f43616e206f6e6c792062652063616c6c65642066726f6d2042434b455448206360008201527f6f6e747261637400000000000000000000000000000000000000000000000000602082015250565b6000610a77602783610a0a565b9150610a8282610a1b565b604082019050919050565b60006020820190508181036000830152610aa681610a6a565b9050919050565b7f4e487b7100000000000000000000000000000000000000000000000000000000600052601160045260246000fd5b6000610ae7826108f1565b9150610af2836108f1565b9250828203905081811115610b0a57610b09610aad565b5b92915050565b7f526571756573746564207769746864726177616c20616d6f756e74206973206d60008201527f6f7265207468616e207468652063757272656e7420616d6f756e740000000000602082015250565b6000610b6c603b83610a0a565b9150610b7782610b10565b604082019050919050565b60006020820190508181036000830152610b9b81610b5f565b9050919050565b600081519050610bb181610939565b92915050565b600060208284031215610bcd57610bcc61092f565b5b6000610bdb84828501610ba2565b91505092915050565b7f4e6f20455448206973206265696e672072657175657374656400000000000000600082015250565b6000610c1a601983610a0a565b9150610c2582610be4565b602082019050919050565b60006020820190508181036000830152610c4981610c0d565b9050919050565b6000610c5b826108f1565b9150610c66836108f1565b9250828201905080821115610c7e57610c7d610aad565b5b92915050565b7f4e6f206e65656420746f2077697468647261772066726f6d204c69646f20746860008201527f65726520697320656e6f7567682045544820696e207265736572766520616e6460208201527f2042434b45544800000000000000000000000000000000000000000000000000604082015250565b6000610d06604783610a0a565b9150610d1182610c84565b606082019050919050565b60006020820190508181036000830152610d3581610cf9565b9050919050565b6000610d4782610857565b9050919050565b610d5781610d3c565b82525050565b6000602082019050610d726000830184610d4e565b92915050565b7f4e6f7420656e6f756768204c69646f546f6b656e20696e204c69646f5661756c60008201527f7420746f20667566696c2074686973205769746864726177616c20526571756560208201527f737420312e000000000000000000000000000000000000000000000000000000604082015250565b6000610dfa604583610a0a565b9150610e0582610d78565b606082019050919050565b60006020820190508181036000830152610e2981610ded565b9050919050565b7f4e487b7100000000000000000000000000000000000000000000000000000000600052602160045260246000fd5b60028110610e7057610e6f610e30565b5b50565b6000819050610e8182610e5f565b919050565b6000610e9182610e73565b9050919050565b610ea181610e86565b82525050565b6000604082019050610ebc60008301856108fb565b610ec96020830184610e98565b9392505050565b600080fd5b6000601f19601f8301169050919050565b7f4e487b7100000000000000000000000000000000000000000000000000000000600052604160045260246000fd5b610f1e82610ed5565b810181811067ffffffffffffffff82111715610f3d57610f3c610ee6565b5b80604052505050565b6000610f50610925565b9050610f5c8282610f15565b919050565b600067ffffffffffffffff821115610f7c57610f7b610ee6565b5b602082029050602081019050919050565b600080fd5b6000610fa5610fa084610f61565b610f46565b90508083825260208201905060208402830185811115610fc857610fc7610f8d565b5b835b81811015610ff15780610fdd8882610ba2565b845260208401935050602081019050610fca565b5050509392505050565b600082601f8301126110105761100f610ed0565b5b8151611020848260208601610f92565b91505092915050565b60006020828403121561103f5761103e61092f565b5b600082015167ffffffffffffffff81111561105d5761105c610934565b5b61106984828501610ffb565b91505092915050565b7f5468657265206973206e6f20455448206e656564656420746f2062652077697460008201527f68647261776e0000000000000000000000000000000000000000000000000000602082015250565b60006110ce602683610a0a565b91506110d982611072565b604082019050919050565b600060208201905081810360008301526110fd816110c1565b9050919050565b7f4e6f7420656e6f756768204c69646f546f6b656e20696e204c69646f5661756c60008201527f7420746f20667566696c2074686973205769746864726177616c20526571756560208201527f737420322e000000000000000000000000000000000000000000000000000000604082015250565b6000611186604583610a0a565b915061119182611104565b606082019050919050565b600060208201905081810360008301526111b581611179565b905091905056fea26469706673582212206d60f0a5bc1964799f2975cb4d5843d5351edaa88b9751eb5c7729d7a964f06a64736f6c63430008130033",
    "linkReferences": {},
    "deployedLinkReferences": {}
}