{
  "_format": "hh-sol-artifact-1",
  "contractName": "BoundFinanceLidoVault",
  "sourceName": "contracts/Lidostaking.sol",
  "abi": [
    {
      "inputs": [
        {
          "internalType": "address",
          "name": "_stETH",
          "type": "address"
        },
        {
          "internalType": "address",
          "name": "_withdrawaddress",
          "type": "address"
        }
      ],
      "stateMutability": "nonpayable",
      "type": "constructor"
    },
    {
      "anonymous": false,
      "inputs": [
        {
          "indexed": false,
          "internalType": "uint256",
          "name": "requestId",
          "type": "uint256"
        },
        {
          "indexed": false,
          "internalType": "address",
          "name": "destination",
          "type": "address"
        }
      ],
      "name": "ClaimInitiated",
      "type": "event"
    },
    {
      "anonymous": false,
      "inputs": [
        {
          "indexed": true,
          "internalType": "address",
          "name": "user",
          "type": "address"
        },
        {
          "indexed": true,
          "internalType": "address",
          "name": "collateralAsset",
          "type": "address"
        },
        {
          "indexed": false,
          "internalType": "uint256",
          "name": "depositedValue",
          "type": "uint256"
        },
        {
          "indexed": false,
          "internalType": "uint256",
          "name": "collateralValue",
          "type": "uint256"
        },
        {
          "indexed": false,
          "internalType": "uint256",
          "name": "timestamp",
          "type": "uint256"
        }
      ],
      "name": "DepositEther",
      "type": "event"
    },
    {
      "anonymous": false,
      "inputs": [
        {
          "indexed": false,
          "internalType": "uint256",
          "name": "requestId",
          "type": "uint256"
        }
      ],
      "name": "EtherClaimedFromLido",
      "type": "event"
    },
    {
      "anonymous": false,
      "inputs": [
        {
          "indexed": false,
          "internalType": "uint256",
          "name": "stETHAmount",
          "type": "uint256"
        },
        {
          "indexed": false,
          "internalType": "uint256",
          "name": "realAmount",
          "type": "uint256"
        },
        {
          "indexed": false,
          "internalType": "uint256[]",
          "name": "requestIds",
          "type": "uint256[]"
        }
      ],
      "name": "ExcessStethRequested",
      "type": "event"
    },
    {
      "anonymous": false,
      "inputs": [
        {
          "indexed": false,
          "internalType": "uint256",
          "name": "amount",
          "type": "uint256"
        },
        {
          "indexed": false,
          "internalType": "enum BoundFinanceLidoVault.WithdrawalDestination",
          "name": "destination",
          "type": "uint8"
        },
        {
          "indexed": false,
          "internalType": "uint256[]",
          "name": "requestIds",
          "type": "uint256[]"
        }
      ],
      "name": "LidoWithdrawRequestedTo",
      "type": "event"
    },
    {
      "anonymous": false,
      "inputs": [
        {
          "indexed": false,
          "internalType": "uint256",
          "name": "amountIn",
          "type": "uint256"
        },
        {
          "indexed": false,
          "internalType": "uint256",
          "name": "amountToTub",
          "type": "uint256"
        },
        {
          "indexed": false,
          "internalType": "uint256",
          "name": "amountForSwap",
          "type": "uint256"
        },
        {
          "indexed": false,
          "internalType": "uint256",
          "name": "amountToCP",
          "type": "uint256"
        },
        {
          "indexed": false,
          "internalType": "uint256",
          "name": "amountOut",
          "type": "uint256"
        }
      ],
      "name": "RewardSplit",
      "type": "event"
    },
    {
      "inputs": [],
      "name": "BCKETH",
      "outputs": [
        {
          "internalType": "address",
          "name": "",
          "type": "address"
        }
      ],
      "stateMutability": "view",
      "type": "function"
    },
    {
      "inputs": [],
      "name": "BCKsave",
      "outputs": [
        {
          "internalType": "contract BCKsavingsAccount",
          "name": "",
          "type": "address"
        }
      ],
      "stateMutability": "view",
      "type": "function"
    },
    {
      "inputs": [],
      "name": "USDC",
      "outputs": [
        {
          "internalType": "address",
          "name": "",
          "type": "address"
        }
      ],
      "stateMutability": "view",
      "type": "function"
    },
    {
      "inputs": [],
      "name": "WETH9",
      "outputs": [
        {
          "internalType": "address",
          "name": "",
          "type": "address"
        }
      ],
      "stateMutability": "view",
      "type": "function"
    },
    {
      "inputs": [],
      "name": "WETH9Token",
      "outputs": [
        {
          "internalType": "contract IWETH9",
          "name": "",
          "type": "address"
        }
      ],
      "stateMutability": "view",
      "type": "function"
    },
    {
      "inputs": [],
      "name": "cashbackandprotocol",
      "outputs": [
        {
          "internalType": "address payable",
          "name": "",
          "type": "address"
        }
      ],
      "stateMutability": "view",
      "type": "function"
    },
    {
      "inputs": [
        {
          "internalType": "uint256",
          "name": "requestId",
          "type": "uint256"
        }
      ],
      "name": "checkStatusRequestIDs",
      "outputs": [
        {
          "components": [
            {
              "internalType": "uint256",
              "name": "amountOfStETH",
              "type": "uint256"
            },
            {
              "internalType": "uint256",
              "name": "amountOfShares",
              "type": "uint256"
            },
            {
              "internalType": "address",
              "name": "owner",
              "type": "address"
            },
            {
              "internalType": "uint256",
              "name": "timestamp",
              "type": "uint256"
            },
            {
              "internalType": "bool",
              "name": "isFinalized",
              "type": "bool"
            },
            {
              "internalType": "bool",
              "name": "isClaimed",
              "type": "bool"
            }
          ],
          "internalType": "struct WithdrawalRequestStatus[]",
          "name": "statuses",
          "type": "tuple[]"
        }
      ],
      "stateMutability": "view",
      "type": "function"
    },
    {
      "inputs": [],
      "name": "checksRequestIDs",
      "outputs": [
        {
          "internalType": "uint256[]",
          "name": "requestsIds",
          "type": "uint256[]"
        }
      ],
      "stateMutability": "view",
      "type": "function"
    },
    {
      "inputs": [
        {
          "internalType": "uint256",
          "name": "requestId",
          "type": "uint256"
        }
      ],
      "name": "claimEtherFromLido",
      "outputs": [],
      "stateMutability": "nonpayable",
      "type": "function"
    },
    {
      "inputs": [
        {
          "internalType": "uint256",
          "name": "requestId",
          "type": "uint256"
        }
      ],
      "name": "claimTo",
      "outputs": [],
      "stateMutability": "nonpayable",
      "type": "function"
    },
    {
      "inputs": [],
      "name": "collateralAsset",
      "outputs": [
        {
          "internalType": "contract IERC20",
          "name": "",
          "type": "address"
        }
      ],
      "stateMutability": "view",
      "type": "function"
    },
    {
      "inputs": [],
      "name": "depositEtherToMint",
      "outputs": [],
      "stateMutability": "payable",
      "type": "function"
    },
    {
      "inputs": [
        {
          "internalType": "address",
          "name": "",
          "type": "address"
        }
      ],
      "name": "depositedTime",
      "outputs": [
        {
          "internalType": "uint256",
          "name": "",
          "type": "uint256"
        }
      ],
      "stateMutability": "view",
      "type": "function"
    },
    {
      "inputs": [
        {
          "internalType": "uint256",
          "name": "stETHAmount",
          "type": "uint256"
        }
      ],
      "name": "excessSteth",
      "outputs": [
        {
          "internalType": "uint256[]",
          "name": "requestIds",
          "type": "uint256[]"
        }
      ],
      "stateMutability": "nonpayable",
      "type": "function"
    },
    {
      "inputs": [],
      "name": "lidoManager",
      "outputs": [
        {
          "internalType": "address",
          "name": "",
          "type": "address"
        }
      ],
      "stateMutability": "view",
      "type": "function"
    },
    {
      "inputs": [],
      "name": "lidoRebaseTime",
      "outputs": [
        {
          "internalType": "uint256",
          "name": "",
          "type": "uint256"
        }
      ],
      "stateMutability": "view",
      "type": "function"
    },
    {
      "inputs": [],
      "name": "lidowithdraw",
      "outputs": [
        {
          "internalType": "contract Ilidowithdraw",
          "name": "",
          "type": "address"
        }
      ],
      "stateMutability": "view",
      "type": "function"
    },
    {
      "inputs": [],
      "name": "owner",
      "outputs": [
        {
          "internalType": "address",
          "name": "",
          "type": "address"
        }
      ],
      "stateMutability": "view",
      "type": "function"
    },
    {
      "inputs": [],
      "name": "poolFee",
      "outputs": [
        {
          "internalType": "uint24",
          "name": "",
          "type": "uint24"
        }
      ],
      "stateMutability": "view",
      "type": "function"
    },
    {
      "inputs": [],
      "name": "reservecontract",
      "outputs": [
        {
          "internalType": "address",
          "name": "",
          "type": "address"
        }
      ],
      "stateMutability": "view",
      "type": "function"
    },
    {
      "inputs": [],
      "name": "routerAddress",
      "outputs": [
        {
          "internalType": "address",
          "name": "",
          "type": "address"
        }
      ],
      "stateMutability": "view",
      "type": "function"
    },
    {
      "inputs": [
        {
          "internalType": "address",
          "name": "_address",
          "type": "address"
        }
      ],
      "name": "seeBalance",
      "outputs": [
        {
          "internalType": "uint256",
          "name": "",
          "type": "uint256"
        }
      ],
      "stateMutability": "view",
      "type": "function"
    },
    {
      "inputs": [
        {
          "internalType": "address",
          "name": "_reserveaddress",
          "type": "address"
        },
        {
          "internalType": "address",
          "name": "_BCKETH",
          "type": "address"
        }
      ],
      "name": "setBCKContractAddress",
      "outputs": [],
      "stateMutability": "nonpayable",
      "type": "function"
    },
    {
      "inputs": [
        {
          "internalType": "address",
          "name": "_manager",
          "type": "address"
        }
      ],
      "name": "setLidoManager",
      "outputs": [],
      "stateMutability": "nonpayable",
      "type": "function"
    },
    {
      "inputs": [
        {
          "internalType": "uint256",
          "name": "_time",
          "type": "uint256"
        }
      ],
      "name": "setLidoRebaseTime",
      "outputs": [],
      "stateMutability": "nonpayable",
      "type": "function"
    },
    {
      "inputs": [
        {
          "internalType": "uint24",
          "name": "fee",
          "type": "uint24"
        }
      ],
      "name": "setPoolFee",
      "outputs": [],
      "stateMutability": "nonpayable",
      "type": "function"
    },
    {
      "inputs": [
        {
          "internalType": "address",
          "name": "_tub",
          "type": "address"
        },
        {
          "internalType": "address",
          "name": "_savings",
          "type": "address"
        },
        {
          "internalType": "address payable",
          "name": "_cashbackandprotocol",
          "type": "address"
        }
      ],
      "name": "setTubBCKSavings",
      "outputs": [],
      "stateMutability": "nonpayable",
      "type": "function"
    },
    {
      "inputs": [
        {
          "internalType": "uint256",
          "name": "amountIn",
          "type": "uint256"
        }
      ],
      "name": "splitReward",
      "outputs": [],
      "stateMutability": "nonpayable",
      "type": "function"
    },
    {
      "inputs": [],
      "name": "step",
      "outputs": [
        {
          "internalType": "uint256",
          "name": "",
          "type": "uint256"
        }
      ],
      "stateMutability": "view",
      "type": "function"
    },
    {
      "inputs": [],
      "name": "swapRouter",
      "outputs": [
        {
          "internalType": "contract ISwapRouter",
          "name": "",
          "type": "address"
        }
      ],
      "stateMutability": "view",
      "type": "function"
    },
    {
      "inputs": [],
      "name": "totalDepositedAsset",
      "outputs": [
        {
          "internalType": "uint256",
          "name": "",
          "type": "uint256"
        }
      ],
      "stateMutability": "view",
      "type": "function"
    },
    {
      "inputs": [],
      "name": "tub",
      "outputs": [
        {
          "internalType": "contract Tub",
          "name": "",
          "type": "address"
        }
      ],
      "stateMutability": "view",
      "type": "function"
    },
    {
      "inputs": [
        {
          "internalType": "uint256",
          "name": "stETHAmount",
          "type": "uint256"
        },
        {
          "internalType": "enum BoundFinanceLidoVault.WithdrawalDestination",
          "name": "_destination",
          "type": "uint8"
        }
      ],
      "name": "withdrawLidoTo",
      "outputs": [
        {
          "internalType": "uint256[]",
          "name": "requestIds",
          "type": "uint256[]"
        }
      ],
      "stateMutability": "nonpayable",
      "type": "function"
    },
    {
      "inputs": [
        {
          "internalType": "uint256",
          "name": "",
          "type": "uint256"
        }
      ],
      "name": "withdrawalDestinations",
      "outputs": [
        {
          "internalType": "enum BoundFinanceLidoVault.WithdrawalDestination",
          "name": "",
          "type": "uint8"
        }
      ],
      "stateMutability": "view",
      "type": "function"
    },
    {
      "stateMutability": "payable",
      "type": "receive"
    }
  ],
  "bytecode": "0x60c060405261a8c0600255610bb8600460006101000a81548162ffffff021916908362ffffff16021790555073e592427a0aece92de3edee1f18e0157c0586156473ffffffffffffffffffffffffffffffffffffffff1660a09073ffffffffffffffffffffffffffffffffffffffff1681525073b4fbf271143f4fbf7b91a5ded31805e42b2208d6600a60006101000a81548173ffffffffffffffffffffffffffffffffffffffff021916908373ffffffffffffffffffffffffffffffffffffffff160217905550348015620000d457600080fd5b5060405162004968380380620049688339818101604052810190620000fa919062000221565b336000806101000a81548173ffffffffffffffffffffffffffffffffffffffff021916908373ffffffffffffffffffffffffffffffffffffffff1602179055508173ffffffffffffffffffffffffffffffffffffffff1660808173ffffffffffffffffffffffffffffffffffffffff168152505080600660006101000a81548173ffffffffffffffffffffffffffffffffffffffff021916908373ffffffffffffffffffffffffffffffffffffffff160217905550505062000268565b600080fd5b600073ffffffffffffffffffffffffffffffffffffffff82169050919050565b6000620001e982620001bc565b9050919050565b620001fb81620001dc565b81146200020757600080fd5b50565b6000815190506200021b81620001f0565b92915050565b600080604083850312156200023b576200023a620001b7565b5b60006200024b858286016200020a565b92505060206200025e858286016200020a565b9150509250929050565b60805160a05161469b620002cd6000396000818161237301528181612c780152612dd1015260008181610c4401528181610d4c015281816110f7015281816112560152818161164401528181611c75015281816125cd01526126a8015261469b6000f3fe6080604052600436106101fd5760003560e01c806389a302711161010d578063c299ebb1116100a0578063e25fe1751161006f578063e25fe17514610713578063eba18fe81461073e578063f0d8daae1461077b578063f1b6868f146107a6578063f2fcb1d6146107cf57610204565b8063c299ebb114610659578063c31c9c0714610682578063c6348ae9146106ad578063d220978d146106d657610204565b8063aabaecd6116100dc578063aabaecd6146105ad578063b66a8a93146105d8578063bb8e7b1214610603578063bf9934421461062e57610204565b806389a30271146104f15780638aeb87071461051c5780638d27b1a9146105595780638da5cb5b1461058257610204565b80634a7f299e11610190578063627e96161161015f578063627e96161461040c5780636ca02b70146104375780636d56d26c1461047457806373dd250c1461049d5780637d9048d4146104c657610204565b80634a7f299e146103835780634aa4a4fc146103ac5780634d441c01146103d7578063556eb4a7146103e157610204565b806317d145a2116101cc57806317d145a2146102d75780633268cc561461030257806334e70cc21461032d5780633c16c8e71461035857610204565b80630238b3311461020957806302e1e14014610232578063050e52b61461026f578063089fe6aa146102ac57610204565b3661020457005b600080fd5b34801561021557600080fd5b50610230600480360381019061022b9190612ebd565b6107fa565b005b34801561023e57600080fd5b5061025960048036038101906102549190612f48565b610b3d565b6040516102669190612f84565b60405180910390f35b34801561027b57600080fd5b5061029660048036038101906102919190612ebd565b610b55565b6040516102a3919061305d565b60405180910390f35b3480156102b857600080fd5b506102c1610f6c565b6040516102ce919061309d565b60405180910390f35b3480156102e357600080fd5b506102ec610f81565b6040516102f99190612f84565b60405180910390f35b34801561030e57600080fd5b50610317610f87565b60405161032491906130c7565b60405180910390f35b34801561033957600080fd5b50610342610f9f565b60405161034f9190613141565b60405180910390f35b34801561036457600080fd5b5061036d610fc5565b60405161037a919061317d565b60405180910390f35b34801561038f57600080fd5b506103aa60048036038101906103a59190612ebd565b610feb565b005b3480156103b857600080fd5b506103c16110db565b6040516103ce91906130c7565b60405180910390f35b6103df6110f3565b005b3480156103ed57600080fd5b506103f66112e0565b60405161040391906130c7565b60405180910390f35b34801561041857600080fd5b50610421611306565b60405161042e91906131b9565b60405180910390f35b34801561044357600080fd5b5061045e60048036038101906104599190612ebd565b61132c565b60405161046b9190613328565b60405180910390f35b34801561048057600080fd5b5061049b60048036038101906104969190612f48565b61144c565b005b3480156104a957600080fd5b506104c460048036038101906104bf9190613376565b611576565b005b3480156104d257600080fd5b506104db611602565b6040516104e891906130c7565b60405180910390f35b3480156104fd57600080fd5b50610506611628565b60405161051391906130c7565b60405180910390f35b34801561052857600080fd5b50610543600480360381019061053e9190612f48565b611640565b6040516105509190612f84565b60405180910390f35b34801561056557600080fd5b50610580600480360381019061057b9190612ebd565b6116e3565b005b34801561058e57600080fd5b50610597611c4f565b6040516105a491906130c7565b60405180910390f35b3480156105b957600080fd5b506105c2611c73565b6040516105cf91906133c4565b60405180910390f35b3480156105e457600080fd5b506105ed611c97565b6040516105fa9190613400565b60405180910390f35b34801561060f57600080fd5b50610618611cbd565b604051610625919061343c565b60405180910390f35b34801561063a57600080fd5b50610643611ce3565b6040516106509190612f84565b60405180910390f35b34801561066557600080fd5b50610680600480360381019061067b9190612ebd565b611ce9565b005b34801561068e57600080fd5b50610697612371565b6040516106a49190613478565b60405180910390f35b3480156106b957600080fd5b506106d460048036038101906106cf91906134bf565b612395565b005b3480156106e257600080fd5b506106fd60048036038101906106f89190612ebd565b6124bc565b60405161070a9190613589565b60405180910390f35b34801561071f57600080fd5b506107286124dc565b6040516107359190612f84565b60405180910390f35b34801561074a57600080fd5b50610765600480360381019061076091906135c9565b6124e2565b604051610772919061305d565b60405180910390f35b34801561078757600080fd5b50610790612936565b60405161079d919061305d565b60405180910390f35b3480156107b257600080fd5b506107cd60048036038101906107c89190613609565b6129de565b005b3480156107db57600080fd5b506107e4612b4a565b6040516107f191906130c7565b60405180910390f35b60028081111561080d5761080c613512565b5b600e600083815260200190815260200160002060009054906101000a900460ff1660028111156108405761083f613512565b5b1415801561089357506001600281111561085d5761085c613512565b5b600e600083815260200190815260200160002060009054906101000a900460ff1660028111156108905761088f613512565b5b14155b6108d2576040517f08c379a00000000000000000000000000000000000000000000000000000000081526004016108c9906136cc565b60405180910390fd5b6000600167ffffffffffffffff8111156108ef576108ee6136ec565b5b60405190808252806020026020018201604052801561091d5781602001602082028036833780820191505090505b50905081816000815181106109355761093461371b565b5b6020026020010181815250506000600660009054906101000a900473ffffffffffffffffffffffffffffffffffffffff1673ffffffffffffffffffffffffffffffffffffffff1663b8c4b85a836040518263ffffffff1660e01b815260040161099e919061305d565b600060405180830381865afa1580156109bb573d6000803e3d6000fd5b505050506040513d6000823e3d601f19601f820116820180604052508101906109e4919061396f565b9050806000815181106109fa576109f961371b565b5b6020026020010151608001518015610a2f575080600081518110610a2157610a2061371b565b5b602002602001015160a00151155b15610afd57600660009054906101000a900473ffffffffffffffffffffffffffffffffffffffff1673ffffffffffffffffffffffffffffffffffffffff1663f8444436846040518263ffffffff1660e01b8152600401610a8f9190612f84565b600060405180830381600087803b158015610aa957600080fd5b505af1158015610abd573d6000803e3d6000fd5b505050507fbc5add6879e46b3602ff92ea4c36b1d3870c238d8ce0b13b4c62a64fb93eff3483604051610af09190612f84565b60405180910390a1610b38565b6040517f08c379a0000000000000000000000000000000000000000000000000000000008152600401610b2f90613a2a565b60405180910390fd5b505050565b600d6020528060005260406000206000915090505481565b606060008054906101000a900473ffffffffffffffffffffffffffffffffffffffff1673ffffffffffffffffffffffffffffffffffffffff163373ffffffffffffffffffffffffffffffffffffffff161480610bfe5750600760009054906101000a900473ffffffffffffffffffffffffffffffffffffffff1673ffffffffffffffffffffffffffffffffffffffff163373ffffffffffffffffffffffffffffffffffffffff16145b610c3d576040517f08c379a0000000000000000000000000000000000000000000000000000000008152600401610c3490613a96565b60405180910390fd5b60006003547f000000000000000000000000000000000000000000000000000000000000000073ffffffffffffffffffffffffffffffffffffffff166370a08231306040518263ffffffff1660e01b8152600401610c9b91906130c7565b602060405180830381865afa158015610cb8573d6000803e3d6000fd5b505050506040513d601f19601f82011682018060405250810190610cdc9190613ab6565b610ce69190613b12565b9050600081118015610cf85750600083115b610d37576040517f08c379a0000000000000000000000000000000000000000000000000000000008152600401610d2e90613bb8565b60405180910390fd5b6000818411610d465783610d48565b815b90507f000000000000000000000000000000000000000000000000000000000000000073ffffffffffffffffffffffffffffffffffffffff1663095ea7b3600660009054906101000a900473ffffffffffffffffffffffffffffffffffffffff16836040518363ffffffff1660e01b8152600401610dc7929190613bd8565b6020604051808303816000875af1158015610de6573d6000803e3d6000fd5b505050506040513d601f19601f82011682018060405250810190610e0a9190613c01565b610e1357600080fd5b6000600167ffffffffffffffff811115610e3057610e2f6136ec565b5b604051908082528060200260200182016040528015610e5e5781602001602082028036833780820191505090505b5090508181600081518110610e7657610e7561371b565b5b6020026020010181815250507f2377521b28ab4556ae4e98a4f17c6a9d7426d7361dc6b74b2cbfa4c390bcbc89858386604051610eb593929190613c2e565b60405180910390a1600660009054906101000a900473ffffffffffffffffffffffffffffffffffffffff1673ffffffffffffffffffffffffffffffffffffffff1663d668104282306040518363ffffffff1660e01b8152600401610f1a929190613c6c565b6000604051808303816000875af1158015610f39573d6000803e3d6000fd5b505050506040513d6000823e3d601f19601f82011682018060405250810190610f629190613d5f565b9350505050919050565b600460009054906101000a900462ffffff1681565b60035481565b73e592427a0aece92de3edee1f18e0157c0586156481565b600860009054906101000a900473ffffffffffffffffffffffffffffffffffffffff1681565b600a60009054906101000a900473ffffffffffffffffffffffffffffffffffffffff1681565b60008054906101000a900473ffffffffffffffffffffffffffffffffffffffff1673ffffffffffffffffffffffffffffffffffffffff163373ffffffffffffffffffffffffffffffffffffffff1614806110925750600760009054906101000a900473ffffffffffffffffffffffffffffffffffffffff1673ffffffffffffffffffffffffffffffffffffffff163373ffffffffffffffffffffffffffffffffffffffff16145b6110d1576040517f08c379a00000000000000000000000000000000000000000000000000000000081526004016110c890613a96565b60405180910390fd5b8060028190555050565b73b4fbf271143f4fbf7b91a5ded31805e42b2208d681565b60007f000000000000000000000000000000000000000000000000000000000000000073ffffffffffffffffffffffffffffffffffffffff1663a1903eab3460008054906101000a900473ffffffffffffffffffffffffffffffffffffffff166040518363ffffffff1660e01b815260040161116f91906130c7565b60206040518083038185885af115801561118d573d6000803e3d6000fd5b50505050506040513d601f19601f820116820180604052508101906111b29190613ab6565b9050600081116111f7576040517f08c379a00000000000000000000000000000000000000000000000000000000081526004016111ee90613df4565b60405180910390fd5b34600360008282546112099190613e14565b9250508190555042600d60003373ffffffffffffffffffffffffffffffffffffffff1673ffffffffffffffffffffffffffffffffffffffff168152602001908152602001600020819055507f000000000000000000000000000000000000000000000000000000000000000073ffffffffffffffffffffffffffffffffffffffff163373ffffffffffffffffffffffffffffffffffffffff167f6a7b44958c301c33959b506daa1c81df7d298aa58fd6c510f4fd967f0eb87ce83434426040516112d593929190613e48565b60405180910390a350565b600b60009054906101000a900473ffffffffffffffffffffffffffffffffffffffff1681565b600660009054906101000a900473ffffffffffffffffffffffffffffffffffffffff1681565b60606000600167ffffffffffffffff81111561134b5761134a6136ec565b5b6040519080825280602002602001820160405280156113795781602001602082028036833780820191505090505b50905082816000815181106113915761139061371b565b5b6020026020010181815250506000600660009054906101000a900473ffffffffffffffffffffffffffffffffffffffff1673ffffffffffffffffffffffffffffffffffffffff1663b8c4b85a836040518263ffffffff1660e01b81526004016113fa919061305d565b600060405180830381865afa158015611417573d6000803e3d6000fd5b505050506040513d6000823e3d601f19601f82011682018060405250810190611440919061396f565b90508092505050919050565b60008054906101000a900473ffffffffffffffffffffffffffffffffffffffff1673ffffffffffffffffffffffffffffffffffffffff163373ffffffffffffffffffffffffffffffffffffffff1614806114f35750600760009054906101000a900473ffffffffffffffffffffffffffffffffffffffff1673ffffffffffffffffffffffffffffffffffffffff163373ffffffffffffffffffffffffffffffffffffffff16145b611532576040517f08c379a000000000000000000000000000000000000000000000000000000000815260040161152990613a96565b60405180910390fd5b80600760006101000a81548173ffffffffffffffffffffffffffffffffffffffff021916908373ffffffffffffffffffffffffffffffffffffffff16021790555050565b6101f48162ffffff1614806115915750610bb88162ffffff16145b806115a1575060648162ffffff16145b6115e0576040517f08c379a00000000000000000000000000000000000000000000000000000000081526004016115d790613ecb565b60405180910390fd5b80600460006101000a81548162ffffff021916908362ffffff16021790555050565b600760009054906101000a900473ffffffffffffffffffffffffffffffffffffffff1681565b730cf44bdb470c785a8ebbdb1dbdb788a27aeb89b181565b60007f000000000000000000000000000000000000000000000000000000000000000073ffffffffffffffffffffffffffffffffffffffff166370a08231836040518263ffffffff1660e01b815260040161169b91906130c7565b602060405180830381865afa1580156116b8573d6000803e3d6000fd5b505050506040513d601f19601f820116820180604052508101906116dc9190613ab6565b9050919050565b6002808111156116f6576116f5613512565b5b600e600083815260200190815260200160002060009054906101000a900460ff16600281111561172957611728613512565b5b148061177957506001600281111561174457611743613512565b5b600e600083815260200190815260200160002060009054906101000a900460ff16600281111561177757611776613512565b5b145b6117b8576040517f08c379a00000000000000000000000000000000000000000000000000000000081526004016117af906136cc565b60405180910390fd5b6000600167ffffffffffffffff8111156117d5576117d46136ec565b5b6040519080825280602002602001820160405280156118035781602001602082028036833780820191505090505b509050818160008151811061181b5761181a61371b565b5b6020026020010181815250506000600660009054906101000a900473ffffffffffffffffffffffffffffffffffffffff1673ffffffffffffffffffffffffffffffffffffffff1663b8c4b85a836040518263ffffffff1660e01b8152600401611884919061305d565b600060405180830381865afa1580156118a1573d6000803e3d6000fd5b505050506040513d6000823e3d601f19601f820116820180604052508101906118ca919061396f565b9050806000815181106118e0576118df61371b565b5b60200260200101516080015180156119155750806000815181106119075761190661371b565b5b602002602001015160a00151155b15611c0f576000600660009054906101000a900473ffffffffffffffffffffffffffffffffffffffff1673ffffffffffffffffffffffffffffffffffffffff166362abe3fa846001600660009054906101000a900473ffffffffffffffffffffffffffffffffffffffff1673ffffffffffffffffffffffffffffffffffffffff1663526eae3e6040518163ffffffff1660e01b8152600401602060405180830381865afa1580156119ca573d6000803e3d6000fd5b505050506040513d601f19601f820116820180604052508101906119ee9190613ab6565b6040518463ffffffff1660e01b8152600401611a0c93929190613f26565b600060405180830381865afa158015611a29573d6000803e3d6000fd5b505050506040513d6000823e3d601f19601f82011682018060405250810190611a529190613d5f565b9050600060016002811115611a6a57611a69613512565b5b600e600087815260200190815260200160002060009054906101000a900460ff166002811115611a9d57611a9c613512565b5b03611acc57600b60009054906101000a900473ffffffffffffffffffffffffffffffffffffffff169050611b3e565b600280811115611adf57611ade613512565b5b600e600087815260200190815260200160002060009054906101000a900460ff166002811115611b1257611b11613512565b5b03611b3d57600160009054906101000a900473ffffffffffffffffffffffffffffffffffffffff1690505b5b600660009054906101000a900473ffffffffffffffffffffffffffffffffffffffff1673ffffffffffffffffffffffffffffffffffffffff16635e7eead98584846040518463ffffffff1660e01b8152600401611b9d93929190613f64565b600060405180830381600087803b158015611bb757600080fd5b505af1158015611bcb573d6000803e3d6000fd5b505050507f16110602114a9075a58c79178f3c42e8f3efedf21fe3169ef4d674ee461bfb568582604051611c00929190613fa9565b60405180910390a15050611c4a565b6040517f08c379a0000000000000000000000000000000000000000000000000000000008152600401611c4190613a2a565b60405180910390fd5b505050565b60008054906101000a900473ffffffffffffffffffffffffffffffffffffffff1681565b7f000000000000000000000000000000000000000000000000000000000000000081565b600c60009054906101000a900473ffffffffffffffffffffffffffffffffffffffff1681565b600960009054906101000a900473ffffffffffffffffffffffffffffffffffffffff1681565b60025481565b60008054906101000a900473ffffffffffffffffffffffffffffffffffffffff1673ffffffffffffffffffffffffffffffffffffffff163373ffffffffffffffffffffffffffffffffffffffff161480611d905750600760009054906101000a900473ffffffffffffffffffffffffffffffffffffffff1673ffffffffffffffffffffffffffffffffffffffff163373ffffffffffffffffffffffffffffffffffffffff16145b611dcf576040517f08c379a0000000000000000000000000000000000000000000000000000000008152600401611dc690613a96565b60405180910390fd5b80471015611e12576040517f08c379a0000000000000000000000000000000000000000000000000000000008152600401611e099061401e565b60405180910390fd5b600073ffffffffffffffffffffffffffffffffffffffff16600c60009054906101000a900473ffffffffffffffffffffffffffffffffffffffff1673ffffffffffffffffffffffffffffffffffffffff1614158015611ec05750600073ffffffffffffffffffffffffffffffffffffffff16600860009054906101000a900473ffffffffffffffffffffffffffffffffffffffff1673ffffffffffffffffffffffffffffffffffffffff1614155b8015611f1b5750600073ffffffffffffffffffffffffffffffffffffffff16600960009054906101000a900473ffffffffffffffffffffffffffffffffffffffff1673ffffffffffffffffffffffffffffffffffffffff1614155b611f5a576040517f08c379a0000000000000000000000000000000000000000000000000000000008152600401611f51906140d6565b60405180910390fd5b6000600582611f699190614125565b905060006064604b8385611f7d9190613b12565b611f879190614156565b611f919190614125565b90506000818385611fa29190613b12565b611fac9190613b12565b9050600083118015611fbe5750600082115b8015611fca5750600081115b612009576040517f08c379a0000000000000000000000000000000000000000000000000000000008152600401612000906141e4565b60405180910390fd5b600860009054906101000a900473ffffffffffffffffffffffffffffffffffffffff1673ffffffffffffffffffffffffffffffffffffffff16636f4a2cd0846040518263ffffffff1660e01b81526004016000604051808303818588803b15801561207357600080fd5b505af1158015612087573d6000803e3d6000fd5b5050505050600061209783612b70565b9050600081116120dc576040517f08c379a00000000000000000000000000000000000000000000000000000000081526004016120d390614250565b60405180910390fd5b730cf44bdb470c785a8ebbdb1dbdb788a27aeb89b173ffffffffffffffffffffffffffffffffffffffff1663095ea7b3600960009054906101000a900473ffffffffffffffffffffffffffffffffffffffff16836040518363ffffffff1660e01b815260040161214d929190613bd8565b6020604051808303816000875af115801561216c573d6000803e3d6000fd5b505050506040513d601f19601f820116820180604052508101906121909190613c01565b6121cf576040517f08c379a00000000000000000000000000000000000000000000000000000000081526004016121c6906142bc565b60405180910390fd5b600960009054906101000a900473ffffffffffffffffffffffffffffffffffffffff1673ffffffffffffffffffffffffffffffffffffffff1663b3bf2ff1826040518263ffffffff1660e01b815260040161222a9190612f84565b600060405180830381600087803b15801561224457600080fd5b505af1158015612258573d6000803e3d6000fd5b505050506000600c60009054906101000a900473ffffffffffffffffffffffffffffffffffffffff1673ffffffffffffffffffffffffffffffffffffffff16836040516122a49061430d565b60006040518083038185875af1925050503d80600081146122e1576040519150601f19603f3d011682016040523d82523d6000602084013e6122e6565b606091505b505090508061232a576040517f08c379a00000000000000000000000000000000000000000000000000000000081526004016123219061436e565b60405180910390fd5b7f9dc19af6f51f4141f11183a3db630ba47911d654d96b44c55ebcd6cde1f7f8b2868686868660405161236195949392919061438e565b60405180910390a1505050505050565b7f000000000000000000000000000000000000000000000000000000000000000081565b6000600554146123da576040517f08c379a00000000000000000000000000000000000000000000000000000000081526004016123d19061442d565b60405180910390fd5b82600860006101000a81548173ffffffffffffffffffffffffffffffffffffffff021916908373ffffffffffffffffffffffffffffffffffffffff16021790555081600960006101000a81548173ffffffffffffffffffffffffffffffffffffffff021916908373ffffffffffffffffffffffffffffffffffffffff16021790555080600c60006101000a81548173ffffffffffffffffffffffffffffffffffffffff021916908373ffffffffffffffffffffffffffffffffffffffff1602179055506001600560008282546124b09190613e14565b92505081905550505050565b600e6020528060005260406000206000915054906101000a900460ff1681565b60055481565b606060008054906101000a900473ffffffffffffffffffffffffffffffffffffffff1673ffffffffffffffffffffffffffffffffffffffff163373ffffffffffffffffffffffffffffffffffffffff16148061258b5750600760009054906101000a900473ffffffffffffffffffffffffffffffffffffffff1673ffffffffffffffffffffffffffffffffffffffff163373ffffffffffffffffffffffffffffffffffffffff16145b6125ca576040517f08c379a00000000000000000000000000000000000000000000000000000000081526004016125c190613a96565b60405180910390fd5b827f000000000000000000000000000000000000000000000000000000000000000073ffffffffffffffffffffffffffffffffffffffff166370a08231306040518263ffffffff1660e01b815260040161262491906130c7565b602060405180830381865afa158015612641573d6000803e3d6000fd5b505050506040513d601f19601f820116820180604052508101906126659190613ab6565b10156126a6576040517f08c379a000000000000000000000000000000000000000000000000000000000815260040161269d906144bf565b60405180910390fd5b7f000000000000000000000000000000000000000000000000000000000000000073ffffffffffffffffffffffffffffffffffffffff1663095ea7b3600660009054906101000a900473ffffffffffffffffffffffffffffffffffffffff16856040518363ffffffff1660e01b8152600401612723929190613bd8565b6020604051808303816000875af1158015612742573d6000803e3d6000fd5b505050506040513d601f19601f820116820180604052508101906127669190613c01565b61276f57600080fd5b6000600167ffffffffffffffff81111561278c5761278b6136ec565b5b6040519080825280602002602001820160405280156127ba5781602001602082028036833780820191505090505b50905083816000815181106127d2576127d161371b565b5b602002602001018181525050600660009054906101000a900473ffffffffffffffffffffffffffffffffffffffff1673ffffffffffffffffffffffffffffffffffffffff1663d668104282306040518363ffffffff1660e01b815260040161283b929190613c6c565b6000604051808303816000875af115801561285a573d6000803e3d6000fd5b505050506040513d6000823e3d601f19601f820116820180604052508101906128839190613d5f565b915082600e60008460008151811061289e5761289d61371b565b5b6020026020010151815260200190815260200160002060006101000a81548160ff021916908360028111156128d6576128d5613512565b5b02179055507ffdea6daa71e087bedfb84efff81a844f3a3b626d1b9962d299f6235223b5f3a184848460405161290e939291906144df565b60405180910390a183600360008282546129289190613b12565b925050819055505092915050565b6060600660009054906101000a900473ffffffffffffffffffffffffffffffffffffffff1673ffffffffffffffffffffffffffffffffffffffff16637d031b65306040518263ffffffff1660e01b815260040161299391906130c7565b600060405180830381865afa1580156129b0573d6000803e3d6000fd5b505050506040513d6000823e3d601f19601f820116820180604052508101906129d99190613d5f565b905090565b60008054906101000a900473ffffffffffffffffffffffffffffffffffffffff1673ffffffffffffffffffffffffffffffffffffffff163373ffffffffffffffffffffffffffffffffffffffff161480612a855750600760009054906101000a900473ffffffffffffffffffffffffffffffffffffffff1673ffffffffffffffffffffffffffffffffffffffff163373ffffffffffffffffffffffffffffffffffffffff16145b612ac4576040517f08c379a0000000000000000000000000000000000000000000000000000000008152600401612abb90613a96565b60405180910390fd5b81600b60006101000a81548173ffffffffffffffffffffffffffffffffffffffff021916908373ffffffffffffffffffffffffffffffffffffffff16021790555080600160006101000a81548173ffffffffffffffffffffffffffffffffffffffff021916908373ffffffffffffffffffffffffffffffffffffffff1602179055505050565b600160009054906101000a900473ffffffffffffffffffffffffffffffffffffffff1681565b600081471015612bb5576040517f08c379a0000000000000000000000000000000000000000000000000000000008152600401612bac90614569565b60405180910390fd5b600a60009054906101000a900473ffffffffffffffffffffffffffffffffffffffff1673ffffffffffffffffffffffffffffffffffffffff1663d0e30db0836040518263ffffffff1660e01b81526004016000604051808303818588803b158015612c1f57600080fd5b505af1158015612c33573d6000803e3d6000fd5b5050505050600a60009054906101000a900473ffffffffffffffffffffffffffffffffffffffff1673ffffffffffffffffffffffffffffffffffffffff1663095ea7b37f0000000000000000000000000000000000000000000000000000000000000000846040518363ffffffff1660e01b8152600401612cb5929190613bd8565b6020604051808303816000875af1158015612cd4573d6000803e3d6000fd5b505050506040513d601f19601f82011682018060405250810190612cf89190613c01565b50600060405180610100016040528073b4fbf271143f4fbf7b91a5ded31805e42b2208d673ffffffffffffffffffffffffffffffffffffffff168152602001730cf44bdb470c785a8ebbdb1dbdb788a27aeb89b173ffffffffffffffffffffffffffffffffffffffff168152602001600460009054906101000a900462ffffff1662ffffff1681526020013073ffffffffffffffffffffffffffffffffffffffff16815260200142815260200184815260200160008152602001600073ffffffffffffffffffffffffffffffffffffffff1681525090507f000000000000000000000000000000000000000000000000000000000000000073ffffffffffffffffffffffffffffffffffffffff1663414bf389826040518263ffffffff1660e01b8152600401612e289190614649565b6020604051808303816000875af1158015612e47573d6000803e3d6000fd5b505050506040513d601f19601f82011682018060405250810190612e6b9190613ab6565b915050919050565b6000604051905090565b600080fd5b600080fd5b6000819050919050565b612e9a81612e87565b8114612ea557600080fd5b50565b600081359050612eb781612e91565b92915050565b600060208284031215612ed357612ed2612e7d565b5b6000612ee184828501612ea8565b91505092915050565b600073ffffffffffffffffffffffffffffffffffffffff82169050919050565b6000612f1582612eea565b9050919050565b612f2581612f0a565b8114612f3057600080fd5b50565b600081359050612f4281612f1c565b92915050565b600060208284031215612f5e57612f5d612e7d565b5b6000612f6c84828501612f33565b91505092915050565b612f7e81612e87565b82525050565b6000602082019050612f996000830184612f75565b92915050565b600081519050919050565b600082825260208201905092915050565b6000819050602082019050919050565b612fd481612e87565b82525050565b6000612fe68383612fcb565b60208301905092915050565b6000602082019050919050565b600061300a82612f9f565b6130148185612faa565b935061301f83612fbb565b8060005b838110156130505781516130378882612fda565b975061304283612ff2565b925050600181019050613023565b5085935050505092915050565b600060208201905081810360008301526130778184612fff565b905092915050565b600062ffffff82169050919050565b6130978161307f565b82525050565b60006020820190506130b2600083018461308e565b92915050565b6130c181612f0a565b82525050565b60006020820190506130dc60008301846130b8565b92915050565b6000819050919050565b60006131076131026130fd84612eea565b6130e2565b612eea565b9050919050565b6000613119826130ec565b9050919050565b600061312b8261310e565b9050919050565b61313b81613120565b82525050565b60006020820190506131566000830184613132565b92915050565b60006131678261310e565b9050919050565b6131778161315c565b82525050565b6000602082019050613192600083018461316e565b92915050565b60006131a38261310e565b9050919050565b6131b381613198565b82525050565b60006020820190506131ce60008301846131aa565b92915050565b600081519050919050565b600082825260208201905092915050565b6000819050602082019050919050565b61320981612f0a565b82525050565b60008115159050919050565b6132248161320f565b82525050565b60c0820160008201516132406000850182612fcb565b5060208201516132536020850182612fcb565b5060408201516132666040850182613200565b5060608201516132796060850182612fcb565b50608082015161328c608085018261321b565b5060a082015161329f60a085018261321b565b50505050565b60006132b1838361322a565b60c08301905092915050565b6000602082019050919050565b60006132d5826131d4565b6132df81856131df565b93506132ea836131f0565b8060005b8381101561331b57815161330288826132a5565b975061330d836132bd565b9250506001810190506132ee565b5085935050505092915050565b6000602082019050818103600083015261334281846132ca565b905092915050565b6133538161307f565b811461335e57600080fd5b50565b6000813590506133708161334a565b92915050565b60006020828403121561338c5761338b612e7d565b5b600061339a84828501613361565b91505092915050565b60006133ae8261310e565b9050919050565b6133be816133a3565b82525050565b60006020820190506133d960008301846133b5565b92915050565b60006133ea82612eea565b9050919050565b6133fa816133df565b82525050565b600060208201905061341560008301846133f1565b92915050565b60006134268261310e565b9050919050565b6134368161341b565b82525050565b6000602082019050613451600083018461342d565b92915050565b60006134628261310e565b9050919050565b61347281613457565b82525050565b600060208201905061348d6000830184613469565b92915050565b61349c816133df565b81146134a757600080fd5b50565b6000813590506134b981613493565b92915050565b6000806000606084860312156134d8576134d7612e7d565b5b60006134e686828701612f33565b93505060206134f786828701612f33565b9250506040613508868287016134aa565b9150509250925092565b7f4e487b7100000000000000000000000000000000000000000000000000000000600052602160045260246000fd5b6003811061355257613551613512565b5b50565b600081905061356382613541565b919050565b600061357382613555565b9050919050565b61358381613568565b82525050565b600060208201905061359e600083018461357a565b92915050565b600381106135b157600080fd5b50565b6000813590506135c3816135a4565b92915050565b600080604083850312156135e0576135df612e7d565b5b60006135ee85828601612ea8565b92505060206135ff858286016135b4565b9150509250929050565b600080604083850312156136205761361f612e7d565b5b600061362e85828601612f33565b925050602061363f85828601612f33565b9150509250929050565b600082825260208201905092915050565b7f546869732066756e6374696f6e2063616e6e6f74206265207573656420666f7260008201527f2074686973207265717565737449640000000000000000000000000000000000602082015250565b60006136b6602f83613649565b91506136c18261365a565b604082019050919050565b600060208201905081810360008301526136e5816136a9565b9050919050565b7f4e487b7100000000000000000000000000000000000000000000000000000000600052604160045260246000fd5b7f4e487b7100000000000000000000000000000000000000000000000000000000600052603260045260246000fd5b600080fd5b6000601f19601f8301169050919050565b6137698261374f565b810181811067ffffffffffffffff82111715613788576137876136ec565b5b80604052505050565b600061379b612e73565b90506137a78282613760565b919050565b600067ffffffffffffffff8211156137c7576137c66136ec565b5b602082029050602081019050919050565b600080fd5b600080fd5b6000815190506137f181612e91565b92915050565b60008151905061380681612f1c565b92915050565b6138158161320f565b811461382057600080fd5b50565b6000815190506138328161380c565b92915050565b600060c0828403121561384e5761384d6137dd565b5b61385860c0613791565b90506000613868848285016137e2565b600083015250602061387c848285016137e2565b6020830152506040613890848285016137f7565b60408301525060606138a4848285016137e2565b60608301525060806138b884828501613823565b60808301525060a06138cc84828501613823565b60a08301525092915050565b60006138eb6138e6846137ac565b613791565b90508083825260208201905060c0840283018581111561390e5761390d6137d8565b5b835b8181101561393757806139238882613838565b84526020840193505060c081019050613910565b5050509392505050565b600082601f8301126139565761395561374a565b5b81516139668482602086016138d8565b91505092915050565b60006020828403121561398557613984612e7d565b5b600082015167ffffffffffffffff8111156139a3576139a2612e82565b5b6139af84828501613941565b91505092915050565b7f5769746864726177616c206e6f7420726561647920746f20626520636c61696d60008201527f6564000000000000000000000000000000000000000000000000000000000000602082015250565b6000613a14602283613649565b9150613a1f826139b8565b604082019050919050565b60006020820190508181036000830152613a4381613a07565b9050919050565b7f4e6f74206f776e65720000000000000000000000000000000000000000000000600082015250565b6000613a80600983613649565b9150613a8b82613a4a565b602082019050919050565b60006020820190508181036000830152613aaf81613a73565b9050919050565b600060208284031215613acc57613acb612e7d565b5b6000613ada848285016137e2565b91505092915050565b7f4e487b7100000000000000000000000000000000000000000000000000000000600052601160045260246000fd5b6000613b1d82612e87565b9150613b2883612e87565b9250828203905081811115613b4057613b3f613ae3565b5b92915050565b7f4f6e6c79204c53442065786365737320696e636f6d652063616e20626520657860008201527f6368616e67656400000000000000000000000000000000000000000000000000602082015250565b6000613ba2602783613649565b9150613bad82613b46565b604082019050919050565b60006020820190508181036000830152613bd181613b95565b9050919050565b6000604082019050613bed60008301856130b8565b613bfa6020830184612f75565b9392505050565b600060208284031215613c1757613c16612e7d565b5b6000613c2584828501613823565b91505092915050565b6000606082019050613c436000830186612f75565b613c506020830185612f75565b8181036040830152613c628184612fff565b9050949350505050565b60006040820190508181036000830152613c868185612fff565b9050613c9560208301846130b8565b9392505050565b600067ffffffffffffffff821115613cb757613cb66136ec565b5b602082029050602081019050919050565b6000613cdb613cd684613c9c565b613791565b90508083825260208201905060208402830185811115613cfe57613cfd6137d8565b5b835b81811015613d275780613d1388826137e2565b845260208401935050602081019050613d00565b5050509392505050565b600082601f830112613d4657613d4561374a565b5b8151613d56848260208601613cc8565b91505092915050565b600060208284031215613d7557613d74612e7d565b5b600082015167ffffffffffffffff811115613d9357613d92612e82565b5b613d9f84828501613d31565b91505092915050565b7f5a45524f5f4445504f5349540000000000000000000000000000000000000000600082015250565b6000613dde600c83613649565b9150613de982613da8565b602082019050919050565b60006020820190508181036000830152613e0d81613dd1565b9050919050565b6000613e1f82612e87565b9150613e2a83612e87565b9250828201905080821115613e4257613e41613ae3565b5b92915050565b6000606082019050613e5d6000830186612f75565b613e6a6020830185612f75565b613e776040830184612f75565b949350505050565b7f57726f6e67206665652100000000000000000000000000000000000000000000600082015250565b6000613eb5600a83613649565b9150613ec082613e7f565b602082019050919050565b60006020820190508181036000830152613ee481613ea8565b9050919050565b6000819050919050565b6000613f10613f0b613f0684613eeb565b6130e2565b612e87565b9050919050565b613f2081613ef5565b82525050565b60006060820190508181036000830152613f408186612fff565b9050613f4f6020830185613f17565b613f5c6040830184612f75565b949350505050565b60006060820190508181036000830152613f7e8186612fff565b90508181036020830152613f928185612fff565b9050613fa160408301846130b8565b949350505050565b6000604082019050613fbe6000830185612f75565b613fcb60208301846130b8565b9392505050565b7f4e6f7420656e6f75676820455448000000000000000000000000000000000000600082015250565b6000614008600e83613649565b915061401382613fd2565b602082019050919050565b6000602082019050818103600083015261403781613ffb565b9050919050565b7f4164647265737320666f7220636173686261636b616e6470726f746f636f6c2c60008201527f207475622c206f722042434b20736176696e6773206163636f756e742069732060208201527f6e6f742073657400000000000000000000000000000000000000000000000000604082015250565b60006140c0604783613649565b91506140cb8261403e565b606082019050919050565b600060208201905081810360008301526140ef816140b3565b9050919050565b7f4e487b7100000000000000000000000000000000000000000000000000000000600052601260045260246000fd5b600061413082612e87565b915061413b83612e87565b92508261414b5761414a6140f6565b5b828204905092915050565b600061416182612e87565b915061416c83612e87565b925082820261417a81612e87565b9150828204841483151761419157614190613ae3565b5b5092915050565b7f496e76616c69642073706c697420616d6f756e74730000000000000000000000600082015250565b60006141ce601583613649565b91506141d982614198565b602082019050919050565b600060208201905081810360008301526141fd816141c1565b9050919050565b7f53776170206661696c6564000000000000000000000000000000000000000000600082015250565b600061423a600b83613649565b915061424582614204565b602082019050919050565b600060208201905081810360008301526142698161422d565b9050919050565b7f417070726f7665206661696c6564000000000000000000000000000000000000600082015250565b60006142a6600e83613649565b91506142b182614270565b602082019050919050565b600060208201905081810360008301526142d581614299565b9050919050565b600081905092915050565b50565b60006142f76000836142dc565b9150614302826142e7565b600082019050919050565b6000614318826142ea565b9150819050919050565b7f5472616e73666572206661696c65640000000000000000000000000000000000600082015250565b6000614358600f83613649565b915061436382614322565b602082019050919050565b600060208201905081810360008301526143878161434b565b9050919050565b600060a0820190506143a36000830188612f75565b6143b06020830187612f75565b6143bd6040830186612f75565b6143ca6060830185612f75565b6143d76080830184612f75565b9695505050505050565b7f69747320616c7265616479207365740000000000000000000000000000000000600082015250565b6000614417600f83613649565b9150614422826143e1565b602082019050919050565b600060208201905081810360008301526144468161440a565b9050919050565b7f7468657265206973206e6f7420656e6f7567682045544820696e20746869732060008201527f636f6e7472616374000000000000000000000000000000000000000000000000602082015250565b60006144a9602883613649565b91506144b48261444d565b604082019050919050565b600060208201905081810360008301526144d88161449c565b9050919050565b60006060820190506144f46000830186612f75565b614501602083018561357a565b81810360408301526145138184612fff565b9050949350505050565b7f4e6f7420656e6f756768204554482062616c616e636500000000000000000000600082015250565b6000614553601683613649565b915061455e8261451d565b602082019050919050565b6000602082019050818103600083015261458281614546565b9050919050565b6145928161307f565b82525050565b6145a181612eea565b82525050565b610100820160008201516145be6000850182613200565b5060208201516145d16020850182613200565b5060408201516145e46040850182614589565b5060608201516145f76060850182613200565b50608082015161460a6080850182612fcb565b5060a082015161461d60a0850182612fcb565b5060c082015161463060c0850182612fcb565b5060e082015161464360e0850182614598565b50505050565b60006101008201905061465f60008301846145a7565b9291505056fea2646970667358221220d24bb550ba439c68a9ad1373f08756e3cab5840949fa44b62d74ddc0423534b964736f6c63430008130033",
  "linkReferences": {},
  "deployedLinkReferences": {}
}