{
    "_format": "hh-sol-artifact-1",
    "contractName": "TokenPriceInUSD",
    "sourceName": "contracts/OrcaleMain.sol",
    "abi": [
        {
            "inputs": [
                {
                    "internalType": "address",
                    "name": "_uniswapTwap",
                    "type": "address"
                },
                {
                    "internalType": "address",
                    "name": "_chainlinkOracle",
                    "type": "address"
                },
                {
                    "internalType": "address",
                    "name": "_dsValue",
                    "type": "address"
                }
            ],
            "stateMutability": "nonpayable",
            "type": "constructor"
        },
        {
            "inputs": [],
            "name": "chainlinkOracle",
            "outputs": [
                {
                    "internalType": "contract ITestChainlink",
                    "name": "",
                    "type": "address"
                }
            ],
            "stateMutability": "view",
            "type": "function"
        },
        {
            "inputs": [],
            "name": "defaultAmountIn",
            "outputs": [
                {
                    "internalType": "uint128",
                    "name": "",
                    "type": "uint128"
                }
            ],
            "stateMutability": "view",
            "type": "function"
        },
        {
            "inputs": [],
            "name": "defaultSecondsAgo",
            "outputs": [
                {
                    "internalType": "uint32",
                    "name": "",
                    "type": "uint32"
                }
            ],
            "stateMutability": "view",
            "type": "function"
        },
        {
            "inputs": [],
            "name": "dsValue",
            "outputs": [
                {
                    "internalType": "contract IDSValue",
                    "name": "",
                    "type": "address"
                }
            ],
            "stateMutability": "view",
            "type": "function"
        },
        {
            "inputs": [],
            "name": "owner",
            "outputs": [
                {
                    "internalType": "address",
                    "name": "",
                    "type": "address"
                }
            ],
            "stateMutability": "view",
            "type": "function"
        },
        {
            "inputs": [
                {
                    "internalType": "uint128",
                    "name": "newAmountIn",
                    "type": "uint128"
                },
                {
                    "internalType": "uint32",
                    "name": "newSecondsAgo",
                    "type": "uint32"
                }
            ],
            "name": "setDefaults",
            "outputs": [],
            "stateMutability": "nonpayable",
            "type": "function"
        },
        {
            "inputs": [],
            "name": "uniswapTwap",
            "outputs": [
                {
                    "internalType": "contract IUniswapV3Twap",
                    "name": "",
                    "type": "address"
                }
            ],
            "stateMutability": "view",
            "type": "function"
        },
        {
            "inputs": [],
            "name": "updateDSValuePrice",
            "outputs": [
                {
                    "internalType": "bytes32",
                    "name": "",
                    "type": "bytes32"
                }
            ],
            "stateMutability": "nonpayable",
            "type": "function"
        }
    ],
    "bytecode": "0x6080604052670de0b6b3a7640000600460006101000a8154816fffffffffffffffffffffffffffffffff02191690836fffffffffffffffffffffffffffffffff1602179055506005600460106101000a81548163ffffffff021916908363ffffffff16021790555034801561007357600080fd5b50604051610e22380380610e2283398181016040528101906100959190610203565b826000806101000a81548173ffffffffffffffffffffffffffffffffffffffff021916908373ffffffffffffffffffffffffffffffffffffffff16021790555081600160006101000a81548173ffffffffffffffffffffffffffffffffffffffff021916908373ffffffffffffffffffffffffffffffffffffffff16021790555080600260006101000a81548173ffffffffffffffffffffffffffffffffffffffff021916908373ffffffffffffffffffffffffffffffffffffffff16021790555033600360006101000a81548173ffffffffffffffffffffffffffffffffffffffff021916908373ffffffffffffffffffffffffffffffffffffffff160217905550505050610256565b600080fd5b600073ffffffffffffffffffffffffffffffffffffffff82169050919050565b60006101d0826101a5565b9050919050565b6101e0816101c5565b81146101eb57600080fd5b50565b6000815190506101fd816101d7565b92915050565b60008060006060848603121561021c5761021b6101a0565b5b600061022a868287016101ee565b935050602061023b868287016101ee565b925050604061024c868287016101ee565b9150509250925092565b610bbd806102656000396000f3fe608060405234801561001057600080fd5b50600436106100885760003560e01c80638da5cb5b1161005b5780638da5cb5b14610103578063d2d1b42614610121578063d4ef17221461013f578063ef06e72c1461015d57610088565b8063103f63231461008d578063263d19b7146100ab5780634d9ab08e146100c95780638a797aec146100e5575b600080fd5b61009561017b565b6040516100a291906106b7565b60405180910390f35b6100b36101a1565b6040516100c091906106f1565b60405180910390f35b6100e360048036038101906100de9190610785565b6101b7565b005b6100ed6102a5565b6040516100fa91906107de565b60405180910390f35b61010b610378565b604051610118919061081a565b60405180910390f35b61012961039e565b6040516101369190610856565b60405180910390f35b6101476103c2565b6040516101549190610880565b60405180910390f35b6101656103e4565b60405161017291906108bc565b60405180910390f35b600260009054906101000a900473ffffffffffffffffffffffffffffffffffffffff1681565b600460109054906101000a900463ffffffff1681565b600360009054906101000a900473ffffffffffffffffffffffffffffffffffffffff1673ffffffffffffffffffffffffffffffffffffffff163373ffffffffffffffffffffffffffffffffffffffff1614610247576040517f08c379a000000000000000000000000000000000000000000000000000000000815260040161023e90610934565b60405180910390fd5b81600460006101000a8154816fffffffffffffffffffffffffffffffff02191690836fffffffffffffffffffffffffffffffff16021790555080600460106101000a81548163ffffffff021916908363ffffffff1602179055505050565b6000806102e2600460009054906101000a90046fffffffffffffffffffffffffffffffff16600460109054906101000a900463ffffffff1661040a565b9050600260009054906101000a900473ffffffffffffffffffffffffffffffffffffffff1673ffffffffffffffffffffffffffffffffffffffff16631504460f826040518263ffffffff1660e01b815260040161033f91906107de565b600060405180830381600087803b15801561035957600080fd5b505af115801561036d573d6000803e3d6000fd5b505050508091505090565b600360009054906101000a900473ffffffffffffffffffffffffffffffffffffffff1681565b60008054906101000a900473ffffffffffffffffffffffffffffffffffffffff1681565b600460009054906101000a90046fffffffffffffffffffffffffffffffff1681565b600160009054906101000a900473ffffffffffffffffffffffffffffffffffffffff1681565b60008060008054906101000a900473ffffffffffffffffffffffffffffffffffffffff1673ffffffffffffffffffffffffffffffffffffffff16638f2e819960008054906101000a900473ffffffffffffffffffffffffffffffffffffffff1673ffffffffffffffffffffffffffffffffffffffff16630dfe16816040518163ffffffff1660e01b8152600401602060405180830381865afa1580156104b4573d6000803e3d6000fd5b505050506040513d601f19601f820116820180604052508101906104d89190610980565b86866040518463ffffffff1660e01b81526004016104f8939291906109ad565b602060405180830381865afa158015610515573d6000803e3d6000fd5b505050506040513d601f19601f820116820180604052508101906105399190610a1a565b90506000600160009054906101000a900473ffffffffffffffffffffffffffffffffffffffff1673ffffffffffffffffffffffffffffffffffffffff16638e15f4736040518163ffffffff1660e01b8152600401602060405180830381865afa1580156105aa573d6000803e3d6000fd5b505050506040513d601f19601f820116820180604052508101906105ce9190610a7d565b905060008113610613576040517f08c379a000000000000000000000000000000000000000000000000000000000815260040161060a90610af6565b60405180910390fd5b600081836106219190610b45565b905060008160001b90508094505050505092915050565b600073ffffffffffffffffffffffffffffffffffffffff82169050919050565b6000819050919050565b600061067d61067861067384610638565b610658565b610638565b9050919050565b600061068f82610662565b9050919050565b60006106a182610684565b9050919050565b6106b181610696565b82525050565b60006020820190506106cc60008301846106a8565b92915050565b600063ffffffff82169050919050565b6106eb816106d2565b82525050565b600060208201905061070660008301846106e2565b92915050565b600080fd5b60006fffffffffffffffffffffffffffffffff82169050919050565b61073681610711565b811461074157600080fd5b50565b6000813590506107538161072d565b92915050565b610762816106d2565b811461076d57600080fd5b50565b60008135905061077f81610759565b92915050565b6000806040838503121561079c5761079b61070c565b5b60006107aa85828601610744565b92505060206107bb85828601610770565b9150509250929050565b6000819050919050565b6107d8816107c5565b82525050565b60006020820190506107f360008301846107cf565b92915050565b600061080482610638565b9050919050565b610814816107f9565b82525050565b600060208201905061082f600083018461080b565b92915050565b600061084082610684565b9050919050565b61085081610835565b82525050565b600060208201905061086b6000830184610847565b92915050565b61087a81610711565b82525050565b60006020820190506108956000830184610871565b92915050565b60006108a682610684565b9050919050565b6108b68161089b565b82525050565b60006020820190506108d160008301846108ad565b92915050565b600082825260208201905092915050565b7f4e6f74206f776e65720000000000000000000000000000000000000000000000600082015250565b600061091e6009836108d7565b9150610929826108e8565b602082019050919050565b6000602082019050818103600083015261094d81610911565b9050919050565b61095d816107f9565b811461096857600080fd5b50565b60008151905061097a81610954565b92915050565b6000602082840312156109965761099561070c565b5b60006109a48482850161096b565b91505092915050565b60006060820190506109c2600083018661080b565b6109cf6020830185610871565b6109dc60408301846106e2565b949350505050565b6000819050919050565b6109f7816109e4565b8114610a0257600080fd5b50565b600081519050610a14816109ee565b92915050565b600060208284031215610a3057610a2f61070c565b5b6000610a3e84828501610a05565b91505092915050565b6000819050919050565b610a5a81610a47565b8114610a6557600080fd5b50565b600081519050610a7781610a51565b92915050565b600060208284031215610a9357610a9261070c565b5b6000610aa184828501610a68565b91505092915050565b7f496e76616c696420455448207072696365000000000000000000000000000000600082015250565b6000610ae06011836108d7565b9150610aeb82610aaa565b602082019050919050565b60006020820190508181036000830152610b0f81610ad3565b9050919050565b7f4e487b7100000000000000000000000000000000000000000000000000000000600052601160045260246000fd5b6000610b50826109e4565b9150610b5b836109e4565b9250828202610b69816109e4565b91508282048414831517610b8057610b7f610b16565b5b509291505056fea26469706673582212202bf034414b025de231bb0fbb805240e81bb7e487ea5e7dd9d1643ac89e3ef99364736f6c63430008130033",
    "linkReferences": {},
    "deployedLinkReferences": {}
}