{
  "_format": "hh-sol-artifact-1",
  "contractName": "Reserve",
  "sourceName": "contracts/Reserve.sol",
  "abi": [
    {
      "inputs": [
        {
          "internalType": "address",
          "name": "_governanceToken",
          "type": "address"
        }
      ],
      "stateMutability": "nonpayable",
      "type": "constructor"
    },
    {
      "anonymous": false,
      "inputs": [
        {
          "indexed": false,
          "internalType": "uint256",
          "name": "proposalId",
          "type": "uint256"
        },
        {
          "indexed": false,
          "internalType": "enum Reserve.ProposalType",
          "name": "proposalType",
          "type": "uint8"
        },
        {
          "indexed": false,
          "internalType": "address",
          "name": "proposedBy",
          "type": "address"
        },
        {
          "indexed": false,
          "internalType": "uint256",
          "name": "value",
          "type": "uint256"
        }
      ],
      "name": "ProposalCreated",
      "type": "event"
    },
    {
      "anonymous": false,
      "inputs": [
        {
          "indexed": false,
          "internalType": "uint256",
          "name": "proposalId",
          "type": "uint256"
        }
      ],
      "name": "ProposalExecuted",
      "type": "event"
    },
    {
      "anonymous": false,
      "inputs": [
        {
          "indexed": true,
          "internalType": "address",
          "name": "to",
          "type": "address"
        },
        {
          "indexed": false,
          "internalType": "uint256",
          "name": "amount",
          "type": "uint256"
        }
      ],
      "name": "ReserveWithdrawn",
      "type": "event"
    },
    {
      "anonymous": false,
      "inputs": [
        {
          "indexed": false,
          "internalType": "address",
          "name": "voter",
          "type": "address"
        },
        {
          "indexed": false,
          "internalType": "uint256",
          "name": "proposalId",
          "type": "uint256"
        },
        {
          "indexed": false,
          "internalType": "uint256",
          "name": "weight",
          "type": "uint256"
        }
      ],
      "name": "VoteCast",
      "type": "event"
    },
    {
      "inputs": [],
      "name": "DAOwallet",
      "outputs": [
        {
          "internalType": "address",
          "name": "",
          "type": "address"
        }
      ],
      "stateMutability": "view",
      "type": "function"
    },
    {
      "inputs": [],
      "name": "allowedWithdrawer",
      "outputs": [
        {
          "internalType": "address",
          "name": "",
          "type": "address"
        }
      ],
      "stateMutability": "view",
      "type": "function"
    },
    {
      "inputs": [
        {
          "internalType": "uint256",
          "name": "proposalId",
          "type": "uint256"
        }
      ],
      "name": "approveChange",
      "outputs": [],
      "stateMutability": "nonpayable",
      "type": "function"
    },
    {
      "inputs": [
        {
          "internalType": "address",
          "name": "account",
          "type": "address"
        },
        {
          "internalType": "uint256",
          "name": "blockNumber",
          "type": "uint256"
        }
      ],
      "name": "balanceOfAt",
      "outputs": [
        {
          "internalType": "uint256",
          "name": "",
          "type": "uint256"
        }
      ],
      "stateMutability": "view",
      "type": "function"
    },
    {
      "inputs": [
        {
          "internalType": "address",
          "name": "",
          "type": "address"
        },
        {
          "internalType": "uint256",
          "name": "",
          "type": "uint256"
        }
      ],
      "name": "checkpoints",
      "outputs": [
        {
          "internalType": "uint256",
          "name": "fromBlock",
          "type": "uint256"
        },
        {
          "internalType": "uint256",
          "name": "value",
          "type": "uint256"
        }
      ],
      "stateMutability": "view",
      "type": "function"
    },
    {
      "inputs": [],
      "name": "delegate",
      "outputs": [],
      "stateMutability": "nonpayable",
      "type": "function"
    },
    {
      "inputs": [
        {
          "internalType": "uint256",
          "name": "proposalId",
          "type": "uint256"
        }
      ],
      "name": "executeChange",
      "outputs": [],
      "stateMutability": "nonpayable",
      "type": "function"
    },
    {
      "inputs": [],
      "name": "governanceToken",
      "outputs": [
        {
          "internalType": "contract IERC20",
          "name": "",
          "type": "address"
        }
      ],
      "stateMutability": "view",
      "type": "function"
    },
    {
      "inputs": [
        {
          "internalType": "address",
          "name": "",
          "type": "address"
        }
      ],
      "name": "lastDelegatedBalance",
      "outputs": [
        {
          "internalType": "uint256",
          "name": "",
          "type": "uint256"
        }
      ],
      "stateMutability": "view",
      "type": "function"
    },
    {
      "inputs": [],
      "name": "lidoVault",
      "outputs": [
        {
          "internalType": "contract BoundFinanceLidoVault",
          "name": "",
          "type": "address"
        }
      ],
      "stateMutability": "view",
      "type": "function"
    },
    {
      "inputs": [],
      "name": "minimumApprovalsPercentage",
      "outputs": [
        {
          "internalType": "uint256",
          "name": "",
          "type": "uint256"
        }
      ],
      "stateMutability": "view",
      "type": "function"
    },
    {
      "inputs": [],
      "name": "owner",
      "outputs": [
        {
          "internalType": "address",
          "name": "",
          "type": "address"
        }
      ],
      "stateMutability": "view",
      "type": "function"
    },
    {
      "inputs": [],
      "name": "proposalCount",
      "outputs": [
        {
          "internalType": "uint256",
          "name": "",
          "type": "uint256"
        }
      ],
      "stateMutability": "view",
      "type": "function"
    },
    {
      "inputs": [
        {
          "internalType": "uint256",
          "name": "",
          "type": "uint256"
        }
      ],
      "name": "proposals",
      "outputs": [
        {
          "internalType": "enum Reserve.ProposalType",
          "name": "proposalType",
          "type": "uint8"
        },
        {
          "internalType": "address",
          "name": "proposedBy",
          "type": "address"
        },
        {
          "internalType": "uint256",
          "name": "value",
          "type": "uint256"
        },
        {
          "internalType": "address",
          "name": "to",
          "type": "address"
        },
        {
          "internalType": "uint256",
          "name": "approvalWeight",
          "type": "uint256"
        },
        {
          "internalType": "bool",
          "name": "executed",
          "type": "bool"
        },
        {
          "internalType": "uint256",
          "name": "snapshotBlock",
          "type": "uint256"
        }
      ],
      "stateMutability": "view",
      "type": "function"
    },
    {
      "inputs": [
        {
          "internalType": "enum Reserve.ProposalType",
          "name": "proposalType",
          "type": "uint8"
        },
        {
          "internalType": "uint256",
          "name": "value",
          "type": "uint256"
        }
      ],
      "name": "proposeChange",
      "outputs": [
        {
          "internalType": "uint256",
          "name": "",
          "type": "uint256"
        }
      ],
      "stateMutability": "nonpayable",
      "type": "function"
    },
    {
      "inputs": [
        {
          "internalType": "address",
          "name": "_allowedWithdrawer",
          "type": "address"
        }
      ],
      "name": "setAllowedWithdrawer",
      "outputs": [],
      "stateMutability": "nonpayable",
      "type": "function"
    },
    {
      "inputs": [
        {
          "internalType": "address",
          "name": "_daoWallet",
          "type": "address"
        }
      ],
      "name": "setDaoWallet",
      "outputs": [],
      "stateMutability": "nonpayable",
      "type": "function"
    },
    {
      "inputs": [
        {
          "internalType": "address",
          "name": "_lidoVaultAddress",
          "type": "address"
        }
      ],
      "name": "setLidoVaultAddress",
      "outputs": [],
      "stateMutability": "nonpayable",
      "type": "function"
    },
    {
      "inputs": [
        {
          "internalType": "uint256",
          "name": "",
          "type": "uint256"
        },
        {
          "internalType": "address",
          "name": "",
          "type": "address"
        }
      ],
      "name": "votes",
      "outputs": [
        {
          "internalType": "bool",
          "name": "",
          "type": "bool"
        }
      ],
      "stateMutability": "view",
      "type": "function"
    },
    {
      "inputs": [
        {
          "internalType": "address payable",
          "name": "_to",
          "type": "address"
        },
        {
          "internalType": "uint256",
          "name": "_amount",
          "type": "uint256"
        }
      ],
      "name": "withdrawReserve",
      "outputs": [],
      "stateMutability": "nonpayable",
      "type": "function"
    },
    {
      "inputs": [],
      "name": "withdrawerSet",
      "outputs": [
        {
          "internalType": "bool",
          "name": "",
          "type": "bool"
        }
      ],
      "stateMutability": "view",
      "type": "function"
    },
    {
      "stateMutability": "payable",
      "type": "receive"
    }
  ],
  "bytecode": "0x60806040523480156200001157600080fd5b506040516200253b3803806200253b8339818101604052810190620000379190620001c7565b6001600081905550600073ffffffffffffffffffffffffffffffffffffffff168173ffffffffffffffffffffffffffffffffffffffff1603620000b1576040517f08c379a0000000000000000000000000000000000000000000000000000000008152600401620000a8906200025a565b60405180910390fd5b33600560006101000a81548173ffffffffffffffffffffffffffffffffffffffff021916908373ffffffffffffffffffffffffffffffffffffffff16021790555080600660006101000a81548173ffffffffffffffffffffffffffffffffffffffff021916908373ffffffffffffffffffffffffffffffffffffffff1602179055506064600a819055506000600b60006101000a81548160ff021916908315150217905550506200027c565b600080fd5b600073ffffffffffffffffffffffffffffffffffffffff82169050919050565b60006200018f8262000162565b9050919050565b620001a18162000182565b8114620001ad57600080fd5b50565b600081519050620001c18162000196565b92915050565b600060208284031215620001e057620001df6200015d565b5b6000620001f084828501620001b0565b91505092915050565b600082825260208201905092915050565b7f496e76616c696420676f7665726e616e636520746f6b656e2061646472657373600082015250565b600062000242602083620001f9565b91506200024f826200020a565b602082019050919050565b60006020820190508181036000830152620002758162000233565b9050919050565b6122af806200028c6000396000f3fe60806040526004361061012e5760003560e01c806364997e01116100ab578063c89e43611161006f578063c89e436114610404578063cc4ba14e1461041b578063d23254b414610444578063da35c66414610481578063dfe82d57146104ac578063f96dae0a146104e957610135565b806364997e0114610331578063805539ca1461035a5780638da5cb5b1461038557806399ebb6cc146103b0578063afa4b0d5146103d957610135565b80631c58ce14116100f25780631c58ce141461023a57806335e3aa21146102635780634c9a6cf41461028c5780634ee2cd7e146102b757806357e87229146102f457610135565b8063013cf08b1461013a5780630cdfebfa1461017d5780630d03c268146101bb578063143486ce146101e6578063196fe7b11461021157610135565b3661013557005b600080fd5b34801561014657600080fd5b50610161600480360381019061015c9190611898565b610514565b60405161017497969594939291906119a7565b60405180910390f35b34801561018957600080fd5b506101a4600480360381019061019f9190611a42565b6105b0565b6040516101b2929190611a82565b60405180910390f35b3480156101c757600080fd5b506101d06105f1565b6040516101dd9190611aab565b60405180910390f35b3480156101f257600080fd5b506101fb610617565b6040516102089190611ac6565b60405180910390f35b34801561021d57600080fd5b5061023860048036038101906102339190611898565b61061d565b005b34801561024657600080fd5b50610261600480360381019061025c9190611b1f565b610a91565b005b34801561026f57600080fd5b5061028a60048036038101906102859190611898565b610b91565b005b34801561029857600080fd5b506102a1610e19565b6040516102ae9190611bbe565b60405180910390f35b3480156102c357600080fd5b506102de60048036038101906102d99190611a42565b610e3f565b6040516102eb9190611ac6565b60405180910390f35b34801561030057600080fd5b5061031b60048036038101906103169190611bfe565b61105c565b6040516103289190611ac6565b60405180910390f35b34801561033d57600080fd5b5061035860048036038101906103539190611c3e565b611202565b005b34801561036657600080fd5b5061036f61130f565b60405161037c9190611aab565b60405180910390f35b34801561039157600080fd5b5061039a611335565b6040516103a79190611aab565b60405180910390f35b3480156103bc57600080fd5b506103d760048036038101906103d29190611c3e565b61135b565b005b3480156103e557600080fd5b506103ee611468565b6040516103fb9190611c6b565b60405180910390f35b34801561041057600080fd5b5061041961147b565b005b34801561042757600080fd5b50610442600480360381019061043d9190611c3e565b611685565b005b34801561045057600080fd5b5061046b60048036038101906104669190611c86565b611791565b6040516104789190611c6b565b60405180910390f35b34801561048d57600080fd5b506104966117c0565b6040516104a39190611ac6565b60405180910390f35b3480156104b857600080fd5b506104d360048036038101906104ce9190611c3e565b6117c6565b6040516104e09190611ac6565b60405180910390f35b3480156104f557600080fd5b506104fe6117de565b60405161050b9190611ce7565b60405180910390f35b60046020528060005260406000206000915090508060000160009054906101000a900460ff16908060000160019054906101000a900473ffffffffffffffffffffffffffffffffffffffff16908060010154908060020160009054906101000a900473ffffffffffffffffffffffffffffffffffffffff16908060030154908060040160009054906101000a900460ff16908060050154905087565b600360205281600052604060002081815481106105cc57600080fd5b9060005260206000209060020201600091509150508060000154908060010154905082565b600760009054906101000a900473ffffffffffffffffffffffffffffffffffffffff1681565b600a5481565b600560009054906101000a900473ffffffffffffffffffffffffffffffffffffffff1673ffffffffffffffffffffffffffffffffffffffff163373ffffffffffffffffffffffffffffffffffffffff161461067757600080fd5b61067f611804565b60006004600083815260200190815260200160002090506000612710600a54600660009054906101000a900473ffffffffffffffffffffffffffffffffffffffff1673ffffffffffffffffffffffffffffffffffffffff166318160ddd6040518163ffffffff1660e01b8152600401602060405180830381865afa15801561070b573d6000803e3d6000fd5b505050506040513d601f19601f8201168201806040525081019061072f9190611d17565b6107399190611d73565b6107439190611de4565b9050808260030154101561078c576040517f08c379a000000000000000000000000000000000000000000000000000000000815260040161078390611e72565b60405180910390fd5b8160040160009054906101000a900460ff16156107de576040517f08c379a00000000000000000000000000000000000000000000000000000000081526004016107d590611ede565b60405180910390fd5b60018260040160006101000a81548160ff0219169083151502179055506000600281111561080f5761080e6118c5565b5b8260000160009054906101000a900460ff166002811115610833576108326118c5565b5b036108f357478260010154111561087f576040517f08c379a000000000000000000000000000000000000000000000000000000000815260040161087690611f4a565b60405180910390fd5b8160020160009054906101000a900473ffffffffffffffffffffffffffffffffffffffff1673ffffffffffffffffffffffffffffffffffffffff166108fc83600101549081150290604051600060405180830381858888f193505050501580156108ed573d6000803e3d6000fd5b50610a4d565b60016002811115610907576109066118c5565b5b8260000160009054906101000a900460ff16600281111561092b5761092a6118c5565b5b03610a03574782600101541115610977576040517f08c379a000000000000000000000000000000000000000000000000000000000815260040161096e90611f4a565b60405180910390fd5b600860009054906101000a900473ffffffffffffffffffffffffffffffffffffffff1673ffffffffffffffffffffffffffffffffffffffff16634d441c0183600101546040518263ffffffff1660e01b81526004016000604051808303818588803b1580156109e557600080fd5b505af11580156109f9573d6000803e3d6000fd5b5050505050610a4c565b600280811115610a1657610a156118c5565b5b8260000160009054906101000a900460ff166002811115610a3a57610a396118c5565b5b03610a4b578160010154600a819055505b5b5b7f712ae1383f79ac853f8d882153778e0260ef8f03b504e2866e0593e04d2b291f83604051610a7c9190611ac6565b60405180910390a15050610a8e611853565b50565b600b60019054906101000a900473ffffffffffffffffffffffffffffffffffffffff1673ffffffffffffffffffffffffffffffffffffffff163373ffffffffffffffffffffffffffffffffffffffff1614610aeb57600080fd5b80471015610af857600080fd5b8173ffffffffffffffffffffffffffffffffffffffff166108fc829081150290604051600060405180830381858888f19350505050158015610b3e573d6000803e3d6000fd5b508173ffffffffffffffffffffffffffffffffffffffff167fcf3e2ed8c545de2d902ea60194df2faa514dad26e69937899d836f775b6973a882604051610b859190611ac6565b60405180910390a25050565b6001600082815260200190815260200160002060003373ffffffffffffffffffffffffffffffffffffffff1673ffffffffffffffffffffffffffffffffffffffff16815260200190815260200160002060009054906101000a900460ff1615610c2f576040517f08c379a0000000000000000000000000000000000000000000000000000000008152600401610c2690611fdc565b60405180910390fd5b600033905060006004600084815260200190815260200160002090506000610c5b838360050154610e3f565b905060008111610ca0576040517f08c379a0000000000000000000000000000000000000000000000000000000008152600401610c979061206e565b60405180910390fd5b6000600660009054906101000a900473ffffffffffffffffffffffffffffffffffffffff1673ffffffffffffffffffffffffffffffffffffffff166370a08231336040518263ffffffff1660e01b8152600401610cfd9190611aab565b602060405180830381865afa158015610d1a573d6000803e3d6000fd5b505050506040513d601f19601f82011682018060405250810190610d3e9190611d17565b90506000828210610d4f5782610d51565b815b905080846003016000828254610d67919061208e565b92505081905550600180600088815260200190815260200160002060003373ffffffffffffffffffffffffffffffffffffffff1673ffffffffffffffffffffffffffffffffffffffff16815260200190815260200160002060006101000a81548160ff0219169083151502179055507fb4cfecf70861b7b150d8337780d34fb4cbc2114b5fb1fe51a5c5fca1849f7274338783604051610e09939291906120c2565b60405180910390a1505050505050565b600860009054906101000a900473ffffffffffffffffffffffffffffffffffffffff1681565b600080600360008573ffffffffffffffffffffffffffffffffffffffff1673ffffffffffffffffffffffffffffffffffffffff16815260200190815260200160002090506000818054905003610e99576000915050611056565b8281600081548110610eae57610ead6120f9565b5b9060005260206000209060020201600001541115610ed0576000915050611056565b6000838260018480549050610ee59190612128565b81548110610ef657610ef56120f9565b5b90600052602060002090600202016000015411610f49578160018380549050610f1f9190612128565b81548110610f3057610f2f6120f9565b5b9060005260206000209060020201600101549050610ff7565b600080838054905090505b81811115610fcd576000600260018385610f6e919061208e565b610f78919061208e565b610f829190611de4565b905086858281548110610f9857610f976120f9565b5b90600052602060002090600202016000015411610fb757809250610fc7565b600181610fc49190612128565b91505b50610f54565b838281548110610fe057610fdf6120f9565b5b906000526020600020906002020160010154925050505b6000600260008773ffffffffffffffffffffffffffffffffffffffff1673ffffffffffffffffffffffffffffffffffffffff168152602001908152602001600020549050600081831061104a578161104c565b825b9050809450505050505b92915050565b6000600560009054906101000a900473ffffffffffffffffffffffffffffffffffffffff1673ffffffffffffffffffffffffffffffffffffffff163373ffffffffffffffffffffffffffffffffffffffff16146110b857600080fd5b600060095490506000600460008381526020019081526020016000209050848160000160006101000a81548160ff021916908360028111156110fd576110fc6118c5565b5b0217905550838160010181905550600760009054906101000a900473ffffffffffffffffffffffffffffffffffffffff168160020160006101000a81548173ffffffffffffffffffffffffffffffffffffffff021916908373ffffffffffffffffffffffffffffffffffffffff1602179055506000816003018190555060008160040160006101000a81548160ff0219169083151502179055504381600501819055507fae129d0ee5ec486eee044a592fd4a3839d6499a9d016440a8f84b28973530b5e828633876040516111d5949392919061215c565b60405180910390a16001600960008282546111f0919061208e565b92505081905550819250505092915050565b600560009054906101000a900473ffffffffffffffffffffffffffffffffffffffff1673ffffffffffffffffffffffffffffffffffffffff163373ffffffffffffffffffffffffffffffffffffffff161461125c57600080fd5b600073ffffffffffffffffffffffffffffffffffffffff168173ffffffffffffffffffffffffffffffffffffffff16036112cb576040517f08c379a00000000000000000000000000000000000000000000000000000000081526004016112c2906121ed565b60405180910390fd5b80600760006101000a81548173ffffffffffffffffffffffffffffffffffffffff021916908373ffffffffffffffffffffffffffffffffffffffff16021790555050565b600b60019054906101000a900473ffffffffffffffffffffffffffffffffffffffff1681565b600560009054906101000a900473ffffffffffffffffffffffffffffffffffffffff1681565b600560009054906101000a900473ffffffffffffffffffffffffffffffffffffffff1673ffffffffffffffffffffffffffffffffffffffff163373ffffffffffffffffffffffffffffffffffffffff16146113b557600080fd5b600073ffffffffffffffffffffffffffffffffffffffff168173ffffffffffffffffffffffffffffffffffffffff1603611424576040517f08c379a000000000000000000000000000000000000000000000000000000000815260040161141b906121ed565b60405180910390fd5b80600860006101000a81548173ffffffffffffffffffffffffffffffffffffffff021916908373ffffffffffffffffffffffffffffffffffffffff16021790555050565b600b60009054906101000a900460ff1681565b6000600660009054906101000a900473ffffffffffffffffffffffffffffffffffffffff1673ffffffffffffffffffffffffffffffffffffffff166370a08231336040518263ffffffff1660e01b81526004016114d89190611aab565b602060405180830381865afa1580156114f5573d6000803e3d6000fd5b505050506040513d601f19601f820116820180604052508101906115199190611d17565b90506000600360003373ffffffffffffffffffffffffffffffffffffffff1673ffffffffffffffffffffffffffffffffffffffff16815260200190815260200160002090506000818054905014806115a4575043816001838054905061157f9190612128565b815481106115905761158f6120f9565b5b906000526020600020906002020160000154105b15611603578060405180604001604052804381526020018481525090806001815401808255809150506001900390600052602060002090600202016000909190919091506000820151816000015560208201518160010155505061163d565b8181600183805490506116169190612128565b81548110611627576116266120f9565b5b9060005260206000209060020201600101819055505b81600260003373ffffffffffffffffffffffffffffffffffffffff1673ffffffffffffffffffffffffffffffffffffffff168152602001908152602001600020819055505050565b600560009054906101000a900473ffffffffffffffffffffffffffffffffffffffff1673ffffffffffffffffffffffffffffffffffffffff163373ffffffffffffffffffffffffffffffffffffffff16146116df57600080fd5b600073ffffffffffffffffffffffffffffffffffffffff168173ffffffffffffffffffffffffffffffffffffffff160361171857600080fd5b600b60009054906101000a900460ff161561173257600080fd5b80600b60016101000a81548173ffffffffffffffffffffffffffffffffffffffff021916908373ffffffffffffffffffffffffffffffffffffffff1602179055506001600b60006101000a81548160ff02191690831515021790555050565b60016020528160005260406000206020528060005260406000206000915091509054906101000a900460ff1681565b60095481565b60026020528060005260406000206000915090505481565b600660009054906101000a900473ffffffffffffffffffffffffffffffffffffffff1681565b600260005403611849576040517f08c379a000000000000000000000000000000000000000000000000000000000815260040161184090612259565b60405180910390fd5b6002600081905550565b6001600081905550565b600080fd5b6000819050919050565b61187581611862565b811461188057600080fd5b50565b6000813590506118928161186c565b92915050565b6000602082840312156118ae576118ad61185d565b5b60006118bc84828501611883565b91505092915050565b7f4e487b7100000000000000000000000000000000000000000000000000000000600052602160045260246000fd5b60038110611905576119046118c5565b5b50565b6000819050611916826118f4565b919050565b600061192682611908565b9050919050565b6119368161191b565b82525050565b600073ffffffffffffffffffffffffffffffffffffffff82169050919050565b60006119678261193c565b9050919050565b6119778161195c565b82525050565b61198681611862565b82525050565b60008115159050919050565b6119a18161198c565b82525050565b600060e0820190506119bc600083018a61192d565b6119c9602083018961196e565b6119d6604083018861197d565b6119e3606083018761196e565b6119f0608083018661197d565b6119fd60a0830185611998565b611a0a60c083018461197d565b98975050505050505050565b611a1f8161195c565b8114611a2a57600080fd5b50565b600081359050611a3c81611a16565b92915050565b60008060408385031215611a5957611a5861185d565b5b6000611a6785828601611a2d565b9250506020611a7885828601611883565b9150509250929050565b6000604082019050611a97600083018561197d565b611aa4602083018461197d565b9392505050565b6000602082019050611ac0600083018461196e565b92915050565b6000602082019050611adb600083018461197d565b92915050565b6000611aec8261193c565b9050919050565b611afc81611ae1565b8114611b0757600080fd5b50565b600081359050611b1981611af3565b92915050565b60008060408385031215611b3657611b3561185d565b5b6000611b4485828601611b0a565b9250506020611b5585828601611883565b9150509250929050565b6000819050919050565b6000611b84611b7f611b7a8461193c565b611b5f565b61193c565b9050919050565b6000611b9682611b69565b9050919050565b6000611ba882611b8b565b9050919050565b611bb881611b9d565b82525050565b6000602082019050611bd36000830184611baf565b92915050565b60038110611be657600080fd5b50565b600081359050611bf881611bd9565b92915050565b60008060408385031215611c1557611c1461185d565b5b6000611c2385828601611be9565b9250506020611c3485828601611883565b9150509250929050565b600060208284031215611c5457611c5361185d565b5b6000611c6284828501611a2d565b91505092915050565b6000602082019050611c806000830184611998565b92915050565b60008060408385031215611c9d57611c9c61185d565b5b6000611cab85828601611883565b9250506020611cbc85828601611a2d565b9150509250929050565b6000611cd182611b8b565b9050919050565b611ce181611cc6565b82525050565b6000602082019050611cfc6000830184611cd8565b92915050565b600081519050611d118161186c565b92915050565b600060208284031215611d2d57611d2c61185d565b5b6000611d3b84828501611d02565b91505092915050565b7f4e487b7100000000000000000000000000000000000000000000000000000000600052601160045260246000fd5b6000611d7e82611862565b9150611d8983611862565b9250828202611d9781611862565b91508282048414831517611dae57611dad611d44565b5b5092915050565b7f4e487b7100000000000000000000000000000000000000000000000000000000600052601260045260246000fd5b6000611def82611862565b9150611dfa83611862565b925082611e0a57611e09611db5565b5b828204905092915050565b600082825260208201905092915050565b7f4e6f7420656e6f75676820617070726f76656400000000000000000000000000600082015250565b6000611e5c601383611e15565b9150611e6782611e26565b602082019050919050565b60006020820190508181036000830152611e8b81611e4f565b9050919050565b7f416c726561647920457865637475656400000000000000000000000000000000600082015250565b6000611ec8601083611e15565b9150611ed382611e92565b602082019050919050565b60006020820190508181036000830152611ef781611ebb565b9050919050565b7f4e6f7420656e6f75676820457468657220696e2074686520636f6e7472616374600082015250565b6000611f34602083611e15565b9150611f3f82611efe565b602082019050919050565b60006020820190508181036000830152611f6381611f27565b9050919050565b7f596f7527766520616c726561647920766f74656420666f72207468697320707260008201527f6f706f73616c0000000000000000000000000000000000000000000000000000602082015250565b6000611fc6602683611e15565b9150611fd182611f6a565b604082019050919050565b60006020820190508181036000830152611ff581611fb9565b9050919050565b7f596f75206e65656420746f2064656c656761746520746f6b656e73206265666f60008201527f726520766f74696e670000000000000000000000000000000000000000000000602082015250565b6000612058602983611e15565b915061206382611ffc565b604082019050919050565b600060208201905081810360008301526120878161204b565b9050919050565b600061209982611862565b91506120a483611862565b92508282019050808211156120bc576120bb611d44565b5b92915050565b60006060820190506120d7600083018661196e565b6120e4602083018561197d565b6120f1604083018461197d565b949350505050565b7f4e487b7100000000000000000000000000000000000000000000000000000000600052603260045260246000fd5b600061213382611862565b915061213e83611862565b925082820390508181111561215657612155611d44565b5b92915050565b6000608082019050612171600083018761197d565b61217e602083018661192d565b61218b604083018561196e565b612198606083018461197d565b95945050505050565b7f496e76616c696420616464726573730000000000000000000000000000000000600082015250565b60006121d7600f83611e15565b91506121e2826121a1565b602082019050919050565b60006020820190508181036000830152612206816121ca565b9050919050565b7f5265656e7472616e637947756172643a207265656e7472616e742063616c6c00600082015250565b6000612243601f83611e15565b915061224e8261220d565b602082019050919050565b6000602082019050818103600083015261227281612236565b905091905056fea2646970667358221220fb0737c0523c521a806ad726c33de0222b5028c57d518516d105c2295c466e4664736f6c63430008130033",
  "linkReferences": {},
  "deployedLinkReferences": {}
}