{
  "_format": "hh-sol-artifact-1",
  "contractName": "SaiTub",
  "sourceName": "contracts/src/tub.sol",
  "abi": [
    {
      "inputs": [
        {
          "internalType": "contract DSToken",
          "name": "sai_",
          "type": "address"
        },
        {
          "internalType": "contract DSToken",
          "name": "sin_",
          "type": "address"
        },
        {
          "internalType": "contract DSToken",
          "name": "skr_",
          "type": "address"
        },
        {
          "internalType": "contract ERC20",
          "name": "gem_",
          "type": "address"
        },
        {
          "internalType": "contract DSToken",
          "name": "gov_",
          "type": "address"
        },
        {
          "internalType": "contract DSValue",
          "name": "pip_",
          "type": "address"
        },
        {
          "internalType": "contract DSValue",
          "name": "pep_",
          "type": "address"
        },
        {
          "internalType": "contract SaiVox",
          "name": "vox_",
          "type": "address"
        },
        {
          "internalType": "address",
          "name": "pit_",
          "type": "address"
        }
      ],
      "stateMutability": "nonpayable",
      "type": "constructor"
    },
    {
      "anonymous": false,
      "inputs": [
        {
          "indexed": false,
          "internalType": "uint256",
          "name": "value",
          "type": "uint256"
        }
      ],
      "name": "InterestDistributed",
      "type": "event"
    },
    {
      "anonymous": false,
      "inputs": [
        {
          "indexed": true,
          "internalType": "address",
          "name": "from",
          "type": "address"
        },
        {
          "indexed": false,
          "internalType": "uint256",
          "name": "value",
          "type": "uint256"
        }
      ],
      "name": "InterestWithdrawn",
      "type": "event"
    },
    {
      "anonymous": false,
      "inputs": [
        {
          "indexed": true,
          "internalType": "address",
          "name": "lad",
          "type": "address"
        },
        {
          "indexed": false,
          "internalType": "bytes32",
          "name": "cup",
          "type": "bytes32"
        }
      ],
      "name": "LogNewCup",
      "type": "event"
    },
    {
      "anonymous": true,
      "inputs": [
        {
          "indexed": true,
          "internalType": "bytes4",
          "name": "sig",
          "type": "bytes4"
        },
        {
          "indexed": true,
          "internalType": "address",
          "name": "guy",
          "type": "address"
        },
        {
          "indexed": true,
          "internalType": "bytes32",
          "name": "foo",
          "type": "bytes32"
        },
        {
          "indexed": true,
          "internalType": "bytes32",
          "name": "bar",
          "type": "bytes32"
        },
        {
          "indexed": false,
          "internalType": "uint256",
          "name": "wad",
          "type": "uint256"
        },
        {
          "indexed": false,
          "internalType": "bytes",
          "name": "fax",
          "type": "bytes"
        }
      ],
      "name": "LogNote",
      "type": "event"
    },
    {
      "anonymous": false,
      "inputs": [
        {
          "indexed": true,
          "internalType": "address",
          "name": "authority",
          "type": "address"
        }
      ],
      "name": "LogSetAuthority",
      "type": "event"
    },
    {
      "anonymous": false,
      "inputs": [
        {
          "indexed": true,
          "internalType": "address",
          "name": "owner",
          "type": "address"
        }
      ],
      "name": "LogSetOwner",
      "type": "event"
    },
    {
      "inputs": [
        {
          "internalType": "bytes32",
          "name": "cup",
          "type": "bytes32"
        }
      ],
      "name": "accumulativeEthInterestOf",
      "outputs": [
        {
          "internalType": "uint256",
          "name": "",
          "type": "uint256"
        }
      ],
      "stateMutability": "view",
      "type": "function"
    },
    {
      "inputs": [],
      "name": "air",
      "outputs": [
        {
          "internalType": "uint256",
          "name": "",
          "type": "uint256"
        }
      ],
      "stateMutability": "view",
      "type": "function"
    },
    {
      "inputs": [
        {
          "internalType": "uint256",
          "name": "wad",
          "type": "uint256"
        }
      ],
      "name": "ask",
      "outputs": [
        {
          "internalType": "uint256",
          "name": "",
          "type": "uint256"
        }
      ],
      "stateMutability": "view",
      "type": "function"
    },
    {
      "inputs": [],
      "name": "authority",
      "outputs": [
        {
          "internalType": "contract DSAuthority",
          "name": "",
          "type": "address"
        }
      ],
      "stateMutability": "view",
      "type": "function"
    },
    {
      "inputs": [],
      "name": "axe",
      "outputs": [
        {
          "internalType": "uint256",
          "name": "",
          "type": "uint256"
        }
      ],
      "stateMutability": "view",
      "type": "function"
    },
    {
      "inputs": [
        {
          "internalType": "uint256",
          "name": "wad",
          "type": "uint256"
        }
      ],
      "name": "bid",
      "outputs": [
        {
          "internalType": "uint256",
          "name": "",
          "type": "uint256"
        }
      ],
      "stateMutability": "view",
      "type": "function"
    },
    {
      "inputs": [
        {
          "internalType": "bytes32",
          "name": "cup",
          "type": "bytes32"
        }
      ],
      "name": "bite",
      "outputs": [],
      "stateMutability": "payable",
      "type": "function"
    },
    {
      "inputs": [
        {
          "internalType": "uint256",
          "name": "fit_",
          "type": "uint256"
        },
        {
          "internalType": "uint256",
          "name": "jam",
          "type": "uint256"
        }
      ],
      "name": "cage",
      "outputs": [],
      "stateMutability": "payable",
      "type": "function"
    },
    {
      "inputs": [],
      "name": "cap",
      "outputs": [
        {
          "internalType": "uint256",
          "name": "",
          "type": "uint256"
        }
      ],
      "stateMutability": "view",
      "type": "function"
    },
    {
      "inputs": [],
      "name": "chi",
      "outputs": [
        {
          "internalType": "uint256",
          "name": "",
          "type": "uint256"
        }
      ],
      "stateMutability": "nonpayable",
      "type": "function"
    },
    {
      "inputs": [],
      "name": "cupi",
      "outputs": [
        {
          "internalType": "uint256",
          "name": "",
          "type": "uint256"
        }
      ],
      "stateMutability": "view",
      "type": "function"
    },
    {
      "inputs": [
        {
          "internalType": "bytes32",
          "name": "",
          "type": "bytes32"
        }
      ],
      "name": "cups",
      "outputs": [
        {
          "internalType": "address",
          "name": "lad",
          "type": "address"
        },
        {
          "internalType": "uint256",
          "name": "ink",
          "type": "uint256"
        },
        {
          "internalType": "uint256",
          "name": "art",
          "type": "uint256"
        },
        {
          "internalType": "uint256",
          "name": "ire",
          "type": "uint256"
        },
        {
          "internalType": "uint256",
          "name": "lastWithdraw",
          "type": "uint256"
        },
        {
          "internalType": "uint256",
          "name": "userInterest",
          "type": "uint256"
        },
        {
          "internalType": "uint256",
          "name": "lastSchi",
          "type": "uint256"
        }
      ],
      "stateMutability": "view",
      "type": "function"
    },
    {
      "inputs": [],
      "name": "din",
      "outputs": [
        {
          "internalType": "uint256",
          "name": "",
          "type": "uint256"
        }
      ],
      "stateMutability": "nonpayable",
      "type": "function"
    },
    {
      "inputs": [],
      "name": "distributeRewards",
      "outputs": [],
      "stateMutability": "payable",
      "type": "function"
    },
    {
      "inputs": [
        {
          "internalType": "bytes32",
          "name": "cup",
          "type": "bytes32"
        },
        {
          "internalType": "uint256",
          "name": "wad",
          "type": "uint256"
        }
      ],
      "name": "draw",
      "outputs": [],
      "stateMutability": "payable",
      "type": "function"
    },
    {
      "inputs": [],
      "name": "drip",
      "outputs": [],
      "stateMutability": "payable",
      "type": "function"
    },
    {
      "inputs": [],
      "name": "earnRatio",
      "outputs": [
        {
          "internalType": "uint256",
          "name": "",
          "type": "uint256"
        }
      ],
      "stateMutability": "view",
      "type": "function"
    },
    {
      "inputs": [],
      "name": "era",
      "outputs": [
        {
          "internalType": "uint256",
          "name": "",
          "type": "uint256"
        }
      ],
      "stateMutability": "nonpayable",
      "type": "function"
    },
    {
      "inputs": [],
      "name": "ethPool",
      "outputs": [
        {
          "internalType": "contract EthPool",
          "name": "",
          "type": "address"
        }
      ],
      "stateMutability": "view",
      "type": "function"
    },
    {
      "inputs": [
        {
          "internalType": "uint256",
          "name": "wad",
          "type": "uint256"
        }
      ],
      "name": "exit",
      "outputs": [],
      "stateMutability": "payable",
      "type": "function"
    },
    {
      "inputs": [],
      "name": "fee",
      "outputs": [
        {
          "internalType": "uint256",
          "name": "",
          "type": "uint256"
        }
      ],
      "stateMutability": "view",
      "type": "function"
    },
    {
      "inputs": [],
      "name": "fit",
      "outputs": [
        {
          "internalType": "uint256",
          "name": "",
          "type": "uint256"
        }
      ],
      "stateMutability": "view",
      "type": "function"
    },
    {
      "inputs": [],
      "name": "flow",
      "outputs": [],
      "stateMutability": "payable",
      "type": "function"
    },
    {
      "inputs": [
        {
          "internalType": "bytes32",
          "name": "cup",
          "type": "bytes32"
        },
        {
          "internalType": "uint256",
          "name": "wad",
          "type": "uint256"
        }
      ],
      "name": "free",
      "outputs": [],
      "stateMutability": "payable",
      "type": "function"
    },
    {
      "inputs": [],
      "name": "gap",
      "outputs": [
        {
          "internalType": "uint256",
          "name": "",
          "type": "uint256"
        }
      ],
      "stateMutability": "view",
      "type": "function"
    },
    {
      "inputs": [],
      "name": "gem",
      "outputs": [
        {
          "internalType": "contract ERC20",
          "name": "",
          "type": "address"
        }
      ],
      "stateMutability": "view",
      "type": "function"
    },
    {
      "inputs": [
        {
          "internalType": "bytes32",
          "name": "cup",
          "type": "bytes32"
        }
      ],
      "name": "getUserDebt",
      "outputs": [
        {
          "internalType": "uint256",
          "name": "",
          "type": "uint256"
        }
      ],
      "stateMutability": "view",
      "type": "function"
    },
    {
      "inputs": [
        {
          "internalType": "bytes32",
          "name": "cup",
          "type": "bytes32"
        },
        {
          "internalType": "address",
          "name": "guy",
          "type": "address"
        }
      ],
      "name": "give",
      "outputs": [],
      "stateMutability": "payable",
      "type": "function"
    },
    {
      "inputs": [],
      "name": "gov",
      "outputs": [
        {
          "internalType": "contract DSToken",
          "name": "",
          "type": "address"
        }
      ],
      "stateMutability": "view",
      "type": "function"
    },
    {
      "inputs": [
        {
          "internalType": "bytes32",
          "name": "cup",
          "type": "bytes32"
        }
      ],
      "name": "ink",
      "outputs": [
        {
          "internalType": "uint256",
          "name": "",
          "type": "uint256"
        }
      ],
      "stateMutability": "view",
      "type": "function"
    },
    {
      "inputs": [
        {
          "internalType": "bytes32",
          "name": "cup",
          "type": "bytes32"
        }
      ],
      "name": "interestOf",
      "outputs": [
        {
          "internalType": "uint256",
          "name": "",
          "type": "uint256"
        }
      ],
      "stateMutability": "view",
      "type": "function"
    },
    {
      "inputs": [],
      "name": "interestRateThreshold",
      "outputs": [
        {
          "internalType": "uint256",
          "name": "",
          "type": "uint256"
        }
      ],
      "stateMutability": "view",
      "type": "function"
    },
    {
      "inputs": [],
      "name": "interestWithdrawalCooldown",
      "outputs": [
        {
          "internalType": "uint256",
          "name": "",
          "type": "uint256"
        }
      ],
      "stateMutability": "view",
      "type": "function"
    },
    {
      "inputs": [
        {
          "internalType": "uint256",
          "name": "wad",
          "type": "uint256"
        }
      ],
      "name": "join",
      "outputs": [],
      "stateMutability": "payable",
      "type": "function"
    },
    {
      "inputs": [
        {
          "internalType": "bytes32",
          "name": "cup",
          "type": "bytes32"
        }
      ],
      "name": "lad",
      "outputs": [
        {
          "internalType": "address",
          "name": "",
          "type": "address"
        }
      ],
      "stateMutability": "view",
      "type": "function"
    },
    {
      "inputs": [
        {
          "internalType": "bytes32",
          "name": "cup",
          "type": "bytes32"
        },
        {
          "internalType": "uint256",
          "name": "wad",
          "type": "uint256"
        }
      ],
      "name": "lock",
      "outputs": [],
      "stateMutability": "payable",
      "type": "function"
    },
    {
      "inputs": [],
      "name": "mat",
      "outputs": [
        {
          "internalType": "uint256",
          "name": "",
          "type": "uint256"
        }
      ],
      "stateMutability": "view",
      "type": "function"
    },
    {
      "inputs": [
        {
          "internalType": "bytes32",
          "name": "param",
          "type": "bytes32"
        },
        {
          "internalType": "uint256",
          "name": "val",
          "type": "uint256"
        }
      ],
      "name": "mold",
      "outputs": [],
      "stateMutability": "payable",
      "type": "function"
    },
    {
      "inputs": [],
      "name": "off",
      "outputs": [
        {
          "internalType": "bool",
          "name": "",
          "type": "bool"
        }
      ],
      "stateMutability": "view",
      "type": "function"
    },
    {
      "inputs": [],
      "name": "open",
      "outputs": [
        {
          "internalType": "bytes32",
          "name": "cup",
          "type": "bytes32"
        }
      ],
      "stateMutability": "payable",
      "type": "function"
    },
    {
      "inputs": [],
      "name": "out",
      "outputs": [
        {
          "internalType": "bool",
          "name": "",
          "type": "bool"
        }
      ],
      "stateMutability": "view",
      "type": "function"
    },
    {
      "inputs": [],
      "name": "owner",
      "outputs": [
        {
          "internalType": "address",
          "name": "",
          "type": "address"
        }
      ],
      "stateMutability": "view",
      "type": "function"
    },
    {
      "inputs": [],
      "name": "pep",
      "outputs": [
        {
          "internalType": "contract DSValue",
          "name": "",
          "type": "address"
        }
      ],
      "stateMutability": "view",
      "type": "function"
    },
    {
      "inputs": [],
      "name": "per",
      "outputs": [
        {
          "internalType": "uint256",
          "name": "ray",
          "type": "uint256"
        }
      ],
      "stateMutability": "view",
      "type": "function"
    },
    {
      "inputs": [],
      "name": "pie",
      "outputs": [
        {
          "internalType": "uint256",
          "name": "",
          "type": "uint256"
        }
      ],
      "stateMutability": "view",
      "type": "function"
    },
    {
      "inputs": [],
      "name": "pip",
      "outputs": [
        {
          "internalType": "contract DSValue",
          "name": "",
          "type": "address"
        }
      ],
      "stateMutability": "view",
      "type": "function"
    },
    {
      "inputs": [],
      "name": "pit",
      "outputs": [
        {
          "internalType": "address",
          "name": "",
          "type": "address"
        }
      ],
      "stateMutability": "view",
      "type": "function"
    },
    {
      "inputs": [
        {
          "internalType": "bytes32",
          "name": "cup",
          "type": "bytes32"
        }
      ],
      "name": "rap",
      "outputs": [
        {
          "internalType": "uint256",
          "name": "",
          "type": "uint256"
        }
      ],
      "stateMutability": "nonpayable",
      "type": "function"
    },
    {
      "inputs": [],
      "name": "rhi",
      "outputs": [
        {
          "internalType": "uint256",
          "name": "",
          "type": "uint256"
        }
      ],
      "stateMutability": "nonpayable",
      "type": "function"
    },
    {
      "inputs": [],
      "name": "rho",
      "outputs": [
        {
          "internalType": "uint256",
          "name": "",
          "type": "uint256"
        }
      ],
      "stateMutability": "view",
      "type": "function"
    },
    {
      "inputs": [],
      "name": "rum",
      "outputs": [
        {
          "internalType": "uint256",
          "name": "",
          "type": "uint256"
        }
      ],
      "stateMutability": "view",
      "type": "function"
    },
    {
      "inputs": [
        {
          "internalType": "bytes32",
          "name": "cup",
          "type": "bytes32"
        }
      ],
      "name": "safe",
      "outputs": [
        {
          "internalType": "bool",
          "name": "",
          "type": "bool"
        }
      ],
      "stateMutability": "nonpayable",
      "type": "function"
    },
    {
      "inputs": [],
      "name": "sai",
      "outputs": [
        {
          "internalType": "contract DSToken",
          "name": "",
          "type": "address"
        }
      ],
      "stateMutability": "view",
      "type": "function"
    },
    {
      "inputs": [
        {
          "internalType": "contract DSAuthority",
          "name": "authority_",
          "type": "address"
        }
      ],
      "name": "setAuthority",
      "outputs": [],
      "stateMutability": "nonpayable",
      "type": "function"
    },
    {
      "inputs": [
        {
          "internalType": "contract EthPool",
          "name": "ethPool_",
          "type": "address"
        }
      ],
      "name": "setEthPool",
      "outputs": [],
      "stateMutability": "payable",
      "type": "function"
    },
    {
      "inputs": [
        {
          "internalType": "uint256",
          "name": "threshold",
          "type": "uint256"
        }
      ],
      "name": "setInterestRateRatioThreshold",
      "outputs": [],
      "stateMutability": "nonpayable",
      "type": "function"
    },
    {
      "inputs": [
        {
          "internalType": "address",
          "name": "owner_",
          "type": "address"
        }
      ],
      "name": "setOwner",
      "outputs": [],
      "stateMutability": "nonpayable",
      "type": "function"
    },
    {
      "inputs": [
        {
          "internalType": "contract DSValue",
          "name": "pep_",
          "type": "address"
        }
      ],
      "name": "setPep",
      "outputs": [],
      "stateMutability": "payable",
      "type": "function"
    },
    {
      "inputs": [
        {
          "internalType": "contract DSValue",
          "name": "pip_",
          "type": "address"
        }
      ],
      "name": "setPip",
      "outputs": [],
      "stateMutability": "payable",
      "type": "function"
    },
    {
      "inputs": [
        {
          "internalType": "contract SaiVox",
          "name": "vox_",
          "type": "address"
        }
      ],
      "name": "setVox",
      "outputs": [],
      "stateMutability": "payable",
      "type": "function"
    },
    {
      "inputs": [
        {
          "internalType": "uint256",
          "name": "cooldown",
          "type": "uint256"
        }
      ],
      "name": "setWithdrawCooldown",
      "outputs": [],
      "stateMutability": "payable",
      "type": "function"
    },
    {
      "inputs": [
        {
          "internalType": "bytes32",
          "name": "cup",
          "type": "bytes32"
        }
      ],
      "name": "shut",
      "outputs": [],
      "stateMutability": "payable",
      "type": "function"
    },
    {
      "inputs": [],
      "name": "sin",
      "outputs": [
        {
          "internalType": "contract DSToken",
          "name": "",
          "type": "address"
        }
      ],
      "stateMutability": "view",
      "type": "function"
    },
    {
      "inputs": [],
      "name": "skr",
      "outputs": [
        {
          "internalType": "contract DSToken",
          "name": "",
          "type": "address"
        }
      ],
      "stateMutability": "view",
      "type": "function"
    },
    {
      "inputs": [
        {
          "internalType": "bytes32",
          "name": "cup",
          "type": "bytes32"
        }
      ],
      "name": "tab",
      "outputs": [
        {
          "internalType": "uint256",
          "name": "",
          "type": "uint256"
        }
      ],
      "stateMutability": "nonpayable",
      "type": "function"
    },
    {
      "inputs": [],
      "name": "tag",
      "outputs": [
        {
          "internalType": "uint256",
          "name": "wad",
          "type": "uint256"
        }
      ],
      "stateMutability": "view",
      "type": "function"
    },
    {
      "inputs": [],
      "name": "tap",
      "outputs": [
        {
          "internalType": "address",
          "name": "",
          "type": "address"
        }
      ],
      "stateMutability": "view",
      "type": "function"
    },
    {
      "inputs": [],
      "name": "tax",
      "outputs": [
        {
          "internalType": "uint256",
          "name": "",
          "type": "uint256"
        }
      ],
      "stateMutability": "view",
      "type": "function"
    },
    {
      "inputs": [],
      "name": "totalCollateral",
      "outputs": [
        {
          "internalType": "uint256",
          "name": "",
          "type": "uint256"
        }
      ],
      "stateMutability": "view",
      "type": "function"
    },
    {
      "inputs": [
        {
          "internalType": "address",
          "name": "tap_",
          "type": "address"
        }
      ],
      "name": "turn",
      "outputs": [],
      "stateMutability": "payable",
      "type": "function"
    },
    {
      "inputs": [],
      "name": "vox",
      "outputs": [
        {
          "internalType": "contract SaiVox",
          "name": "",
          "type": "address"
        }
      ],
      "stateMutability": "view",
      "type": "function"
    },
    {
      "inputs": [
        {
          "internalType": "bytes32",
          "name": "cup",
          "type": "bytes32"
        },
        {
          "internalType": "uint256",
          "name": "wad",
          "type": "uint256"
        }
      ],
      "name": "wipe",
      "outputs": [],
      "stateMutability": "payable",
      "type": "function"
    },
    {
      "inputs": [
        {
          "internalType": "bytes32",
          "name": "cup",
          "type": "bytes32"
        }
      ],
      "name": "withdrawInterest",
      "outputs": [],
      "stateMutability": "nonpayable",
      "type": "function"
    },
    {
      "inputs": [],
      "name": "withdrawInterval",
      "outputs": [
        {
          "internalType": "uint256",
          "name": "",
          "type": "uint256"
        }
      ],
      "stateMutability": "view",
      "type": "function"
    },
    {
      "inputs": [
        {
          "internalType": "bytes32",
          "name": "cup",
          "type": "bytes32"
        }
      ],
      "name": "withdrawableEthInterestOf",
      "outputs": [
        {
          "internalType": "uint256",
          "name": "",
          "type": "uint256"
        }
      ],
      "stateMutability": "view",
      "type": "function"
    },
    {
      "inputs": [
        {
          "internalType": "bytes32",
          "name": "cup",
          "type": "bytes32"
        }
      ],
      "name": "withdrawnInterestOf",
      "outputs": [
        {
          "internalType": "uint256",
          "name": "",
          "type": "uint256"
        }
      ],
      "stateMutability": "view",
      "type": "function"
    }
  ],
  "bytecode": "0x6080604052600a6b033b2e3c9fd0803ce8000000602d62000021919062000421565b6200002d91906200049b565b6021553480156200003d57600080fd5b50604051620066f9380380620066f9833981810160405281019062000063919062000651565b33600160006101000a81548173ffffffffffffffffffffffffffffffffffffffff021916908373ffffffffffffffffffffffffffffffffffffffff1602179055503373ffffffffffffffffffffffffffffffffffffffff167fce241d7ca1f669fee44b6fc00b8eba2df3bb514eed0f6f668f8f89096e81ed9460405160405180910390a285600560006101000a81548173ffffffffffffffffffffffffffffffffffffffff021916908373ffffffffffffffffffffffffffffffffffffffff16021790555086600460006101000a81548173ffffffffffffffffffffffffffffffffffffffff021916908373ffffffffffffffffffffffffffffffffffffffff16021790555088600260006101000a81548173ffffffffffffffffffffffffffffffffffffffff021916908373ffffffffffffffffffffffffffffffffffffffff16021790555087600360006101000a81548173ffffffffffffffffffffffffffffffffffffffff021916908373ffffffffffffffffffffffffffffffffffffffff16021790555084600660006101000a81548173ffffffffffffffffffffffffffffffffffffffff021916908373ffffffffffffffffffffffffffffffffffffffff16021790555080600b60006101000a81548173ffffffffffffffffffffffffffffffffffffffff021916908373ffffffffffffffffffffffffffffffffffffffff16021790555083600860006101000a81548173ffffffffffffffffffffffffffffffffffffffff021916908373ffffffffffffffffffffffffffffffffffffffff16021790555082600960006101000a81548173ffffffffffffffffffffffffffffffffffffffff021916908373ffffffffffffffffffffffffffffffffffffffff16021790555081600760006101000a81548173ffffffffffffffffffffffffffffffffffffffff021916908373ffffffffffffffffffffffffffffffffffffffff1602179055506b033b2e3c9fd0803ce8000000600c819055506b033b2e3c9fd0803ce8000000600e819055506b033b2e3c9fd0803ce8000000600f819055506b033b2e3c9fd0803ce8000000601081905550670de0b6b3a76400006011819055506b033b2e3c9fd0803ce80000006015819055506b033b2e3c9fd0803ce800000060168190555062015180601c81905550620003cb620003e060201b60201c565b60148190555050505050505050505062000730565b600042905090565b6000819050919050565b7f4e487b7100000000000000000000000000000000000000000000000000000000600052601160045260246000fd5b60006200042e82620003e8565b91506200043b83620003e8565b92508282026200044b81620003e8565b91508282048414831517620004655762000464620003f2565b5b5092915050565b7f4e487b7100000000000000000000000000000000000000000000000000000000600052601260045260246000fd5b6000620004a882620003e8565b9150620004b583620003e8565b925082620004c857620004c76200046c565b5b828204905092915050565b600080fd5b600073ffffffffffffffffffffffffffffffffffffffff82169050919050565b60006200050582620004d8565b9050919050565b60006200051982620004f8565b9050919050565b6200052b816200050c565b81146200053757600080fd5b50565b6000815190506200054b8162000520565b92915050565b60006200055e82620004f8565b9050919050565b620005708162000551565b81146200057c57600080fd5b50565b600081519050620005908162000565565b92915050565b6000620005a382620004f8565b9050919050565b620005b58162000596565b8114620005c157600080fd5b50565b600081519050620005d581620005aa565b92915050565b6000620005e882620004f8565b9050919050565b620005fa81620005db565b81146200060657600080fd5b50565b6000815190506200061a81620005ef565b92915050565b6200062b81620004f8565b81146200063757600080fd5b50565b6000815190506200064b8162000620565b92915050565b60008060008060008060008060006101208a8c031215620006775762000676620004d3565b5b6000620006878c828d016200053a565b99505060206200069a8c828d016200053a565b9850506040620006ad8c828d016200053a565b9750506060620006c08c828d016200057f565b9650506080620006d38c828d016200053a565b95505060a0620006e68c828d01620005c4565b94505060c0620006f98c828d01620005c4565b93505060e06200070c8c828d0162000609565b925050610100620007208c828d016200063a565b9150509295985092959850929598565b615fb980620007406000396000f3fe6080604052600436106104475760003560e01c806382bf9a7511610234578063c80bb81c1161012e578063e0ae96e9116100b6578063f6ee070b1161007a578063f6ee070b14610f97578063f7c8d63414610fc0578063fcfff16f14610ffd578063fd2210311461101b578063fdac00251461104657610447565b8063e0ae96e914610e9c578063e47e7e6614610ec7578063e95823ad14610f04578063f03c7c6e14610f41578063f16673a414610f6c57610447565b8063cf48d1a6116100fd578063cf48d1a614610dd1578063d741e2f914610ded578063d9c27cc614610e18578063ddca3f4314610e34578063de5f551714610e5f57610447565b8063c80bb81c14610d22578063c8e13bb414610d5f578063c92aecc414610d8a578063cd2b2d1514610db557610447565b8063a21abf47116101bc578063b2a1449b11610180578063b2a1449b14610c78578063b3b77a5114610ca3578063b84d210614610cbf578063baa8529c14610cdb578063bf7e214f14610cf757610447565b8063a21abf4714610b8c578063a5cd184e14610bc9578063ab0783da14610be5578063ab0b62ad14610c10578063ace237f514610c4d57610447565b80638da5cb5b116102035780638da5cb5b14610ae55780639166cba414610b1057806392b0d72114610b3b57806399c8d55614610b575780639f678cca14610b8257610447565b806382bf9a7514610a575780638a95a74614610a735780638ceedb4714610a9e5780638cf0c19114610aba57610447565b8063440f19ba1161034557806367550a35116102cd5780637a9e5e4b116102915780637a9e5e4b146109a05780637bd2bea7146109c95780637e74325f146109f45780637ec9c3b814610a105780637f8661a114610a3b57610447565b806367550a35146108e75780636c32c0a6146109125780636f4a2cd01461093d5780636f78ee0d1461094757806373b381011461098457610447565b8063499554311161031457806349955431146108105780634ac8eb5f1461083b578063509bf2bf1461086657806351f91066146108915780636626b26d146108bc57610447565b8063440f19ba1461077057806344feed291461078c578063454a2ab3146107a8578063470ac744146107e557610447565b806320aba08b116103d3578063343aad8211610397578063343aad82146106b7578063355274ea146106c15780633989cbd6146106ec57806340cc8854146107175780634108aadc1461073357610447565b806320aba08b146105ce578063253389dc146105f957806327e7e21e14610636578063314465d214610661578063338a02611461068c57610447565b806312d43a511161041a57806312d43a51146104e757806313af403514610512578063143e55e01461053b578063162075d8146105665780631f3634ed1461059157610447565b8063049878f31461044c578063071bafb51461046857806309dc5fdd146104935780630f8a771e146104bc575b600080fd5b6104666004803603810190610461919061501b565b611089565b005b34801561047457600080fd5b5061047d611284565b60405161048a91906150c7565b60405180910390f35b34801561049f57600080fd5b506104ba60048036038101906104b59190615118565b6112aa565b005b3480156104c857600080fd5b506104d161161c565b6040516104de91906150c7565b60405180910390f35b3480156104f357600080fd5b506104fc611642565b60405161050991906150c7565b60405180910390f35b34801561051e57600080fd5b5061053960048036038101906105349190615183565b611668565b005b34801561054757600080fd5b5061055061177e565b60405161055d91906151bf565b60405180910390f35b34801561057257600080fd5b5061057b611786565b60405161058891906151bf565b60405180910390f35b34801561059d57600080fd5b506105b860048036038101906105b39190615118565b61178c565b6040516105c591906151bf565b60405180910390f35b3480156105da57600080fd5b506105e36117ac565b6040516105f091906151bf565b60405180910390f35b34801561060557600080fd5b50610620600480360381019061061b9190615118565b6117b2565b60405161062d91906151bf565b60405180910390f35b34801561064257600080fd5b5061064b6117e9565b60405161065891906151bf565b60405180910390f35b34801561066d57600080fd5b5061067661188c565b60405161068391906151bf565b60405180910390f35b34801561069857600080fd5b506106a1611892565b6040516106ae91906151bf565b60405180910390f35b6106bf6118a4565b005b3480156106cd57600080fd5b506106d66119ce565b6040516106e391906151bf565b60405180910390f35b3480156106f857600080fd5b506107016119d4565b60405161070e91906151bf565b60405180910390f35b610731600480360381019061072c9190615118565b6119da565b005b34801561073f57600080fd5b5061075a60048036038101906107559190615118565b611e3e565b60405161076791906151bf565b60405180910390f35b61078a600480360381019061078591906151da565b611e5e565b005b6107a660048036038101906107a1919061501b565b6121ba565b005b3480156107b457600080fd5b506107cf60048036038101906107ca919061501b565b6122b8565b6040516107dc91906151bf565b60405180910390f35b3480156107f157600080fd5b506107fa6122fa565b60405161080791906151bf565b60405180910390f35b34801561081c57600080fd5b50610825612300565b60405161083291906151bf565b60405180910390f35b34801561084757600080fd5b50610850612306565b60405161085d91906151bf565b60405180910390f35b34801561087257600080fd5b5061087b61230c565b60405161088891906151bf565b60405180910390f35b34801561089d57600080fd5b506108a6612312565b6040516108b391906151bf565b60405180910390f35b3480156108c857600080fd5b506108d16123da565b6040516108de9190615235565b60405180910390f35b3480156108f357600080fd5b506108fc6123ed565b6040516109099190615271565b60405180910390f35b34801561091e57600080fd5b50610927612413565b60405161093491906151bf565b60405180910390f35b610945612419565b005b34801561095357600080fd5b5061096e60048036038101906109699190615118565b61253c565b60405161097b91906151bf565b60405180910390f35b61099e600480360381019061099991906151da565b61257d565b005b3480156109ac57600080fd5b506109c760048036038101906109c291906152ca565b612907565b005b3480156109d557600080fd5b506109de612a1a565b6040516109eb9190615318565b60405180910390f35b610a0e6004803603810190610a099190615183565b612a40565b005b348015610a1c57600080fd5b50610a25612b9f565b604051610a3291906151bf565b60405180910390f35b610a556004803603810190610a50919061501b565b612cf1565b005b610a716004803603810190610a6c9190615371565b612eec565b005b348015610a7f57600080fd5b50610a88613024565b604051610a9591906151bf565b60405180910390f35b610ab86004803603810190610ab3919061539e565b6130c7565b005b348015610ac657600080fd5b50610acf613345565b604051610adc91906151bf565b60405180910390f35b348015610af157600080fd5b50610afa61334b565b604051610b0791906153ed565b60405180910390f35b348015610b1c57600080fd5b50610b25613371565b604051610b3291906150c7565b60405180910390f35b610b556004803603810190610b5091906151da565b613397565b005b348015610b6357600080fd5b50610b6c613655565b604051610b7991906151bf565b60405180910390f35b610b8a61365b565b005b348015610b9857600080fd5b50610bb36004803603810190610bae9190615118565b613899565b604051610bc091906151bf565b60405180910390f35b610be36004803603810190610bde91906151da565b61391e565b005b348015610bf157600080fd5b50610bfa613bbb565b604051610c0791906151bf565b60405180910390f35b348015610c1c57600080fd5b50610c376004803603810190610c329190615118565b613bc1565b604051610c4491906151bf565b60405180910390f35b348015610c5957600080fd5b50610c62613bd3565b604051610c6f9190615429565b60405180910390f35b348015610c8457600080fd5b50610c8d613bf9565b604051610c9a9190615235565b60405180910390f35b610cbd6004803603810190610cb891906151da565b613c0c565b005b610cd96004803603810190610cd49190615118565b613e43565b005b610cf56004803603810190610cf09190615444565b614008565b005b348015610d0357600080fd5b50610d0c61418f565b604051610d1991906154a5565b60405180910390f35b348015610d2e57600080fd5b50610d496004803603810190610d449190615118565b6141b3565b604051610d5691906151bf565b60405180910390f35b348015610d6b57600080fd5b50610d746141d0565b604051610d8191906151bf565b60405180910390f35b348015610d9657600080fd5b50610d9f6141d6565b604051610dac91906151bf565b60405180910390f35b610dcf6004803603810190610dca91906154fe565b6141e8565b005b610deb6004803603810190610de69190615569565b614320565b005b348015610df957600080fd5b50610e02614458565b604051610e0f9190615429565b60405180910390f35b610e326004803603810190610e2d9190615371565b61447e565b005b348015610e4057600080fd5b50610e496145b6565b604051610e5691906151bf565b60405180910390f35b348015610e6b57600080fd5b50610e866004803603810190610e819190615118565b6145bc565b604051610e9391906153ed565b60405180910390f35b348015610ea857600080fd5b50610eb16145fc565b604051610ebe91906151bf565b60405180910390f35b348015610ed357600080fd5b50610eee6004803603810190610ee9919061501b565b614616565b604051610efb91906151bf565b60405180910390f35b348015610f1057600080fd5b50610f2b6004803603810190610f269190615118565b61463b565b604051610f389190615235565b60405180910390f35b348015610f4d57600080fd5b50610f5661471f565b604051610f6391906153ed565b60405180910390f35b348015610f7857600080fd5b50610f81614745565b604051610f8e91906155b7565b60405180910390f35b348015610fa357600080fd5b50610fbe6004803603810190610fb9919061501b565b61476b565b005b348015610fcc57600080fd5b50610fe76004803603810190610fe29190615118565b614805565b604051610ff491906151bf565b60405180910390f35b611005614835565b60405161101291906155e1565b60405180910390f35b34801561102757600080fd5b50611030614999565b60405161103d91906153ed565b60405180910390f35b34801561105257600080fd5b5061106d60048036038101906110689190615118565b6149bf565b60405161108097969594939291906155fc565b60405180910390f35b6000806004359150602435905080823373ffffffffffffffffffffffffffffffffffffffff166000357fffffffff00000000000000000000000000000000000000000000000000000000167bffffffffffffffffffffffffffffffffffffffffffffffffffffffff191634600036604051611106939291906156c9565b60405180910390a4601260009054906101000a900460ff161561112857600080fd5b600061113384614616565b1161113d57600080fd5b600560009054906101000a900473ffffffffffffffffffffffffffffffffffffffff1673ffffffffffffffffffffffffffffffffffffffff166323b872dd333061118687614616565b6040518463ffffffff1660e01b81526004016111a4939291906156fb565b6020604051808303816000875af11580156111c3573d6000803e3d6000fd5b505050506040513d601f19601f820116820180604052508101906111e7919061575e565b6111f057600080fd5b600460009054906101000a900473ffffffffffffffffffffffffffffffffffffffff1673ffffffffffffffffffffffffffffffffffffffff166340c10f1933856040518363ffffffff1660e01b815260040161124d92919061578b565b600060405180830381600087803b15801561126757600080fd5b505af115801561127b573d6000803e3d6000fd5b50505050505050565b600360009054906101000a900473ffffffffffffffffffffffffffffffffffffffff1681565b6019600082815260200190815260200160002060000160009054906101000a900473ffffffffffffffffffffffffffffffffffffffff1673ffffffffffffffffffffffffffffffffffffffff163373ffffffffffffffffffffffffffffffffffffffff161461131857600080fd5b6000601960008381526020019081526020016000206001015403611371576040517f08c379a000000000000000000000000000000000000000000000000000000000815260040161136890615811565b60405180910390fd5b60006019600083815260200190815260200160002060020154036113ca576040517f08c379a00000000000000000000000000000000000000000000000000000000081526004016113c19061587d565b60405180910390fd5b6113d38161463b565b611412576040517f08c379a0000000000000000000000000000000000000000000000000000000008152600401611409906158e9565b60405180910390fd5b6021546114416114218361178c565b61142a84614805565b611432612312565b61143c9190615967565b614a21565b10611481576040517f08c379a000000000000000000000000000000000000000000000000000000000815260040161147890615a0a565b60405180910390fd5b601c5460196000838152602001908152602001600020600401546114a59190615a2a565b4210156114e7576040517f08c379a00000000000000000000000000000000000000000000000000000000081526004016114de90615aaa565b60405180910390fd5b60006114f2826117b2565b9050600081111561161857611523816020600085815260200190815260200160002054614a6d90919063ffffffff16565b60206000848152602001908152602001600020819055503373ffffffffffffffffffffffffffffffffffffffff167f0fb2ffd41401cdebe76e1a7cdcaed20ad31cf8d215f8209b73ec00525cb8d6868260405161158091906151bf565b60405180910390a2602260009054906101000a900473ffffffffffffffffffffffffffffffffffffffff1673ffffffffffffffffffffffffffffffffffffffff16631b7623be33836040518363ffffffff1660e01b81526004016115e592919061578b565b600060405180830381600087803b1580156115ff57600080fd5b505af1158015611613573d6000803e3d6000fd5b505050505b5050565b600460009054906101000a900473ffffffffffffffffffffffffffffffffffffffff1681565b600660009054906101000a900473ffffffffffffffffffffffffffffffffffffffff1681565b611696336000357fffffffff0000000000000000000000000000000000000000000000000000000016614a94565b6116d5576040517f08c379a00000000000000000000000000000000000000000000000000000000081526004016116cc90615b16565b60405180910390fd5b80600160006101000a81548173ffffffffffffffffffffffffffffffffffffffff021916908373ffffffffffffffffffffffffffffffffffffffff160217905550600160009054906101000a900473ffffffffffffffffffffffffffffffffffffffff1673ffffffffffffffffffffffffffffffffffffffff167fce241d7ca1f669fee44b6fc00b8eba2df3bb514eed0f6f668f8f89096e81ed9460405160405180910390a250565b600042905090565b601b5481565b600060196000838152602001908152602001600020600101549050919050565b60145481565b60006117e260206000848152602001908152602001600020546117d484613899565b614c3490919063ffffffff16565b9050919050565b6000600460009054906101000a900473ffffffffffffffffffffffffffffffffffffffff1673ffffffffffffffffffffffffffffffffffffffff166370a08231306040518263ffffffff1660e01b815260040161184691906153ed565b602060405180830381865afa158015611863573d6000803e3d6000fd5b505050506040513d601f19601f820116820180604052508101906118879190615b4b565b905090565b601a5481565b600061189c61365b565b601654905090565b6000806004359150602435905080823373ffffffffffffffffffffffffffffffffffffffff166000357fffffffff00000000000000000000000000000000000000000000000000000000167bffffffffffffffffffffffffffffffffffffffffffffffffffffffff191634600036604051611921939291906156c9565b60405180910390a4611957336000357fffffffff0000000000000000000000000000000000000000000000000000000016614a94565b611996576040517f08c379a000000000000000000000000000000000000000000000000000000000815260040161198d90615b16565b60405180910390fd5b601260009054906101000a900460ff166119af57600080fd5b6001601260016101000a81548160ff0219169083151502179055505050565b600d5481565b60215481565b6000806004359150602435905080823373ffffffffffffffffffffffffffffffffffffffff166000357fffffffff00000000000000000000000000000000000000000000000000000000167bffffffffffffffffffffffffffffffffffffffffffffffffffffffff191634600036604051611a57939291906156c9565b60405180910390a4611a688361463b565b1580611a805750601260009054906101000a900460ff165b611a8957600080fd5b6000611a9484614805565b9050600360009054906101000a900473ffffffffffffffffffffffffffffffffffffffff1673ffffffffffffffffffffffffffffffffffffffff166340c10f19600a60009054906101000a900473ffffffffffffffffffffffffffffffffffffffff16836040518363ffffffff1660e01b8152600401611b1592919061578b565b600060405180830381600087803b158015611b2f57600080fd5b505af1158015611b43573d6000803e3d6000fd5b50505050611b696017546019600087815260200190815260200160002060020154614c5b565b60178190555060006019600086815260200190815260200160002060020181905550600060196000868152602001908152602001600020600301819055506000611c60611c53611bbb84600c54614a21565b600760009054906101000a900473ffffffffffffffffffffffffffffffffffffffff1673ffffffffffffffffffffffffffffffffffffffff1663495d32cb6040518163ffffffff1660e01b81526004016020604051808303816000875af1158015611c2a573d6000803e3d6000fd5b505050506040513d601f19601f82011682018060405250810190611c4e9190615b4b565b614a21565b611c5b612312565b614cb4565b90506019600086815260200190815260200160002060010154811115611c9a57601960008681526020019081526020016000206001015490505b600460009054906101000a900473ffffffffffffffffffffffffffffffffffffffff1673ffffffffffffffffffffffffffffffffffffffff1663b753a98c600a60009054906101000a900473ffffffffffffffffffffffffffffffffffffffff16836040518363ffffffff1660e01b8152600401611d1992919061578b565b600060405180830381600087803b158015611d3357600080fd5b505af1158015611d47573d6000803e3d6000fd5b50505050611d57601e5482614c5b565b601e81905550611d7d601960008781526020019081526020016000206001015482614c5b565b60196000878152602001908152602001600020600101819055506000601960008781526020019081526020016000206001015403611dec576000601f60008781526020019081526020016000208190555060006020600087815260200190815260200160002081905550611e37565b611e1f611e1a6019600088815260200190815260200160002060010154601d54614cf490919063ffffffff16565b614d36565b601f6000878152602001908152602001600020819055505b5050505050565b600060196000838152602001908152602001600020600201549050919050565b6000806004359150602435905080823373ffffffffffffffffffffffffffffffffffffffff166000357fffffffff00000000000000000000000000000000000000000000000000000000167bffffffffffffffffffffffffffffffffffffffffffffffffffffffff191634600036604051611edb939291906156c9565b60405180910390a4601260009054906101000a900460ff1615611efd57600080fd5b6019600085815260200190815260200160002060000160009054906101000a900473ffffffffffffffffffffffffffffffffffffffff1673ffffffffffffffffffffffffffffffffffffffff163373ffffffffffffffffffffffffffffffffffffffff1614611f6b57600080fd5b6000611f7e84611f796141d6565b614cb4565b11611f8857600080fd5b611fb86019600086815260200190815260200160002060020154611fb385611fae6141d6565b614cb4565b614d53565b6019600086815260200190815260200160002060020181905550611fee601754611fe985611fe46141d6565b614cb4565b614d53565b601781905550612024601960008681526020019081526020016000206003015461201f8561201a611892565b614cb4565b614d53565b6019600086815260200190815260200160002060030181905550600260009054906101000a900473ffffffffffffffffffffffffffffffffffffffff1673ffffffffffffffffffffffffffffffffffffffff166340c10f196019600087815260200190815260200160002060000160009054906101000a900473ffffffffffffffffffffffffffffffffffffffff16856040518363ffffffff1660e01b81526004016120d192919061578b565b600060405180830381600087803b1580156120eb57600080fd5b505af11580156120ff573d6000803e3d6000fd5b5050505061210c8461463b565b61211557600080fd5b600d54600260009054906101000a900473ffffffffffffffffffffffffffffffffffffffff1673ffffffffffffffffffffffffffffffffffffffff166318160ddd6040518163ffffffff1660e01b8152600401602060405180830381865afa158015612185573d6000803e3d6000fd5b505050506040513d601f19601f820116820180604052508101906121a99190615b4b565b11156121b457600080fd5b50505050565b6000806004359150602435905080823373ffffffffffffffffffffffffffffffffffffffff166000357fffffffff00000000000000000000000000000000000000000000000000000000167bffffffffffffffffffffffffffffffffffffffffffffffffffffffff191634600036604051612237939291906156c9565b60405180910390a461226d336000357fffffffff0000000000000000000000000000000000000000000000000000000016614a94565b6122ac576040517f08c379a00000000000000000000000000000000000000000000000000000000081526004016122a390615b16565b60405180910390fd5b82601c81905550505050565b60006122f3826122ee6122c9612b9f565b6122e9670de0b6b3a764000060026122e19190615b78565b601154614c5b565b614dac565b614a21565b9050919050565b601c5481565b60185481565b601e5481565b600c5481565b6000601260009054906101000a900460ff166123d1576123cc612333612b9f565b600860009054906101000a900473ffffffffffffffffffffffffffffffffffffffff1673ffffffffffffffffffffffffffffffffffffffff166357de26a46040518163ffffffff1660e01b8152600401602060405180830381865afa1580156123a0573d6000803e3d6000fd5b505050506040513d601f19601f820116820180604052508101906123c49190615bcf565b60001c614dac565b6123d5565b6013545b905090565b601260009054906101000a900460ff1681565b600760009054906101000a900473ffffffffffffffffffffffffffffffffffffffff1681565b60115481565b6000341161242657600080fd5b6000601e541161243557600080fd5b61247a601e5461245f70010000000000000000000000000000000034614cf490919063ffffffff16565b6124699190615967565b601d54614a6d90919063ffffffff16565b601d819055507f16e86f0348c2880f6112ec2396e38fef8719fec83b2969fb4718793642c39b2a346040516124af91906151bf565b60405180910390a1602260009054906101000a900473ffffffffffffffffffffffffffffffffffffffff1673ffffffffffffffffffffffffffffffffffffffff1663d0e30db0346040518263ffffffff1660e01b81526004016000604051808303818588803b15801561252157600080fd5b505af1158015612535573d6000803e3d6000fd5b5050505050565b60006125766125686019600085815260200190815260200160002060030154612563611892565b614a21565b61257184614805565b614c5b565b9050919050565b6000806004359150602435905080823373ffffffffffffffffffffffffffffffffffffffff166000357fffffffff00000000000000000000000000000000000000000000000000000000167bffffffffffffffffffffffffffffffffffffffffffffffffffffffff1916346000366040516125fa939291906156c9565b60405180910390a4601260009054906101000a900460ff161561261c57600080fd5b60006126418461263c61262e8861253c565b61263789614805565b614cb4565b614a21565b9050612673601960008781526020019081526020016000206002015461266e866126696141d6565b614cb4565b614c5b565b60196000878152602001908152602001600020600201819055506126a96017546126a48661269f6141d6565b614cb4565b614c5b565b6017819055506126e860196000878152602001908152602001600020600301546126e36126d68785614d53565b6126de611892565b614cb4565b614c5b565b6019600087815260200190815260200160002060030181905550600260009054906101000a900473ffffffffffffffffffffffffffffffffffffffff1673ffffffffffffffffffffffffffffffffffffffff16639dc29fac33866040518363ffffffff1660e01b815260040161275f92919061578b565b600060405180830381600087803b15801561277957600080fd5b505af115801561278d573d6000803e3d6000fd5b50505050600080600960009054906101000a900473ffffffffffffffffffffffffffffffffffffffff1673ffffffffffffffffffffffffffffffffffffffff166359e02dd76040518163ffffffff1660e01b81526004016040805180830381865afa158015612800573d6000803e3d6000fd5b505050506040513d601f19601f820116820180604052508101906128249190615bfc565b91509150808015612839575060008260001c14155b156128fe57600660009054906101000a900473ffffffffffffffffffffffffffffffffffffffff1673ffffffffffffffffffffffffffffffffffffffff1663bb35783b33600b60009054906101000a900473ffffffffffffffffffffffffffffffffffffffff166128ad878760001c614df0565b6040518463ffffffff1660e01b81526004016128cb939291906156fb565b600060405180830381600087803b1580156128e557600080fd5b505af11580156128f9573d6000803e3d6000fd5b505050505b50505050505050565b612935336000357fffffffff0000000000000000000000000000000000000000000000000000000016614a94565b612974576040517f08c379a000000000000000000000000000000000000000000000000000000000815260040161296b90615b16565b60405180910390fd5b806000806101000a81548173ffffffffffffffffffffffffffffffffffffffff021916908373ffffffffffffffffffffffffffffffffffffffff16021790555060008054906101000a900473ffffffffffffffffffffffffffffffffffffffff1673ffffffffffffffffffffffffffffffffffffffff167f1abebea81bfa2637f28358c371278fb15ede7ea8dd28d2e03b112ff6d936ada460405160405180910390a250565b600560009054906101000a900473ffffffffffffffffffffffffffffffffffffffff1681565b6000806004359150602435905080823373ffffffffffffffffffffffffffffffffffffffff166000357fffffffff00000000000000000000000000000000000000000000000000000000167bffffffffffffffffffffffffffffffffffffffffffffffffffffffff191634600036604051612abd939291906156c9565b60405180910390a4600073ffffffffffffffffffffffffffffffffffffffff16600a60009054906101000a900473ffffffffffffffffffffffffffffffffffffffff1673ffffffffffffffffffffffffffffffffffffffff1614612b2057600080fd5b600073ffffffffffffffffffffffffffffffffffffffff168373ffffffffffffffffffffffffffffffffffffffff1603612b5957600080fd5b82600a60006101000a81548173ffffffffffffffffffffffffffffffffffffffff021916908373ffffffffffffffffffffffffffffffffffffffff160217905550505050565b600080600460009054906101000a900473ffffffffffffffffffffffffffffffffffffffff1673ffffffffffffffffffffffffffffffffffffffff166318160ddd6040518163ffffffff1660e01b8152600401602060405180830381865afa158015612c0f573d6000803e3d6000fd5b505050506040513d601f19601f82011682018060405250810190612c339190615b4b565b14612cde57612cd9612c43613024565b600460009054906101000a900473ffffffffffffffffffffffffffffffffffffffff1673ffffffffffffffffffffffffffffffffffffffff166318160ddd6040518163ffffffff1660e01b8152600401602060405180830381865afa158015612cb0573d6000803e3d6000fd5b505050506040513d601f19601f82011682018060405250810190612cd49190615b4b565b614cb4565b612cec565b6b033b2e3c9fd0803ce80000005b905090565b6000806004359150602435905080823373ffffffffffffffffffffffffffffffffffffffff166000357fffffffff00000000000000000000000000000000000000000000000000000000167bffffffffffffffffffffffffffffffffffffffffffffffffffffffff191634600036604051612d6e939291906156c9565b60405180910390a4601260009054906101000a900460ff161580612d9e5750601260019054906101000a900460ff165b612da757600080fd5b600560009054906101000a900473ffffffffffffffffffffffffffffffffffffffff1673ffffffffffffffffffffffffffffffffffffffff1663a9059cbb33612def866122b8565b6040518363ffffffff1660e01b8152600401612e0c92919061578b565b6020604051808303816000875af1158015612e2b573d6000803e3d6000fd5b505050506040513d601f19601f82011682018060405250810190612e4f919061575e565b612e5857600080fd5b600460009054906101000a900473ffffffffffffffffffffffffffffffffffffffff1673ffffffffffffffffffffffffffffffffffffffff16639dc29fac33856040518363ffffffff1660e01b8152600401612eb592919061578b565b600060405180830381600087803b158015612ecf57600080fd5b505af1158015612ee3573d6000803e3d6000fd5b50505050505050565b6000806004359150602435905080823373ffffffffffffffffffffffffffffffffffffffff166000357fffffffff00000000000000000000000000000000000000000000000000000000167bffffffffffffffffffffffffffffffffffffffffffffffffffffffff191634600036604051612f69939291906156c9565b60405180910390a4612f9f336000357fffffffff0000000000000000000000000000000000000000000000000000000016614a94565b612fde576040517f08c379a0000000000000000000000000000000000000000000000000000000008152600401612fd590615b16565b60405180910390fd5b82600860006101000a81548173ffffffffffffffffffffffffffffffffffffffff021916908373ffffffffffffffffffffffffffffffffffffffff160217905550505050565b6000600560009054906101000a900473ffffffffffffffffffffffffffffffffffffffff1673ffffffffffffffffffffffffffffffffffffffff166370a08231306040518263ffffffff1660e01b815260040161308191906153ed565b602060405180830381865afa15801561309e573d6000803e3d6000fd5b505050506040513d601f19601f820116820180604052508101906130c29190615b4b565b905090565b6000806004359150602435905080823373ffffffffffffffffffffffffffffffffffffffff166000357fffffffff00000000000000000000000000000000000000000000000000000000167bffffffffffffffffffffffffffffffffffffffffffffffffffffffff191634600036604051613144939291906156c9565b60405180910390a461317a336000357fffffffff0000000000000000000000000000000000000000000000000000000016614a94565b6131b9576040517f08c379a00000000000000000000000000000000000000000000000000000000081526004016131b090615b16565b60405180910390fd5b601260009054906101000a900460ff161580156131d7575060008414155b6131e057600080fd5b6001601260006101000a81548160ff0219169083151502179055506b033b2e3c9fd0803ce8000000600c81905550670de0b6b3a764000060118190555083601381905550600560009054906101000a900473ffffffffffffffffffffffffffffffffffffffff1673ffffffffffffffffffffffffffffffffffffffff1663a9059cbb600a60009054906101000a900473ffffffffffffffffffffffffffffffffffffffff16856040518363ffffffff1660e01b81526004016132a392919061578b565b6020604051808303816000875af11580156132c2573d6000803e3d6000fd5b505050506040513d601f19601f820116820180604052508101906132e6919061575e565b6132ef57600080fd5b6b033b2e3c9fd0803ce8000000600c541461333f576040517f08c379a000000000000000000000000000000000000000000000000000000000815260040161333690615c88565b60405180910390fd5b50505050565b60175481565b600160009054906101000a900473ffffffffffffffffffffffffffffffffffffffff1681565b600260009054906101000a900473ffffffffffffffffffffffffffffffffffffffff1681565b6000806004359150602435905080823373ffffffffffffffffffffffffffffffffffffffff166000357fffffffff00000000000000000000000000000000000000000000000000000000167bffffffffffffffffffffffffffffffffffffffffffffffffffffffff191634600036604051613414939291906156c9565b60405180910390a461344a336000357fffffffff0000000000000000000000000000000000000000000000000000000016614a94565b613489576040517f08c379a000000000000000000000000000000000000000000000000000000000815260040161348090615b16565b60405180910390fd5b7f636170000000000000000000000000000000000000000000000000000000000084036134bc5782600d8190555061364e565b7f6d617400000000000000000000000000000000000000000000000000000000008403613508576b033b2e3c9fd0803ce80000008310156134fc57600080fd5b82600e8190555061364d565b7f7461780000000000000000000000000000000000000000000000000000000000840361355c576b033b2e3c9fd0803ce800000083101561354857600080fd5b61355061365b565b82600f8190555061364c565b7f666565000000000000000000000000000000000000000000000000000000000084036135b0576b033b2e3c9fd0803ce800000083101561359c57600080fd5b6135a461365b565b8260108190555061364b565b7f617865000000000000000000000000000000000000000000000000000000000084036135fc576b033b2e3c9fd0803ce80000008310156135f057600080fd5b82600c8190555061364a565b7f6761700000000000000000000000000000000000000000000000000000000000840361364457670de0b6b3a764000083101561363857600080fd5b82601181905550613649565b61364f565b5b5b5b5b5b5b50505050565b600f5481565b6000806004359150602435905080823373ffffffffffffffffffffffffffffffffffffffff166000357fffffffff00000000000000000000000000000000000000000000000000000000167bffffffffffffffffffffffffffffffffffffffffffffffffffffffff1916346000366040516136d8939291906156c9565b60405180910390a4601260009054906101000a900460ff166138955760006136fe61177e565b90506000601454826137109190615ca8565b905060008103613721575050613895565b8160148190555060006b033b2e3c9fd0803ce800000090506b033b2e3c9fd0803ce8000000600f541461383e5760006015549050613761600f5484614e2c565b915061376f60155483614a21565b601581905550600260009054906101000a900473ffffffffffffffffffffffffffffffffffffffff1673ffffffffffffffffffffffffffffffffffffffff166340c10f19600a60009054906101000a900473ffffffffffffffffffffffffffffffffffffffff166137ed6137e560155486614c5b565b601754614a21565b6040518363ffffffff1660e01b815260040161380a92919061578b565b600060405180830381600087803b15801561382457600080fd5b505af1158015613838573d6000803e3d6000fd5b50505050505b6b033b2e3c9fd0803ce80000006010541461386b576138688161386360105485614e2c565b614a21565b90505b6b033b2e3c9fd0803ce800000081146138915761388a60165482614a21565b6016819055505b5050505b5050565b600070010000000000000000000000000000000061390d613908601f6000868152602001908152602001600020546138fa6138f56019600089815260200190815260200160002060010154601d54614cf490919063ffffffff16565b614d36565b614eb690919063ffffffff16565b614f01565b6139179190615967565b9050919050565b6000806004359150602435905080823373ffffffffffffffffffffffffffffffffffffffff166000357fffffffff00000000000000000000000000000000000000000000000000000000167bffffffffffffffffffffffffffffffffffffffffffffffffffffffff19163460003660405161399b939291906156c9565b60405180910390a46019600085815260200190815260200160002060000160009054906101000a900473ffffffffffffffffffffffffffffffffffffffff1673ffffffffffffffffffffffffffffffffffffffff163373ffffffffffffffffffffffffffffffffffffffff1614613a1157600080fd5b613a1d601e5484614c5b565b601e81905550613a65613a43613a3e85601d54614cf490919063ffffffff16565b614d36565b601f600087815260200190815260200160002054614eb690919063ffffffff16565b601f600086815260200190815260200160002081905550613a9c601960008681526020019081526020016000206001015484614c5b565b6019600086815260200190815260200160002060010181905550600460009054906101000a900473ffffffffffffffffffffffffffffffffffffffff1673ffffffffffffffffffffffffffffffffffffffff166323b872dd3033866040518463ffffffff1660e01b8152600401613b15939291906156fb565b6020604051808303816000875af1158015613b34573d6000803e3d6000fd5b505050506040513d601f19601f82011682018060405250810190613b58919061575e565b50613b628461463b565b613b6b57600080fd5b600060196000868152602001908152602001600020600101541480613bac57506611c37937e080006019600086815260200190815260200160002060010154115b613bb557600080fd5b50505050565b600e5481565b6000613bcc826117b2565b9050919050565b600960009054906101000a900473ffffffffffffffffffffffffffffffffffffffff1681565b601260019054906101000a900460ff1681565b6000806004359150602435905080823373ffffffffffffffffffffffffffffffffffffffff166000357fffffffff00000000000000000000000000000000000000000000000000000000167bffffffffffffffffffffffffffffffffffffffffffffffffffffffff191634600036604051613c89939291906156c9565b60405180910390a4601260009054906101000a900460ff1615613cab57600080fd5b613cb7601e5484614d53565b601e81905550613cff613cdd613cd885601d54614cf490919063ffffffff16565b614d36565b601f600087815260200190815260200160002054614f1890919063ffffffff16565b601f600086815260200190815260200160002081905550613d36601960008681526020019081526020016000206001015484614d53565b6019600086815260200190815260200160002060010181905550600460009054906101000a900473ffffffffffffffffffffffffffffffffffffffff1673ffffffffffffffffffffffffffffffffffffffff166323b872dd3330866040518463ffffffff1660e01b8152600401613daf939291906156fb565b6020604051808303816000875af1158015613dce573d6000803e3d6000fd5b505050506040513d601f19601f82011682018060405250810190613df2919061575e565b50600060196000868152602001908152602001600020600101541480613e3457506611c37937e080006019600086815260200190815260200160002060010154115b613e3d57600080fd5b50505050565b6000806004359150602435905080823373ffffffffffffffffffffffffffffffffffffffff166000357fffffffff00000000000000000000000000000000000000000000000000000000167bffffffffffffffffffffffffffffffffffffffffffffffffffffffff191634600036604051613ec0939291906156c9565b60405180910390a4601260009054906101000a900460ff1615613ee257600080fd5b6019600084815260200190815260200160002060000160009054906101000a900473ffffffffffffffffffffffffffffffffffffffff1673ffffffffffffffffffffffffffffffffffffffff163373ffffffffffffffffffffffffffffffffffffffff1614613f5057600080fd5b6000613f5b84614805565b14613f7357613f7283613f6d85614805565b61257d565b5b6000613f7e8461178c565b14613f9657613f9583613f908561178c565b61391e565b5b60196000848152602001908152602001600020600080820160006101000a81549073ffffffffffffffffffffffffffffffffffffffff02191690556001820160009055600282016000905560038201600090556004820160009055600582016000905560068201600090555050505050565b6000806004359150602435905080823373ffffffffffffffffffffffffffffffffffffffff166000357fffffffff00000000000000000000000000000000000000000000000000000000167bffffffffffffffffffffffffffffffffffffffffffffffffffffffff191634600036604051614085939291906156c9565b60405180910390a46019600085815260200190815260200160002060000160009054906101000a900473ffffffffffffffffffffffffffffffffffffffff1673ffffffffffffffffffffffffffffffffffffffff163373ffffffffffffffffffffffffffffffffffffffff16146140fb57600080fd5b600073ffffffffffffffffffffffffffffffffffffffff168373ffffffffffffffffffffffffffffffffffffffff160361413457600080fd5b826019600086815260200190815260200160002060000160006101000a81548173ffffffffffffffffffffffffffffffffffffffff021916908373ffffffffffffffffffffffffffffffffffffffff16021790555050505050565b60008054906101000a900473ffffffffffffffffffffffffffffffffffffffff1681565b600060206000838152602001908152602001600020549050919050565b60135481565b60006141e061365b565b601554905090565b6000806004359150602435905080823373ffffffffffffffffffffffffffffffffffffffff166000357fffffffff00000000000000000000000000000000000000000000000000000000167bffffffffffffffffffffffffffffffffffffffffffffffffffffffff191634600036604051614265939291906156c9565b60405180910390a461429b336000357fffffffff0000000000000000000000000000000000000000000000000000000016614a94565b6142da576040517f08c379a00000000000000000000000000000000000000000000000000000000081526004016142d190615b16565b60405180910390fd5b82602260006101000a81548173ffffffffffffffffffffffffffffffffffffffff021916908373ffffffffffffffffffffffffffffffffffffffff160217905550505050565b6000806004359150602435905080823373ffffffffffffffffffffffffffffffffffffffff166000357fffffffff00000000000000000000000000000000000000000000000000000000167bffffffffffffffffffffffffffffffffffffffffffffffffffffffff19163460003660405161439d939291906156c9565b60405180910390a46143d3336000357fffffffff0000000000000000000000000000000000000000000000000000000016614a94565b614412576040517f08c379a000000000000000000000000000000000000000000000000000000000815260040161440990615b16565b60405180910390fd5b82600760006101000a81548173ffffffffffffffffffffffffffffffffffffffff021916908373ffffffffffffffffffffffffffffffffffffffff160217905550505050565b600860009054906101000a900473ffffffffffffffffffffffffffffffffffffffff1681565b6000806004359150602435905080823373ffffffffffffffffffffffffffffffffffffffff166000357fffffffff00000000000000000000000000000000000000000000000000000000167bffffffffffffffffffffffffffffffffffffffffffffffffffffffff1916346000366040516144fb939291906156c9565b60405180910390a4614531336000357fffffffff0000000000000000000000000000000000000000000000000000000016614a94565b614570576040517f08c379a000000000000000000000000000000000000000000000000000000000815260040161456790615b16565b60405180910390fd5b82600960006101000a81548173ffffffffffffffffffffffffffffffffffffffff021916908373ffffffffffffffffffffffffffffffffffffffff160217905550505050565b60105481565b60006019600083815260200190815260200160002060000160009054906101000a900473ffffffffffffffffffffffffffffffffffffffff169050919050565b600061461160175461460c6141d6565b614a21565b905090565b60006146348261462f614627612b9f565b601154614dac565b614a21565b9050919050565b600080614657614649612312565b6146528561178c565b614a21565b905060006146ff600760009054906101000a900473ffffffffffffffffffffffffffffffffffffffff1673ffffffffffffffffffffffffffffffffffffffff1663495d32cb6040518163ffffffff1660e01b81526004016020604051808303816000875af11580156146cd573d6000803e3d6000fd5b505050506040513d601f19601f820116820180604052508101906146f19190615b4b565b6146fa86614805565b614a21565b9050600061470f82600e54614a21565b9050808310159350505050919050565b600b60009054906101000a900473ffffffffffffffffffffffffffffffffffffffff1681565b602260009054906101000a900473ffffffffffffffffffffffffffffffffffffffff1681565b614799336000357fffffffff0000000000000000000000000000000000000000000000000000000016614a94565b6147d8576040517f08c379a00000000000000000000000000000000000000000000000000000000081526004016147cf90615b16565b60405180910390fd5b600a6b033b2e3c9fd0803ce8000000826147f29190615b78565b6147fc9190615967565b60218190555050565b600061482e60196000848152602001908152602001600020600201546148296141d6565b614a21565b9050919050565b60008060006004359150602435905080823373ffffffffffffffffffffffffffffffffffffffff166000357fffffffff00000000000000000000000000000000000000000000000000000000167bffffffffffffffffffffffffffffffffffffffffffffffffffffffff1916346000366040516148b4939291906156c9565b60405180910390a4601260009054906101000a900460ff16156148d657600080fd5b6148e36018546001614d53565b60188190555060185460001b9250336019600085815260200190815260200160002060000160006101000a81548173ffffffffffffffffffffffffffffffffffffffff021916908373ffffffffffffffffffffffffffffffffffffffff1602179055503373ffffffffffffffffffffffffffffffffffffffff167f89b8893b806db50897c8e2362c71571cfaeb9761ee40727f683f1793cda9df168460405161498c91906155e1565b60405180910390a2505090565b600a60009054906101000a900473ffffffffffffffffffffffffffffffffffffffff1681565b60196020528060005260406000206000915090508060000160009054906101000a900473ffffffffffffffffffffffffffffffffffffffff16908060010154908060020154908060030154908060040154908060050154908060060154905087565b60006b033b2e3c9fd0803ce8000000614a5b614a3d8585614f73565b60026b033b2e3c9fd0803ce8000000614a569190615967565b614d53565b614a659190615967565b905092915050565b60008183614a7b9190615a2a565b905082811015614a8e57614a8d615cdc565b5b92915050565b60003073ffffffffffffffffffffffffffffffffffffffff168373ffffffffffffffffffffffffffffffffffffffff1603614ad25760019050614c2e565b600160009054906101000a900473ffffffffffffffffffffffffffffffffffffffff1673ffffffffffffffffffffffffffffffffffffffff168373ffffffffffffffffffffffffffffffffffffffff1603614b305760019050614c2e565b600073ffffffffffffffffffffffffffffffffffffffff1660008054906101000a900473ffffffffffffffffffffffffffffffffffffffff1673ffffffffffffffffffffffffffffffffffffffff1603614b8d5760009050614c2e565b60008054906101000a900473ffffffffffffffffffffffffffffffffffffffff1673ffffffffffffffffffffffffffffffffffffffff1663b70096138430856040518463ffffffff1660e01b8152600401614bea93929190615d46565b602060405180830381865afa158015614c07573d6000803e3d6000fd5b505050506040513d601f19601f82011682018060405250810190614c2b919061575e565b90505b92915050565b600082821115614c4757614c46615cdc565b5b8183614c539190615ca8565b905092915050565b6000828284614c6a9190615ca8565b9150811115614cae576040517f08c379a0000000000000000000000000000000000000000000000000000000008152600401614ca590615dc9565b60405180910390fd5b92915050565b600081614ce2614cd0856b033b2e3c9fd0803ce8000000614f73565b600285614cdd9190615967565b614d53565b614cec9190615967565b905092915050565b6000808303614d065760009050614d30565b8183614d129190615b78565b9050818382614d219190615967565b14614d2f57614d2e615cdc565b5b5b92915050565b6000808290506000811215614d4a57600080fd5b80915050919050565b6000828284614d629190615a2a565b9150811015614da6576040517f08c379a0000000000000000000000000000000000000000000000000000000008152600401614d9d90615e35565b60405180910390fd5b92915050565b6000670de0b6b3a7640000614dde614dc48585614f73565b6002670de0b6b3a7640000614dd99190615967565b614d53565b614de89190615967565b905092915050565b600081614e1a614e0885670de0b6b3a7640000614f73565b600285614e159190615967565b614d53565b614e249190615967565b905092915050565b600080600283614e3c9190615e55565b03614e53576b033b2e3c9fd0803ce8000000614e55565b825b9050600282614e649190615967565b91505b60008214614eb057614e798384614a21565b92506000600283614e8a9190615e55565b14614e9c57614e998184614a21565b90505b600282614ea99190615967565b9150614e67565b92915050565b6000808284614ec59190615e90565b905060008312158015614ed85750838112155b80614eee5750600083128015614eed57508381125b5b614ef757600080fd5b8091505092915050565b600080821215614f1057600080fd5b819050919050565b6000808212158015614f355750828284614f329190615ed4565b13155b80614f565750600082128015614f555750828284614f539190615ed4565b135b5b614f5f57600080fd5b8183614f6b9190615ed4565b905092915050565b600080821480614f9b575082828385614f8c9190615b78565b925082614f999190615967565b145b614fda576040517f08c379a0000000000000000000000000000000000000000000000000000000008152600401614fd190615f63565b60405180910390fd5b92915050565b600080fd5b6000819050919050565b614ff881614fe5565b811461500357600080fd5b50565b60008135905061501581614fef565b92915050565b60006020828403121561503157615030614fe0565b5b600061503f84828501615006565b91505092915050565b600073ffffffffffffffffffffffffffffffffffffffff82169050919050565b6000819050919050565b600061508d61508861508384615048565b615068565b615048565b9050919050565b600061509f82615072565b9050919050565b60006150b182615094565b9050919050565b6150c1816150a6565b82525050565b60006020820190506150dc60008301846150b8565b92915050565b6000819050919050565b6150f5816150e2565b811461510057600080fd5b50565b600081359050615112816150ec565b92915050565b60006020828403121561512e5761512d614fe0565b5b600061513c84828501615103565b91505092915050565b600061515082615048565b9050919050565b61516081615145565b811461516b57600080fd5b50565b60008135905061517d81615157565b92915050565b60006020828403121561519957615198614fe0565b5b60006151a78482850161516e565b91505092915050565b6151b981614fe5565b82525050565b60006020820190506151d460008301846151b0565b92915050565b600080604083850312156151f1576151f0614fe0565b5b60006151ff85828601615103565b925050602061521085828601615006565b9150509250929050565b60008115159050919050565b61522f8161521a565b82525050565b600060208201905061524a6000830184615226565b92915050565b600061525b82615094565b9050919050565b61526b81615250565b82525050565b60006020820190506152866000830184615262565b92915050565b600061529782615145565b9050919050565b6152a78161528c565b81146152b257600080fd5b50565b6000813590506152c48161529e565b92915050565b6000602082840312156152e0576152df614fe0565b5b60006152ee848285016152b5565b91505092915050565b600061530282615094565b9050919050565b615312816152f7565b82525050565b600060208201905061532d6000830184615309565b92915050565b600061533e82615145565b9050919050565b61534e81615333565b811461535957600080fd5b50565b60008135905061536b81615345565b92915050565b60006020828403121561538757615386614fe0565b5b60006153958482850161535c565b91505092915050565b600080604083850312156153b5576153b4614fe0565b5b60006153c385828601615006565b92505060206153d485828601615006565b9150509250929050565b6153e781615145565b82525050565b600060208201905061540260008301846153de565b92915050565b600061541382615094565b9050919050565b61542381615408565b82525050565b600060208201905061543e600083018461541a565b92915050565b6000806040838503121561545b5761545a614fe0565b5b600061546985828601615103565b925050602061547a8582860161516e565b9150509250929050565b600061548f82615094565b9050919050565b61549f81615484565b82525050565b60006020820190506154ba6000830184615496565b92915050565b60006154cb82615145565b9050919050565b6154db816154c0565b81146154e657600080fd5b50565b6000813590506154f8816154d2565b92915050565b60006020828403121561551457615513614fe0565b5b6000615522848285016154e9565b91505092915050565b600061553682615145565b9050919050565b6155468161552b565b811461555157600080fd5b50565b6000813590506155638161553d565b92915050565b60006020828403121561557f5761557e614fe0565b5b600061558d84828501615554565b91505092915050565b60006155a182615094565b9050919050565b6155b181615596565b82525050565b60006020820190506155cc60008301846155a8565b92915050565b6155db816150e2565b82525050565b60006020820190506155f660008301846155d2565b92915050565b600060e082019050615611600083018a6153de565b61561e60208301896151b0565b61562b60408301886151b0565b61563860608301876151b0565b61564560808301866151b0565b61565260a08301856151b0565b61565f60c08301846151b0565b98975050505050505050565b600082825260208201905092915050565b82818337600083830152505050565b6000601f19601f8301169050919050565b60006156a8838561566b565b93506156b583858461567c565b6156be8361568b565b840190509392505050565b60006040820190506156de60008301866151b0565b81810360208301526156f181848661569c565b9050949350505050565b600060608201905061571060008301866153de565b61571d60208301856153de565b61572a60408301846151b0565b949350505050565b61573b8161521a565b811461574657600080fd5b50565b60008151905061575881615732565b92915050565b60006020828403121561577457615773614fe0565b5b600061578284828501615749565b91505092915050565b60006040820190506157a060008301856153de565b6157ad60208301846151b0565b9392505050565b600082825260208201905092915050565b7f696e6b2069732030000000000000000000000000000000000000000000000000600082015250565b60006157fb6008836157b4565b9150615806826157c5565b602082019050919050565b6000602082019050818103600083015261582a816157ee565b9050919050565b7f6172742069732030000000000000000000000000000000000000000000000000600082015250565b60006158676008836157b4565b915061587282615831565b602082019050919050565b600060208201905081810360008301526158968161585a565b9050919050565b7f637570206973206e6f7420736166650000000000000000000000000000000000600082015250565b60006158d3600f836157b4565b91506158de8261589d565b602082019050919050565b60006020820190508181036000830152615902816158c6565b9050919050565b7f4e487b7100000000000000000000000000000000000000000000000000000000600052601260045260246000fd5b7f4e487b7100000000000000000000000000000000000000000000000000000000600052601160045260246000fd5b600061597282614fe5565b915061597d83614fe5565b92508261598d5761598c615909565b5b828204905092915050565b7f696e746572657374526174655468726573686f6c6420636f6e646974696f6e2060008201527f6e6f74206d657400000000000000000000000000000000000000000000000000602082015250565b60006159f46027836157b4565b91506159ff82615998565b604082019050919050565b60006020820190508181036000830152615a23816159e7565b9050919050565b6000615a3582614fe5565b9150615a4083614fe5565b9250828201905080821115615a5857615a57615938565b5b92915050565b7f596f75206e65656420746f2077616974206c6f6e676572000000000000000000600082015250565b6000615a946017836157b4565b9150615a9f82615a5e565b602082019050919050565b60006020820190508181036000830152615ac381615a87565b9050919050565b7f64732d617574682d756e617574686f72697a6564000000000000000000000000600082015250565b6000615b006014836157b4565b9150615b0b82615aca565b602082019050919050565b60006020820190508181036000830152615b2f81615af3565b9050919050565b600081519050615b4581614fef565b92915050565b600060208284031215615b6157615b60614fe0565b5b6000615b6f84828501615b36565b91505092915050565b6000615b8382614fe5565b9150615b8e83614fe5565b9250828202615b9c81614fe5565b91508282048414831517615bb357615bb2615938565b5b5092915050565b600081519050615bc9816150ec565b92915050565b600060208284031215615be557615be4614fe0565b5b6000615bf384828501615bba565b91505092915050565b60008060408385031215615c1357615c12614fe0565b5b6000615c2185828601615bba565b9250506020615c3285828601615749565b9150509250929050565b7f61786520646f6573206e6f7420657175616c20746f2052415920000000000000600082015250565b6000615c72601a836157b4565b9150615c7d82615c3c565b602082019050919050565b60006020820190508181036000830152615ca181615c65565b9050919050565b6000615cb382614fe5565b9150615cbe83614fe5565b9250828203905081811115615cd657615cd5615938565b5b92915050565b7f4e487b7100000000000000000000000000000000000000000000000000000000600052600160045260246000fd5b60007fffffffff0000000000000000000000000000000000000000000000000000000082169050919050565b615d4081615d0b565b82525050565b6000606082019050615d5b60008301866153de565b615d6860208301856153de565b615d756040830184615d37565b949350505050565b7f64732d6d6174682d7375622d756e646572666c6f770000000000000000000000600082015250565b6000615db36015836157b4565b9150615dbe82615d7d565b602082019050919050565b60006020820190508181036000830152615de281615da6565b9050919050565b7f64732d6d6174682d6164642d6f766572666c6f77000000000000000000000000600082015250565b6000615e1f6014836157b4565b9150615e2a82615de9565b602082019050919050565b60006020820190508181036000830152615e4e81615e12565b9050919050565b6000615e6082614fe5565b9150615e6b83614fe5565b925082615e7b57615e7a615909565b5b828206905092915050565b6000819050919050565b6000615e9b82615e86565b9150615ea683615e86565b925082820190508281121560008312168382126000841215161715615ece57615ecd615938565b5b92915050565b6000615edf82615e86565b9150615eea83615e86565b9250828203905081811260008412168282136000851215161715615f1157615f10615938565b5b92915050565b7f64732d6d6174682d6d756c2d6f766572666c6f77000000000000000000000000600082015250565b6000615f4d6014836157b4565b9150615f5882615f17565b602082019050919050565b60006020820190508181036000830152615f7c81615f40565b905091905056fea26469706673582212201868022fd71f00ac5a4cd5c28093f5ac04e835902bd1ee7a4fd02a55b1174f0664736f6c63430008130033",
  "linkReferences": {},
  "deployedLinkReferences": {}
}