{
  "_format": "hh-sol-artifact-1",
  "contractName": "BCKSavingsAccount",
  "sourceName": "contracts/stake.sol",
  "abi": [
    {
      "inputs": [
        {
          "internalType": "address",
          "name": "_bck",
          "type": "address"
        },
        {
          "internalType": "address",
          "name": "_usdc",
          "type": "address"
        }
      ],
      "stateMutability": "nonpayable",
      "type": "constructor"
    },
    {
      "anonymous": false,
      "inputs": [
        {
          "indexed": true,
          "internalType": "address",
          "name": "from",
          "type": "address"
        },
        {
          "indexed": false,
          "internalType": "uint256",
          "name": "value",
          "type": "uint256"
        }
      ],
      "name": "USDCDistributed",
      "type": "event"
    },
    {
      "inputs": [
        {
          "internalType": "address",
          "name": "_owner",
          "type": "address"
        }
      ],
      "name": "accumulativeInterestOf",
      "outputs": [
        {
          "internalType": "uint256",
          "name": "",
          "type": "uint256"
        }
      ],
      "stateMutability": "view",
      "type": "function"
    },
    {
      "inputs": [
        {
          "internalType": "address",
          "name": "",
          "type": "address"
        }
      ],
      "name": "balances",
      "outputs": [
        {
          "internalType": "uint256",
          "name": "",
          "type": "uint256"
        }
      ],
      "stateMutability": "view",
      "type": "function"
    },
    {
      "inputs": [],
      "name": "bck",
      "outputs": [
        {
          "internalType": "contract ERC20Interface",
          "name": "",
          "type": "address"
        }
      ],
      "stateMutability": "view",
      "type": "function"
    },
    {
      "inputs": [
        {
          "internalType": "uint256",
          "name": "_amount",
          "type": "uint256"
        }
      ],
      "name": "depositBCK",
      "outputs": [],
      "stateMutability": "nonpayable",
      "type": "function"
    },
    {
      "inputs": [
        {
          "internalType": "uint256",
          "name": "_amount",
          "type": "uint256"
        }
      ],
      "name": "distributeUSDC",
      "outputs": [],
      "stateMutability": "nonpayable",
      "type": "function"
    },
    {
      "inputs": [
        {
          "internalType": "address",
          "name": "_owner",
          "type": "address"
        }
      ],
      "name": "interestOf",
      "outputs": [
        {
          "internalType": "uint256",
          "name": "",
          "type": "uint256"
        }
      ],
      "stateMutability": "view",
      "type": "function"
    },
    {
      "inputs": [],
      "name": "owner",
      "outputs": [
        {
          "internalType": "address",
          "name": "",
          "type": "address"
        }
      ],
      "stateMutability": "view",
      "type": "function"
    },
    {
      "inputs": [],
      "name": "totalDeposits",
      "outputs": [
        {
          "internalType": "uint256",
          "name": "",
          "type": "uint256"
        }
      ],
      "stateMutability": "view",
      "type": "function"
    },
    {
      "inputs": [],
      "name": "usdc",
      "outputs": [
        {
          "internalType": "contract ERC20Interface",
          "name": "",
          "type": "address"
        }
      ],
      "stateMutability": "view",
      "type": "function"
    },
    {
      "inputs": [
        {
          "internalType": "uint256",
          "name": "_amount",
          "type": "uint256"
        }
      ],
      "name": "withdrawBCK",
      "outputs": [],
      "stateMutability": "nonpayable",
      "type": "function"
    },
    {
      "inputs": [],
      "name": "withdrawInterest",
      "outputs": [],
      "stateMutability": "nonpayable",
      "type": "function"
    },
    {
      "inputs": [
        {
          "internalType": "address",
          "name": "_owner",
          "type": "address"
        }
      ],
      "name": "withdrawableInterestOf",
      "outputs": [
        {
          "internalType": "uint256",
          "name": "",
          "type": "uint256"
        }
      ],
      "stateMutability": "view",
      "type": "function"
    }
  ],
  "bytecode": "0x60806040523480156200001157600080fd5b50604051620017a4380380620017a483398181016040528101906200003791906200016b565b816000806101000a81548173ffffffffffffffffffffffffffffffffffffffff021916908373ffffffffffffffffffffffffffffffffffffffff16021790555080600160006101000a81548173ffffffffffffffffffffffffffffffffffffffff021916908373ffffffffffffffffffffffffffffffffffffffff16021790555033600260006101000a81548173ffffffffffffffffffffffffffffffffffffffff021916908373ffffffffffffffffffffffffffffffffffffffff1602179055505050620001b2565b600080fd5b600073ffffffffffffffffffffffffffffffffffffffff82169050919050565b6000620001338262000106565b9050919050565b620001458162000126565b81146200015157600080fd5b50565b60008151905062000165816200013a565b92915050565b6000806040838503121562000185576200018462000101565b5b6000620001958582860162000154565b9250506020620001a88582860162000154565b9150509250929050565b6115e280620001c26000396000f3fe608060405234801561001057600080fd5b50600436106100b35760003560e01c80638da5cb5b116100715780638da5cb5b1461017c5780639778dd2b1461019a5780639e5be1d0146101ca578063b35874cb146101e6578063b3bf2ff114610202578063d8e8b1771461021e576100b3565b806263750c146100b85780630f90c97b146100c257806327e235e3146100f25780633e413bee1461012257806371c21934146101405780637d8820971461015e575b600080fd5b6100c061024e565b005b6100dc60048036038101906100d79190610f67565b6103dc565b6040516100e99190610fad565b60405180910390f35b61010c60048036038101906101079190610f67565b61043f565b6040516101199190610fad565b60405180910390f35b61012a610457565b6040516101379190611027565b60405180910390f35b61014861047d565b6040516101559190611027565b60405180910390f35b6101666104a1565b6040516101739190610fad565b60405180910390f35b6101846104a7565b6040516101919190611051565b60405180910390f35b6101b460048036038101906101af9190610f67565b6104cd565b6040516101c19190610fad565b60405180910390f35b6101e460048036038101906101df9190611098565b6105a7565b005b61020060048036038101906101fb9190611098565b6107ea565b005b61021c60048036038101906102179190611098565b610aad565b005b61023860048036038101906102339190610f67565b610d21565b6040516102459190610fad565b60405180910390f35b6000610259336103dc565b905060008111156103d9576102b681600560003373ffffffffffffffffffffffffffffffffffffffff1673ffffffffffffffffffffffffffffffffffffffff16815260200190815260200160002054610d8490919063ffffffff16565b600560003373ffffffffffffffffffffffffffffffffffffffff1673ffffffffffffffffffffffffffffffffffffffff16815260200190815260200160002081905550600160009054906101000a900473ffffffffffffffffffffffffffffffffffffffff1673ffffffffffffffffffffffffffffffffffffffff1663a9059cbb33836040518363ffffffff1660e01b81526004016103569291906110c5565b6020604051808303816000875af1158015610375573d6000803e3d6000fd5b505050506040513d601f19601f820116820180604052508101906103999190611126565b6103d8576040517f08c379a00000000000000000000000000000000000000000000000000000000081526004016103cf906111b0565b60405180910390fd5b5b50565b6000610438600560008473ffffffffffffffffffffffffffffffffffffffff1673ffffffffffffffffffffffffffffffffffffffff1681526020019081526020016000205461042a846104cd565b610dab90919063ffffffff16565b9050919050565b60066020528060005260406000206000915090505481565b600160009054906101000a900473ffffffffffffffffffffffffffffffffffffffff1681565b60008054906101000a900473ffffffffffffffffffffffffffffffffffffffff1681565b60075481565b600260009054906101000a900473ffffffffffffffffffffffffffffffffffffffff1681565b6000700100000000000000000000000000000000610596610591600460008673ffffffffffffffffffffffffffffffffffffffff1673ffffffffffffffffffffffffffffffffffffffff1681526020019081526020016000205461058361057e600660008973ffffffffffffffffffffffffffffffffffffffff1673ffffffffffffffffffffffffffffffffffffffff16815260200190815260200160002054600354610dd290919063ffffffff16565b610e14565b610e3190919063ffffffff16565b610e7c565b6105a0919061122e565b9050919050565b60008054906101000a900473ffffffffffffffffffffffffffffffffffffffff1673ffffffffffffffffffffffffffffffffffffffff166323b872dd3330846040518463ffffffff1660e01b81526004016106049392919061125f565b6020604051808303816000875af1158015610623573d6000803e3d6000fd5b505050506040513d601f19601f820116820180604052508101906106479190611126565b610686576040517f08c379a000000000000000000000000000000000000000000000000000000000815260040161067d906112e2565b60405180910390fd5b6106f46106a66106a183600354610dd290919063ffffffff16565b610e14565b600460003373ffffffffffffffffffffffffffffffffffffffff1673ffffffffffffffffffffffffffffffffffffffff16815260200190815260200160002054610e9390919063ffffffff16565b600460003373ffffffffffffffffffffffffffffffffffffffff1673ffffffffffffffffffffffffffffffffffffffff1681526020019081526020016000208190555061078981600660003373ffffffffffffffffffffffffffffffffffffffff1673ffffffffffffffffffffffffffffffffffffffff16815260200190815260200160002054610d8490919063ffffffff16565b600660003373ffffffffffffffffffffffffffffffffffffffff1673ffffffffffffffffffffffffffffffffffffffff168152602001908152602001600020819055506107e181600754610d8490919063ffffffff16565b60078190555050565b80600660003373ffffffffffffffffffffffffffffffffffffffff1673ffffffffffffffffffffffffffffffffffffffff16815260200190815260200160002054101561086c576040517f08c379a00000000000000000000000000000000000000000000000000000000081526004016108639061134e565b60405180910390fd5b6108da61088c61088783600354610dd290919063ffffffff16565b610e14565b600460003373ffffffffffffffffffffffffffffffffffffffff1673ffffffffffffffffffffffffffffffffffffffff16815260200190815260200160002054610e3190919063ffffffff16565b600460003373ffffffffffffffffffffffffffffffffffffffff1673ffffffffffffffffffffffffffffffffffffffff1681526020019081526020016000208190555061096f81600660003373ffffffffffffffffffffffffffffffffffffffff1673ffffffffffffffffffffffffffffffffffffffff16815260200190815260200160002054610dab90919063ffffffff16565b600660003373ffffffffffffffffffffffffffffffffffffffff1673ffffffffffffffffffffffffffffffffffffffff168152602001908152602001600020819055506109c781600754610dab90919063ffffffff16565b60078190555060008054906101000a900473ffffffffffffffffffffffffffffffffffffffff1673ffffffffffffffffffffffffffffffffffffffff1663a9059cbb33836040518363ffffffff1660e01b8152600401610a289291906110c5565b6020604051808303816000875af1158015610a47573d6000803e3d6000fd5b505050506040513d601f19601f82011682018060405250810190610a6b9190611126565b610aaa576040517f08c379a0000000000000000000000000000000000000000000000000000000008152600401610aa1906112e2565b60405180910390fd5b50565b6000600160009054906101000a900473ffffffffffffffffffffffffffffffffffffffff1673ffffffffffffffffffffffffffffffffffffffff166370a08231336040518263ffffffff1660e01b8152600401610b0a9190611051565b602060405180830381865afa158015610b27573d6000803e3d6000fd5b505050506040513d601f19601f82011682018060405250810190610b4b9190611383565b905081811015610b90576040517f08c379a0000000000000000000000000000000000000000000000000000000008152600401610b8790611422565b60405180910390fd5b60006007541115610bee57610be7610bd6600754610bc870010000000000000000000000000000000086610dd290919063ffffffff16565b610eee90919063ffffffff16565b600354610d8490919063ffffffff16565b6003819055505b3373ffffffffffffffffffffffffffffffffffffffff167feabeb68bc82e6816f4dd3b51f8e2524ae7e215f1e6de273af003a3e788b7430383604051610c349190610fad565b60405180910390a2600160009054906101000a900473ffffffffffffffffffffffffffffffffffffffff1673ffffffffffffffffffffffffffffffffffffffff166323b872dd3330856040518463ffffffff1660e01b8152600401610c9b9392919061125f565b6020604051808303816000875af1158015610cba573d6000803e3d6000fd5b505050506040513d601f19601f82011682018060405250810190610cde9190611126565b610d1d576040517f08c379a0000000000000000000000000000000000000000000000000000000008152600401610d14906111b0565b60405180910390fd5b5050565b6000610d7d600560008473ffffffffffffffffffffffffffffffffffffffff1673ffffffffffffffffffffffffffffffffffffffff16815260200190815260200160002054610d6f846104cd565b610dab90919063ffffffff16565b9050919050565b60008183610d929190611442565b905082811015610da557610da4611476565b5b92915050565b600082821115610dbe57610dbd611476565b5b8183610dca91906114a5565b905092915050565b6000808303610de45760009050610e0e565b8183610df091906114d9565b9050818382610dff919061122e565b14610e0d57610e0c611476565b5b5b92915050565b6000808290506000811215610e2857600080fd5b80915050919050565b6000808284610e409190611525565b905060008312158015610e535750838112155b80610e695750600083128015610e6857508381125b5b610e7257600080fd5b8091505092915050565b600080821215610e8b57600080fd5b819050919050565b6000808212158015610eb05750828284610ead9190611569565b13155b80610ed15750600082128015610ed05750828284610ece9190611569565b135b5b610eda57600080fd5b8183610ee69190611569565b905092915050565b60008183610efc919061122e565b905092915050565b600080fd5b600073ffffffffffffffffffffffffffffffffffffffff82169050919050565b6000610f3482610f09565b9050919050565b610f4481610f29565b8114610f4f57600080fd5b50565b600081359050610f6181610f3b565b92915050565b600060208284031215610f7d57610f7c610f04565b5b6000610f8b84828501610f52565b91505092915050565b6000819050919050565b610fa781610f94565b82525050565b6000602082019050610fc26000830184610f9e565b92915050565b6000819050919050565b6000610fed610fe8610fe384610f09565b610fc8565b610f09565b9050919050565b6000610fff82610fd2565b9050919050565b600061101182610ff4565b9050919050565b61102181611006565b82525050565b600060208201905061103c6000830184611018565b92915050565b61104b81610f29565b82525050565b60006020820190506110666000830184611042565b92915050565b61107581610f94565b811461108057600080fd5b50565b6000813590506110928161106c565b92915050565b6000602082840312156110ae576110ad610f04565b5b60006110bc84828501611083565b91505092915050565b60006040820190506110da6000830185611042565b6110e76020830184610f9e565b9392505050565b60008115159050919050565b611103816110ee565b811461110e57600080fd5b50565b600081519050611120816110fa565b92915050565b60006020828403121561113c5761113b610f04565b5b600061114a84828501611111565b91505092915050565b600082825260208201905092915050565b7f55534443207472616e73666572206661696c6564000000000000000000000000600082015250565b600061119a601483611153565b91506111a582611164565b602082019050919050565b600060208201905081810360008301526111c98161118d565b9050919050565b7f4e487b7100000000000000000000000000000000000000000000000000000000600052601260045260246000fd5b7f4e487b7100000000000000000000000000000000000000000000000000000000600052601160045260246000fd5b600061123982610f94565b915061124483610f94565b925082611254576112536111d0565b5b828204905092915050565b60006060820190506112746000830186611042565b6112816020830185611042565b61128e6040830184610f9e565b949350505050565b7f42434b207472616e73666572206661696c656400000000000000000000000000600082015250565b60006112cc601383611153565b91506112d782611296565b602082019050919050565b600060208201905081810360008301526112fb816112bf565b9050919050565b7f496e73756666696369656e742042434b2062616c616e63650000000000000000600082015250565b6000611338601883611153565b915061134382611302565b602082019050919050565b600060208201905081810360008301526113678161132b565b9050919050565b60008151905061137d8161106c565b92915050565b60006020828403121561139957611398610f04565b5b60006113a78482850161136e565b91505092915050565b7f4f776e65722068617320696e73756666696369656e7420555344432062616c6160008201527f6e63650000000000000000000000000000000000000000000000000000000000602082015250565b600061140c602383611153565b9150611417826113b0565b604082019050919050565b6000602082019050818103600083015261143b816113ff565b9050919050565b600061144d82610f94565b915061145883610f94565b92508282019050808211156114705761146f6111ff565b5b92915050565b7f4e487b7100000000000000000000000000000000000000000000000000000000600052600160045260246000fd5b60006114b082610f94565b91506114bb83610f94565b92508282039050818111156114d3576114d26111ff565b5b92915050565b60006114e482610f94565b91506114ef83610f94565b92508282026114fd81610f94565b91508282048414831517611514576115136111ff565b5b5092915050565b6000819050919050565b60006115308261151b565b915061153b8361151b565b925082820190508281121560008312168382126000841215161715611563576115626111ff565b5b92915050565b60006115748261151b565b915061157f8361151b565b92508282039050818112600084121682821360008512151617156115a6576115a56111ff565b5b9291505056fea2646970667358221220903d165c2f7b23f1051b2b5d12a281af16ff25947aa7c301dbef14edc7c3187464736f6c63430008130033",
  "linkReferences": {},
  "deployedLinkReferences": {}
}