{
    "_format": "hh-sol-artifact-1",
    "contractName": "SaiTap",
    "sourceName": "contracts/src/tap.sol",
    "abi": [
        {
            "inputs": [
                {
                    "internalType": "contract SaiTub",
                    "name": "tub_",
                    "type": "address"
                }
            ],
            "stateMutability": "nonpayable",
            "type": "constructor"
        },
        {
            "anonymous": false,
            "inputs": [
                {
                    "indexed": false,
                    "internalType": "uint256",
                    "name": "result",
                    "type": "uint256"
                }
            ],
            "name": "AskResult",
            "type": "event"
        },
        {
            "anonymous": true,
            "inputs": [
                {
                    "indexed": true,
                    "internalType": "bytes4",
                    "name": "sig",
                    "type": "bytes4"
                },
                {
                    "indexed": true,
                    "internalType": "address",
                    "name": "guy",
                    "type": "address"
                },
                {
                    "indexed": true,
                    "internalType": "bytes32",
                    "name": "foo",
                    "type": "bytes32"
                },
                {
                    "indexed": true,
                    "internalType": "bytes32",
                    "name": "bar",
                    "type": "bytes32"
                },
                {
                    "indexed": false,
                    "internalType": "uint256",
                    "name": "wad",
                    "type": "uint256"
                },
                {
                    "indexed": false,
                    "internalType": "bytes",
                    "name": "fax",
                    "type": "bytes"
                }
            ],
            "name": "LogNote",
            "type": "event"
        },
        {
            "anonymous": false,
            "inputs": [
                {
                    "indexed": true,
                    "internalType": "address",
                    "name": "authority",
                    "type": "address"
                }
            ],
            "name": "LogSetAuthority",
            "type": "event"
        },
        {
            "anonymous": false,
            "inputs": [
                {
                    "indexed": true,
                    "internalType": "address",
                    "name": "owner",
                    "type": "address"
                }
            ],
            "name": "LogSetOwner",
            "type": "event"
        },
        {
            "anonymous": false,
            "inputs": [
                {
                    "indexed": false,
                    "internalType": "uint256",
                    "name": "result",
                    "type": "uint256"
                }
            ],
            "name": "S2SResult",
            "type": "event"
        },
        {
            "anonymous": false,
            "inputs": [
                {
                    "indexed": false,
                    "internalType": "uint256",
                    "name": "result",
                    "type": "uint256"
                }
            ],
            "name": "bidResult",
            "type": "event"
        },
        {
            "inputs": [
                {
                    "internalType": "uint256",
                    "name": "wad",
                    "type": "uint256"
                }
            ],
            "name": "ask",
            "outputs": [
                {
                    "internalType": "uint256",
                    "name": "",
                    "type": "uint256"
                }
            ],
            "stateMutability": "nonpayable",
            "type": "function"
        },
        {
            "inputs": [],
            "name": "authority",
            "outputs": [
                {
                    "internalType": "contract DSAuthority",
                    "name": "",
                    "type": "address"
                }
            ],
            "stateMutability": "view",
            "type": "function"
        },
        {
            "inputs": [
                {
                    "internalType": "uint256",
                    "name": "wad",
                    "type": "uint256"
                }
            ],
            "name": "bid",
            "outputs": [
                {
                    "internalType": "uint256",
                    "name": "",
                    "type": "uint256"
                }
            ],
            "stateMutability": "nonpayable",
            "type": "function"
        },
        {
            "inputs": [
                {
                    "internalType": "uint256",
                    "name": "wad",
                    "type": "uint256"
                }
            ],
            "name": "boom",
            "outputs": [],
            "stateMutability": "payable",
            "type": "function"
        },
        {
            "inputs": [
                {
                    "internalType": "uint256",
                    "name": "wad",
                    "type": "uint256"
                }
            ],
            "name": "bust",
            "outputs": [],
            "stateMutability": "payable",
            "type": "function"
        },
        {
            "inputs": [
                {
                    "internalType": "uint256",
                    "name": "fix_",
                    "type": "uint256"
                }
            ],
            "name": "cage",
            "outputs": [],
            "stateMutability": "payable",
            "type": "function"
        },
        {
            "inputs": [
                {
                    "internalType": "uint256",
                    "name": "wad",
                    "type": "uint256"
                }
            ],
            "name": "cash",
            "outputs": [],
            "stateMutability": "payable",
            "type": "function"
        },
        {
            "inputs": [],
            "name": "fix",
            "outputs": [
                {
                    "internalType": "uint256",
                    "name": "",
                    "type": "uint256"
                }
            ],
            "stateMutability": "view",
            "type": "function"
        },
        {
            "inputs": [],
            "name": "fog",
            "outputs": [
                {
                    "internalType": "uint256",
                    "name": "",
                    "type": "uint256"
                }
            ],
            "stateMutability": "view",
            "type": "function"
        },
        {
            "inputs": [],
            "name": "gap",
            "outputs": [
                {
                    "internalType": "uint256",
                    "name": "",
                    "type": "uint256"
                }
            ],
            "stateMutability": "view",
            "type": "function"
        },
        {
            "inputs": [],
            "name": "heal",
            "outputs": [],
            "stateMutability": "payable",
            "type": "function"
        },
        {
            "inputs": [],
            "name": "joy",
            "outputs": [
                {
                    "internalType": "uint256",
                    "name": "",
                    "type": "uint256"
                }
            ],
            "stateMutability": "view",
            "type": "function"
        },
        {
            "inputs": [
                {
                    "internalType": "uint256",
                    "name": "wad",
                    "type": "uint256"
                }
            ],
            "name": "mock",
            "outputs": [],
            "stateMutability": "payable",
            "type": "function"
        },
        {
            "inputs": [
                {
                    "internalType": "bytes32",
                    "name": "param",
                    "type": "bytes32"
                },
                {
                    "internalType": "uint256",
                    "name": "val",
                    "type": "uint256"
                }
            ],
            "name": "mold",
            "outputs": [],
            "stateMutability": "payable",
            "type": "function"
        },
        {
            "inputs": [],
            "name": "off",
            "outputs": [
                {
                    "internalType": "bool",
                    "name": "",
                    "type": "bool"
                }
            ],
            "stateMutability": "view",
            "type": "function"
        },
        {
            "inputs": [],
            "name": "owner",
            "outputs": [
                {
                    "internalType": "address",
                    "name": "",
                    "type": "address"
                }
            ],
            "stateMutability": "view",
            "type": "function"
        },
        {
            "inputs": [],
            "name": "s2s",
            "outputs": [
                {
                    "internalType": "uint256",
                    "name": "",
                    "type": "uint256"
                }
            ],
            "stateMutability": "nonpayable",
            "type": "function"
        },
        {
            "inputs": [],
            "name": "sai",
            "outputs": [
                {
                    "internalType": "contract DSToken",
                    "name": "",
                    "type": "address"
                }
            ],
            "stateMutability": "view",
            "type": "function"
        },
        {
            "inputs": [
                {
                    "internalType": "contract DSAuthority",
                    "name": "authority_",
                    "type": "address"
                }
            ],
            "name": "setAuthority",
            "outputs": [],
            "stateMutability": "nonpayable",
            "type": "function"
        },
        {
            "inputs": [
                {
                    "internalType": "address",
                    "name": "owner_",
                    "type": "address"
                }
            ],
            "name": "setOwner",
            "outputs": [],
            "stateMutability": "nonpayable",
            "type": "function"
        },
        {
            "inputs": [],
            "name": "sin",
            "outputs": [
                {
                    "internalType": "contract DSToken",
                    "name": "",
                    "type": "address"
                }
            ],
            "stateMutability": "view",
            "type": "function"
        },
        {
            "inputs": [],
            "name": "skr",
            "outputs": [
                {
                    "internalType": "contract DSToken",
                    "name": "",
                    "type": "address"
                }
            ],
            "stateMutability": "view",
            "type": "function"
        },
        {
            "inputs": [],
            "name": "tub",
            "outputs": [
                {
                    "internalType": "contract SaiTub",
                    "name": "",
                    "type": "address"
                }
            ],
            "stateMutability": "view",
            "type": "function"
        },
        {
            "inputs": [],
            "name": "vent",
            "outputs": [],
            "stateMutability": "payable",
            "type": "function"
        },
        {
            "inputs": [],
            "name": "vox",
            "outputs": [
                {
                    "internalType": "contract SaiVox",
                    "name": "",
                    "type": "address"
                }
            ],
            "stateMutability": "view",
            "type": "function"
        },
        {
            "inputs": [],
            "name": "woe",
            "outputs": [
                {
                    "internalType": "uint256",
                    "name": "",
                    "type": "uint256"
                }
            ],
            "stateMutability": "view",
            "type": "function"
        }
    ],
    "bytecode": "0x60806040523480156200001157600080fd5b506040516200302b3803806200302b8339818101604052810190620000379190620004e0565b33600160006101000a81548173ffffffffffffffffffffffffffffffffffffffff021916908373ffffffffffffffffffffffffffffffffffffffff1602179055503373ffffffffffffffffffffffffffffffffffffffff167fce241d7ca1f669fee44b6fc00b8eba2df3bb514eed0f6f668f8f89096e81ed9460405160405180910390a280600660006101000a81548173ffffffffffffffffffffffffffffffffffffffff021916908373ffffffffffffffffffffffffffffffffffffffff160217905550600660009054906101000a900473ffffffffffffffffffffffffffffffffffffffff1673ffffffffffffffffffffffffffffffffffffffff16639166cba46040518163ffffffff1660e01b8152600401602060405180830381865afa1580156200016a573d6000803e3d6000fd5b505050506040513d601f19601f8201168201806040525081019062000190919062000557565b600260006101000a81548173ffffffffffffffffffffffffffffffffffffffff021916908373ffffffffffffffffffffffffffffffffffffffff160217905550600660009054906101000a900473ffffffffffffffffffffffffffffffffffffffff1673ffffffffffffffffffffffffffffffffffffffff1663071bafb56040518163ffffffff1660e01b8152600401602060405180830381865afa1580156200023e573d6000803e3d6000fd5b505050506040513d601f19601f8201168201806040525081019062000264919062000557565b600360006101000a81548173ffffffffffffffffffffffffffffffffffffffff021916908373ffffffffffffffffffffffffffffffffffffffff160217905550600660009054906101000a900473ffffffffffffffffffffffffffffffffffffffff1673ffffffffffffffffffffffffffffffffffffffff16630f8a771e6040518163ffffffff1660e01b8152600401602060405180830381865afa15801562000312573d6000803e3d6000fd5b505050506040513d601f19601f8201168201806040525081019062000338919062000557565b600460006101000a81548173ffffffffffffffffffffffffffffffffffffffff021916908373ffffffffffffffffffffffffffffffffffffffff160217905550600660009054906101000a900473ffffffffffffffffffffffffffffffffffffffff1673ffffffffffffffffffffffffffffffffffffffff166367550a356040518163ffffffff1660e01b8152600401602060405180830381865afa158015620003e6573d6000803e3d6000fd5b505050506040513d601f19601f820116820180604052508101906200040c9190620005ce565b600560006101000a81548173ffffffffffffffffffffffffffffffffffffffff021916908373ffffffffffffffffffffffffffffffffffffffff160217905550670de0b6b3a76400006007819055505062000600565b600080fd5b600073ffffffffffffffffffffffffffffffffffffffff82169050919050565b6000620004948262000467565b9050919050565b6000620004a88262000487565b9050919050565b620004ba816200049b565b8114620004c657600080fd5b50565b600081519050620004da81620004af565b92915050565b600060208284031215620004f957620004f862000462565b5b60006200050984828501620004c9565b91505092915050565b60006200051f8262000487565b9050919050565b620005318162000512565b81146200053d57600080fd5b50565b600081519050620005518162000526565b92915050565b60006020828403121562000570576200056f62000462565b5b6000620005808482850162000540565b91505092915050565b6000620005968262000487565b9050919050565b620005a88162000589565b8114620005b457600080fd5b50565b600081519050620005c8816200059d565b92915050565b600060208284031215620005e757620005e662000462565b5b6000620005f784828501620005b7565b91505092915050565b612a1b80620006106000396000f3fe6080604052600436106101815760003560e01c806367550a35116100d157806392b0d7211161008a578063af378ce511610064578063af378ce5146104c8578063b443a085146104e4578063bf7e214f14610500578063e47e7e661461052b57610181565b806392b0d72114610465578063a2f91af214610481578063a551878e1461049d57610181565b806367550a35146103655780636c32c0a6146103905780637296359a146103bb5780637a9e5e4b146103e65780638da5cb5b1461040f5780639166cba41461043a57610181565b80632da8d3e61161013e578063454a2ab311610118578063454a2ab3146102a7578063465b43d0146102e457806365d1df241461030f5780636626b26d1461033a57610181565b80632da8d3e61461023557806334e70cc2146102605780633de377ec1461028b57610181565b80630434fe0b14610186578063071bafb5146101905780630f8a771e146101bb57806313af4035146101e65780631406b9211461020f57806317dc92f514610219575b600080fd5b61018e610568565b005b34801561019c57600080fd5b506101a561074a565b6040516101b2919061209e565b60405180910390f35b3480156101c757600080fd5b506101d0610770565b6040516101dd919061209e565b60405180910390f35b3480156101f257600080fd5b5061020d600480360381019061020891906120fc565b610796565b005b6102176108ac565b005b610233600480360381019061022e919061215f565b6109e2565b005b34801561024157600080fd5b5061024a610c36565b604051610257919061219b565b60405180910390f35b34801561026c57600080fd5b50610275610cd9565b60405161028291906121d7565b60405180910390f35b6102a560048036038101906102a0919061215f565b610cff565b005b3480156102b357600080fd5b506102ce60048036038101906102c9919061215f565b610f55565b6040516102db919061219b565b60405180910390f35b3480156102f057600080fd5b506102f9610fd3565b604051610306919061219b565b60405180910390f35b34801561031b57600080fd5b50610324611076565b604051610331919061219b565b60405180910390f35b34801561034657600080fd5b5061034f6111f1565b60405161035c919061220d565b60405180910390f35b34801561037157600080fd5b5061037a611204565b6040516103879190612249565b60405180910390f35b34801561039c57600080fd5b506103a561122a565b6040516103b2919061219b565b60405180910390f35b3480156103c757600080fd5b506103d0611230565b6040516103dd919061219b565b60405180910390f35b3480156103f257600080fd5b5061040d600480360381019061040891906122a2565b6112d3565b005b34801561041b57600080fd5b506104246113e6565b60405161043191906122de565b60405180910390f35b34801561044657600080fd5b5061044f61140c565b60405161045c919061209e565b60405180910390f35b61047f600480360381019061047a919061232f565b611432565b005b61049b6004803603810190610496919061215f565b611559565b005b3480156104a957600080fd5b506104b261168c565b6040516104bf919061219b565b60405180910390f35b6104e260048036038101906104dd919061215f565b611692565b005b6104fe60048036038101906104f9919061215f565b61179b565b005b34801561050c57600080fd5b5061051561184f565b6040516105229190612390565b60405180910390f35b34801561053757600080fd5b50610552600480360381019061054d919061215f565b611873565b60405161055f919061219b565b60405180910390f35b6000806004359150602435905080823373ffffffffffffffffffffffffffffffffffffffff166000357fffffffff00000000000000000000000000000000000000000000000000000000167bffffffffffffffffffffffffffffffffffffffffffffffffffffffff1916346000366040516105e593929190612409565b60405180910390a460006105f7610fd3565b148061060a57506000610608610c36565b145b61074657600061062861061b610fd3565b610623610c36565b6118d4565b9050600260009054906101000a900473ffffffffffffffffffffffffffffffffffffffff1673ffffffffffffffffffffffffffffffffffffffff166342966c68826040518263ffffffff1660e01b8152600401610685919061219b565b600060405180830381600087803b15801561069f57600080fd5b505af11580156106b3573d6000803e3d6000fd5b50505050600360009054906101000a900473ffffffffffffffffffffffffffffffffffffffff1673ffffffffffffffffffffffffffffffffffffffff166342966c68826040518263ffffffff1660e01b8152600401610712919061219b565b600060405180830381600087803b15801561072c57600080fd5b505af1158015610740573d6000803e3d6000fd5b50505050505b5050565b600360009054906101000a900473ffffffffffffffffffffffffffffffffffffffff1681565b600460009054906101000a900473ffffffffffffffffffffffffffffffffffffffff1681565b6107c4336000357fffffffff00000000000000000000000000000000000000000000000000000000166118ee565b610803576040517f08c379a00000000000000000000000000000000000000000000000000000000081526004016107fa90612498565b60405180910390fd5b80600160006101000a81548173ffffffffffffffffffffffffffffffffffffffff021916908373ffffffffffffffffffffffffffffffffffffffff160217905550600160009054906101000a900473ffffffffffffffffffffffffffffffffffffffff1673ffffffffffffffffffffffffffffffffffffffff167fce241d7ca1f669fee44b6fc00b8eba2df3bb514eed0f6f668f8f89096e81ed9460405160405180910390a250565b6000806004359150602435905080823373ffffffffffffffffffffffffffffffffffffffff166000357fffffffff00000000000000000000000000000000000000000000000000000000167bffffffffffffffffffffffffffffffffffffffffffffffffffffffff19163460003660405161092993929190612409565b60405180910390a4600860009054906101000a900460ff1661094a57600080fd5b600460009054906101000a900473ffffffffffffffffffffffffffffffffffffffff1673ffffffffffffffffffffffffffffffffffffffff166342966c68610990611230565b6040518263ffffffff1660e01b81526004016109ac919061219b565b600060405180830381600087803b1580156109c657600080fd5b505af11580156109da573d6000803e3d6000fd5b505050505050565b6000806004359150602435905080823373ffffffffffffffffffffffffffffffffffffffff166000357fffffffff00000000000000000000000000000000000000000000000000000000167bffffffffffffffffffffffffffffffffffffffffffffffffffffffff191634600036604051610a5f93929190612409565b60405180910390a4600860009054906101000a900460ff16610a8057600080fd5b600260009054906101000a900473ffffffffffffffffffffffffffffffffffffffff1673ffffffffffffffffffffffffffffffffffffffff16639dc29fac33856040518363ffffffff1660e01b8152600401610add9291906124b8565b600060405180830381600087803b158015610af757600080fd5b505af1158015610b0b573d6000803e3d6000fd5b50505050600660009054906101000a900473ffffffffffffffffffffffffffffffffffffffff1673ffffffffffffffffffffffffffffffffffffffff16637bd2bea76040518163ffffffff1660e01b8152600401602060405180830381865afa158015610b7c573d6000803e3d6000fd5b505050506040513d601f19601f82011682018060405250810190610ba0919061251f565b73ffffffffffffffffffffffffffffffffffffffff1663a9059cbb33610bc886600954611a8e565b6040518363ffffffff1660e01b8152600401610be59291906124b8565b6020604051808303816000875af1158015610c04573d6000803e3d6000fd5b505050506040513d601f19601f82011682018060405250810190610c289190612578565b610c3157600080fd5b505050565b6000600360009054906101000a900473ffffffffffffffffffffffffffffffffffffffff1673ffffffffffffffffffffffffffffffffffffffff166370a08231306040518263ffffffff1660e01b8152600401610c9391906122de565b602060405180830381865afa158015610cb0573d6000803e3d6000fd5b505050506040513d601f19601f82011682018060405250810190610cd491906125ba565b905090565b600660009054906101000a900473ffffffffffffffffffffffffffffffffffffffff1681565b6000806004359150602435905080823373ffffffffffffffffffffffffffffffffffffffff166000357fffffffff00000000000000000000000000000000000000000000000000000000167bffffffffffffffffffffffffffffffffffffffffffffffffffffffff191634600036604051610d7c93929190612409565b60405180910390a4600860009054906101000a900460ff16610d9d57600080fd5b600260009054906101000a900473ffffffffffffffffffffffffffffffffffffffff1673ffffffffffffffffffffffffffffffffffffffff166340c10f1933856040518363ffffffff1660e01b8152600401610dfa9291906124b8565b600060405180830381600087803b158015610e1457600080fd5b505af1158015610e28573d6000803e3d6000fd5b50505050600660009054906101000a900473ffffffffffffffffffffffffffffffffffffffff1673ffffffffffffffffffffffffffffffffffffffff16637bd2bea76040518163ffffffff1660e01b8152600401602060405180830381865afa158015610e99573d6000803e3d6000fd5b505050506040513d601f19601f82011682018060405250810190610ebd919061251f565b73ffffffffffffffffffffffffffffffffffffffff166323b872dd3330610ee687600954611a8e565b6040518463ffffffff1660e01b8152600401610f04939291906125e7565b6020604051808303816000875af1158015610f23573d6000803e3d6000fd5b505050506040513d601f19601f82011682018060405250810190610f479190612578565b610f5057600080fd5b505050565b600080610f9183610f8c610f67611076565b610f87670de0b6b3a76400006002610f7f919061264d565b600754611ada565b611b33565b611a8e565b90507fb48afc3e85c5d83f8a4172abb7aa1d3ffe380e7b034aa4a7c9c5a1972f5dd61181604051610fc2919061219b565b60405180910390a180915050919050565b6000600260009054906101000a900473ffffffffffffffffffffffffffffffffffffffff1673ffffffffffffffffffffffffffffffffffffffff166370a08231306040518263ffffffff1660e01b815260040161103091906122de565b602060405180830381865afa15801561104d573d6000803e3d6000fd5b505050506040513d601f19601f8201168201806040525081019061107191906125ba565b905090565b600080600660009054906101000a900473ffffffffffffffffffffffffffffffffffffffff1673ffffffffffffffffffffffffffffffffffffffff166351f910666040518163ffffffff1660e01b8152600401602060405180830381865afa1580156110e6573d6000803e3d6000fd5b505050506040513d601f19601f8201168201806040525081019061110a91906125ba565b90506000600560009054906101000a900473ffffffffffffffffffffffffffffffffffffffff1673ffffffffffffffffffffffffffffffffffffffff1663495d32cb6040518163ffffffff1660e01b81526004016020604051808303816000875af115801561117d573d6000803e3d6000fd5b505050506040513d601f19601f820116820180604052508101906111a191906125ba565b905060006111af8383611b77565b90507fe17cbf88346b75a565e8d1d2828c11e7c746d66a0b4f83484d3f296481284706816040516111e0919061219b565b60405180910390a180935050505090565b600860009054906101000a900460ff1681565b600560009054906101000a900473ffffffffffffffffffffffffffffffffffffffff1681565b60075481565b6000600460009054906101000a900473ffffffffffffffffffffffffffffffffffffffff1673ffffffffffffffffffffffffffffffffffffffff166370a08231306040518263ffffffff1660e01b815260040161128d91906122de565b602060405180830381865afa1580156112aa573d6000803e3d6000fd5b505050506040513d601f19601f820116820180604052508101906112ce91906125ba565b905090565b611301336000357fffffffff00000000000000000000000000000000000000000000000000000000166118ee565b611340576040517f08c379a000000000000000000000000000000000000000000000000000000000815260040161133790612498565b60405180910390fd5b806000806101000a81548173ffffffffffffffffffffffffffffffffffffffff021916908373ffffffffffffffffffffffffffffffffffffffff16021790555060008054906101000a900473ffffffffffffffffffffffffffffffffffffffff1673ffffffffffffffffffffffffffffffffffffffff167f1abebea81bfa2637f28358c371278fb15ede7ea8dd28d2e03b112ff6d936ada460405160405180910390a250565b600160009054906101000a900473ffffffffffffffffffffffffffffffffffffffff1681565b600260009054906101000a900473ffffffffffffffffffffffffffffffffffffffff1681565b6000806004359150602435905080823373ffffffffffffffffffffffffffffffffffffffff166000357fffffffff00000000000000000000000000000000000000000000000000000000167bffffffffffffffffffffffffffffffffffffffffffffffffffffffff1916346000366040516114af93929190612409565b60405180910390a46114e5336000357fffffffff00000000000000000000000000000000000000000000000000000000166118ee565b611524576040517f08c379a000000000000000000000000000000000000000000000000000000000815260040161151b90612498565b60405180910390fd5b7f6761700000000000000000000000000000000000000000000000000000000000840361155357826007819055505b50505050565b6000806004359150602435905080823373ffffffffffffffffffffffffffffffffffffffff166000357fffffffff00000000000000000000000000000000000000000000000000000000167bffffffffffffffffffffffffffffffffffffffffffffffffffffffff1916346000366040516115d693929190612409565b60405180910390a461160c336000357fffffffff00000000000000000000000000000000000000000000000000000000166118ee565b61164b576040517f08c379a000000000000000000000000000000000000000000000000000000000815260040161164290612498565b60405180910390fd5b600860009054906101000a900460ff161561166557600080fd5b6001600860006101000a81548160ff02191690831515021790555082600981905550505050565b60095481565b6000806004359150602435905080823373ffffffffffffffffffffffffffffffffffffffff166000357fffffffff00000000000000000000000000000000000000000000000000000000167bffffffffffffffffffffffffffffffffffffffffffffffffffffffff19163460003660405161170f93929190612409565b60405180910390a4600860009054906101000a900460ff1615611767576040517f08c379a000000000000000000000000000000000000000000000000000000000815260040161175e906126db565b60405180910390fd5b6000339050611774611230565b84111561178a576117858482611bb7565b611795565b6117948482611c76565b5b50505050565b6000806004359150602435905080823373ffffffffffffffffffffffffffffffffffffffff166000357fffffffff00000000000000000000000000000000000000000000000000000000167bffffffffffffffffffffffffffffffffffffffffffffffffffffffff19163460003660405161181893929190612409565b60405180910390a4600860009054906101000a900460ff161561183a57600080fd5b60003390506118498482611e1b565b50505050565b60008054906101000a900473ffffffffffffffffffffffffffffffffffffffff1681565b6000806118928361188d611885611076565b600754611b33565b611a8e565b90507fd74c59781c2dabc5a4d05cb79a9e94b4a2fd4824158f0ba19ad30ce240fa401e816040516118c3919061219b565b60405180910390a180915050919050565b6000818311156118e457816118e6565b825b905092915050565b60003073ffffffffffffffffffffffffffffffffffffffff168373ffffffffffffffffffffffffffffffffffffffff160361192c5760019050611a88565b600160009054906101000a900473ffffffffffffffffffffffffffffffffffffffff1673ffffffffffffffffffffffffffffffffffffffff168373ffffffffffffffffffffffffffffffffffffffff160361198a5760019050611a88565b600073ffffffffffffffffffffffffffffffffffffffff1660008054906101000a900473ffffffffffffffffffffffffffffffffffffffff1673ffffffffffffffffffffffffffffffffffffffff16036119e75760009050611a88565b60008054906101000a900473ffffffffffffffffffffffffffffffffffffffff1673ffffffffffffffffffffffffffffffffffffffff1663b70096138430856040518463ffffffff1660e01b8152600401611a4493929190612736565b602060405180830381865afa158015611a61573d6000803e3d6000fd5b505050506040513d601f19601f82011682018060405250810190611a859190612578565b90505b92915050565b60006b033b2e3c9fd0803ce8000000611ac8611aaa8585611f59565b60026b033b2e3c9fd0803ce8000000611ac3919061279c565b611fc6565b611ad2919061279c565b905092915050565b6000828284611ae991906127cd565b9150811115611b2d576040517f08c379a0000000000000000000000000000000000000000000000000000000008152600401611b249061284d565b60405180910390fd5b92915050565b6000670de0b6b3a7640000611b65611b4b8585611f59565b6002670de0b6b3a7640000611b60919061279c565b611fc6565b611b6f919061279c565b905092915050565b600081611ba5611b93856b033b2e3c9fd0803ce8000000611f59565b600285611ba0919061279c565b611fc6565b611baf919061279c565b905092915050565b600460009054906101000a900473ffffffffffffffffffffffffffffffffffffffff1673ffffffffffffffffffffffffffffffffffffffff1663a0712d68611c0684611c01611230565b611ada565b6040518263ffffffff1660e01b8152600401611c22919061219b565b600060405180830381600087803b158015611c3c57600080fd5b505af1158015611c50573d6000803e3d6000fd5b50505050611c5e8282611c76565b6000611c68610fd3565b14611c7257600080fd5b5050565b6000611c8183611873565b11611cc1576040517f08c379a0000000000000000000000000000000000000000000000000000000008152600401611cb8906128b9565b60405180910390fd5b600460009054906101000a900473ffffffffffffffffffffffffffffffffffffffff1673ffffffffffffffffffffffffffffffffffffffff166323b872dd3083856040518463ffffffff1660e01b8152600401611d20939291906125e7565b6020604051808303816000875af1158015611d3f573d6000803e3d6000fd5b505050506040513d601f19601f82011682018060405250810190611d639190612578565b50600260009054906101000a900473ffffffffffffffffffffffffffffffffffffffff1673ffffffffffffffffffffffffffffffffffffffff166323b872dd8230611dad86611873565b6040518463ffffffff1660e01b8152600401611dcb939291906125e7565b6020604051808303816000875af1158015611dea573d6000803e3d6000fd5b505050506040513d601f19601f82011682018060405250810190611e0e9190612578565b50611e17610568565b5050565b611e23610568565b600260009054906101000a900473ffffffffffffffffffffffffffffffffffffffff1673ffffffffffffffffffffffffffffffffffffffff166323b872dd3083856040518463ffffffff1660e01b8152600401611e82939291906125e7565b6020604051808303816000875af1158015611ea1573d6000803e3d6000fd5b505050506040513d601f19601f82011682018060405250810190611ec59190612578565b50600460009054906101000a900473ffffffffffffffffffffffffffffffffffffffff1673ffffffffffffffffffffffffffffffffffffffff16639dc29fac82846040518363ffffffff1660e01b8152600401611f239291906124b8565b600060405180830381600087803b158015611f3d57600080fd5b505af1158015611f51573d6000803e3d6000fd5b505050505050565b600080821480611f81575082828385611f72919061264d565b925082611f7f919061279c565b145b611fc0576040517f08c379a0000000000000000000000000000000000000000000000000000000008152600401611fb790612925565b60405180910390fd5b92915050565b6000828284611fd59190612945565b9150811015612019576040517f08c379a0000000000000000000000000000000000000000000000000000000008152600401612010906129c5565b60405180910390fd5b92915050565b600073ffffffffffffffffffffffffffffffffffffffff82169050919050565b6000819050919050565b600061206461205f61205a8461201f565b61203f565b61201f565b9050919050565b600061207682612049565b9050919050565b60006120888261206b565b9050919050565b6120988161207d565b82525050565b60006020820190506120b3600083018461208f565b92915050565b600080fd5b60006120c98261201f565b9050919050565b6120d9816120be565b81146120e457600080fd5b50565b6000813590506120f6816120d0565b92915050565b600060208284031215612112576121116120b9565b5b6000612120848285016120e7565b91505092915050565b6000819050919050565b61213c81612129565b811461214757600080fd5b50565b60008135905061215981612133565b92915050565b600060208284031215612175576121746120b9565b5b60006121838482850161214a565b91505092915050565b61219581612129565b82525050565b60006020820190506121b0600083018461218c565b92915050565b60006121c18261206b565b9050919050565b6121d1816121b6565b82525050565b60006020820190506121ec60008301846121c8565b92915050565b60008115159050919050565b612207816121f2565b82525050565b600060208201905061222260008301846121fe565b92915050565b60006122338261206b565b9050919050565b61224381612228565b82525050565b600060208201905061225e600083018461223a565b92915050565b600061226f826120be565b9050919050565b61227f81612264565b811461228a57600080fd5b50565b60008135905061229c81612276565b92915050565b6000602082840312156122b8576122b76120b9565b5b60006122c68482850161228d565b91505092915050565b6122d8816120be565b82525050565b60006020820190506122f360008301846122cf565b92915050565b6000819050919050565b61230c816122f9565b811461231757600080fd5b50565b60008135905061232981612303565b92915050565b60008060408385031215612346576123456120b9565b5b60006123548582860161231a565b92505060206123658582860161214a565b9150509250929050565b600061237a8261206b565b9050919050565b61238a8161236f565b82525050565b60006020820190506123a56000830184612381565b92915050565b600082825260208201905092915050565b82818337600083830152505050565b6000601f19601f8301169050919050565b60006123e883856123ab565b93506123f58385846123bc565b6123fe836123cb565b840190509392505050565b600060408201905061241e600083018661218c565b81810360208301526124318184866123dc565b9050949350505050565b600082825260208201905092915050565b7f64732d617574682d756e617574686f72697a6564000000000000000000000000600082015250565b600061248260148361243b565b915061248d8261244c565b602082019050919050565b600060208201905081810360008301526124b181612475565b9050919050565b60006040820190506124cd60008301856122cf565b6124da602083018461218c565b9392505050565b60006124ec826120be565b9050919050565b6124fc816124e1565b811461250757600080fd5b50565b600081519050612519816124f3565b92915050565b600060208284031215612535576125346120b9565b5b60006125438482850161250a565b91505092915050565b612555816121f2565b811461256057600080fd5b50565b6000815190506125728161254c565b92915050565b60006020828403121561258e5761258d6120b9565b5b600061259c84828501612563565b91505092915050565b6000815190506125b481612133565b92915050565b6000602082840312156125d0576125cf6120b9565b5b60006125de848285016125a5565b91505092915050565b60006060820190506125fc60008301866122cf565b61260960208301856122cf565b612616604083018461218c565b949350505050565b7f4e487b7100000000000000000000000000000000000000000000000000000000600052601160045260246000fd5b600061265882612129565b915061266383612129565b925082820261267181612129565b915082820484148315176126885761268761261e565b5b5092915050565b7f6f66662069732074686520697373756500000000000000000000000000000000600082015250565b60006126c560108361243b565b91506126d08261268f565b602082019050919050565b600060208201905081810360008301526126f4816126b8565b9050919050565b60007fffffffff0000000000000000000000000000000000000000000000000000000082169050919050565b612730816126fb565b82525050565b600060608201905061274b60008301866122cf565b61275860208301856122cf565b6127656040830184612727565b949350505050565b7f4e487b7100000000000000000000000000000000000000000000000000000000600052601260045260246000fd5b60006127a782612129565b91506127b283612129565b9250826127c2576127c161276d565b5b828204905092915050565b60006127d882612129565b91506127e383612129565b92508282039050818111156127fb576127fa61261e565b5b92915050565b7f64732d6d6174682d7375622d756e646572666c6f770000000000000000000000600082015250565b600061283760158361243b565b915061284282612801565b602082019050919050565b600060208201905081810360008301526128668161282a565b9050919050565b7f2861736b29203e203020776173206e6f74207361746973666965640000000000600082015250565b60006128a3601b8361243b565b91506128ae8261286d565b602082019050919050565b600060208201905081810360008301526128d281612896565b9050919050565b7f64732d6d6174682d6d756c2d6f766572666c6f77000000000000000000000000600082015250565b600061290f60148361243b565b915061291a826128d9565b602082019050919050565b6000602082019050818103600083015261293e81612902565b9050919050565b600061295082612129565b915061295b83612129565b92508282019050808211156129735761297261261e565b5b92915050565b7f64732d6d6174682d6164642d6f766572666c6f77000000000000000000000000600082015250565b60006129af60148361243b565b91506129ba82612979565b602082019050919050565b600060208201905081810360008301526129de816129a2565b905091905056fea264697066735822122023ef3d45e9cf1b065313dfb6912bcf04ecacdcd5038315ccca0154897220b49564736f6c63430008130033",
    "linkReferences": {},
    "deployedLinkReferences": {}
}